{
	"data": {
		"bytecode": {
			"linkReferences": {},
			"object": "608060405234801561001057600080fd5b5061029d806100206000396000f3fe60806040526004361061001e5760003560e01c80638d80ff0a14610023575b600080fd5b61003d6004803603810190610038919061021e565b61003f565b005b805160205b818110156100bf578083015160f81c6001820184015160601c60158301850151603584018601516055850187016000856000811461008957600181146100995761009e565b6000808585888a5af1915061009e565b600080fd5b50600081036100ac57600080fd5b8260550187019650505050505050610044565b505050565b6000604051905090565b600080fd5b600080fd5b600080fd5b600080fd5b6000601f19601f8301169050919050565b7f4e487b7100000000000000000000000000000000000000000000000000000000600052604160045260246000fd5b61012b826100e2565b810181811067ffffffffffffffff8211171561014a576101496100f3565b5b80604052505050565b600061015d6100c4565b90506101698282610122565b919050565b600067ffffffffffffffff821115610189576101886100f3565b5b610192826100e2565b9050602081019050919050565b82818337600083830152505050565b60006101c16101bc8461016e565b610153565b9050828152602081018484840111156101dd576101dc6100dd565b5b6101e884828561019f565b509392505050565b600082601f830112610205576102046100d8565b5b81356102158482602086016101ae565b91505092915050565b600060208284031215610234576102336100ce565b5b600082013567ffffffffffffffff811115610252576102516100d3565b5b61025e848285016101f0565b9150509291505056fea26469706673582212201475e23d46c73d4723b33f59fe10558c7c8d76d5abce47ccc63451548a25368064736f6c634300080d0033",
			"opcodes": "PUSH1 0x80 PUSH1 0x40 MSTORE CALLVALUE DUP1 ISZERO PUSH2 0x10 JUMPI PUSH1 0x0 DUP1 REVERT JUMPDEST POP PUSH2 0x29D DUP1 PUSH2 0x20 PUSH1 0x0 CODECOPY PUSH1 0x0 RETURN INVALID PUSH1 0x80 PUSH1 0x40 MSTORE PUSH1 0x4 CALLDATASIZE LT PUSH2 0x1E JUMPI PUSH1 0x0 CALLDATALOAD PUSH1 0xE0 SHR DUP1 PUSH4 0x8D80FF0A EQ PUSH2 0x23 JUMPI JUMPDEST PUSH1 0x0 DUP1 REVERT JUMPDEST PUSH2 0x3D PUSH1 0x4 DUP1 CALLDATASIZE SUB DUP2 ADD SWAP1 PUSH2 0x38 SWAP2 SWAP1 PUSH2 0x21E JUMP JUMPDEST PUSH2 0x3F JUMP JUMPDEST STOP JUMPDEST DUP1 MLOAD PUSH1 0x20 JUMPDEST DUP2 DUP2 LT ISZERO PUSH2 0xBF JUMPI DUP1 DUP4 ADD MLOAD PUSH1 0xF8 SHR PUSH1 0x1 DUP3 ADD DUP5 ADD MLOAD PUSH1 0x60 SHR PUSH1 0x15 DUP4 ADD DUP6 ADD MLOAD PUSH1 0x35 DUP5 ADD DUP7 ADD MLOAD PUSH1 0x55 DUP6 ADD DUP8 ADD PUSH1 0x0 DUP6 PUSH1 0x0 DUP2 EQ PUSH2 0x89 JUMPI PUSH1 0x1 DUP2 EQ PUSH2 0x99 JUMPI PUSH2 0x9E JUMP JUMPDEST PUSH1 0x0 DUP1 DUP6 DUP6 DUP9 DUP11 GAS CALL SWAP2 POP PUSH2 0x9E JUMP JUMPDEST PUSH1 0x0 DUP1 REVERT JUMPDEST POP PUSH1 0x0 DUP2 SUB PUSH2 0xAC JUMPI PUSH1 0x0 DUP1 REVERT JUMPDEST DUP3 PUSH1 0x55 ADD DUP8 ADD SWAP7 POP POP POP POP POP POP POP PUSH2 0x44 JUMP JUMPDEST POP POP POP JUMP JUMPDEST PUSH1 0x0 PUSH1 0x40 MLOAD SWAP1 POP SWAP1 JUMP JUMPDEST PUSH1 0x0 DUP1 REVERT JUMPDEST PUSH1 0x0 DUP1 REVERT JUMPDEST PUSH1 0x0 DUP1 REVERT JUMPDEST PUSH1 0x0 DUP1 REVERT JUMPDEST PUSH1 0x0 PUSH1 0x1F NOT PUSH1 0x1F DUP4 ADD AND SWAP1 POP SWAP2 SWAP1 POP JUMP JUMPDEST PUSH32 0x4E487B7100000000000000000000000000000000000000000000000000000000 PUSH1 0x0 MSTORE PUSH1 0x41 PUSH1 0x4 MSTORE PUSH1 0x24 PUSH1 0x0 REVERT JUMPDEST PUSH2 0x12B DUP3 PUSH2 0xE2 JUMP JUMPDEST DUP2 ADD DUP2 DUP2 LT PUSH8 0xFFFFFFFFFFFFFFFF DUP3 GT OR ISZERO PUSH2 0x14A JUMPI PUSH2 0x149 PUSH2 0xF3 JUMP JUMPDEST JUMPDEST DUP1 PUSH1 0x40 MSTORE POP POP POP JUMP JUMPDEST PUSH1 0x0 PUSH2 0x15D PUSH2 0xC4 JUMP JUMPDEST SWAP1 POP PUSH2 0x169 DUP3 DUP3 PUSH2 0x122 JUMP JUMPDEST SWAP2 SWAP1 POP JUMP JUMPDEST PUSH1 0x0 PUSH8 0xFFFFFFFFFFFFFFFF DUP3 GT ISZERO PUSH2 0x189 JUMPI PUSH2 0x188 PUSH2 0xF3 JUMP JUMPDEST JUMPDEST PUSH2 0x192 DUP3 PUSH2 0xE2 JUMP JUMPDEST SWAP1 POP PUSH1 0x20 DUP2 ADD SWAP1 POP SWAP2 SWAP1 POP JUMP JUMPDEST DUP3 DUP2 DUP4 CALLDATACOPY PUSH1 0x0 DUP4 DUP4 ADD MSTORE POP POP POP JUMP JUMPDEST PUSH1 0x0 PUSH2 0x1C1 PUSH2 0x1BC DUP5 PUSH2 0x16E JUMP JUMPDEST PUSH2 0x153 JUMP JUMPDEST SWAP1 POP DUP3 DUP2 MSTORE PUSH1 0x20 DUP2 ADD DUP5 DUP5 DUP5 ADD GT ISZERO PUSH2 0x1DD JUMPI PUSH2 0x1DC PUSH2 0xDD JUMP JUMPDEST JUMPDEST PUSH2 0x1E8 DUP5 DUP3 DUP6 PUSH2 0x19F JUMP JUMPDEST POP SWAP4 SWAP3 POP POP POP JUMP JUMPDEST PUSH1 0x0 DUP3 PUSH1 0x1F DUP4 ADD SLT PUSH2 0x205 JUMPI PUSH2 0x204 PUSH2 0xD8 JUMP JUMPDEST JUMPDEST DUP2 CALLDATALOAD PUSH2 0x215 DUP5 DUP3 PUSH1 0x20 DUP7 ADD PUSH2 0x1AE JUMP JUMPDEST SWAP2 POP POP SWAP3 SWAP2 POP POP JUMP JUMPDEST PUSH1 0x0 PUSH1 0x20 DUP3 DUP5 SUB SLT ISZERO PUSH2 0x234 JUMPI PUSH2 0x233 PUSH2 0xCE JUMP JUMPDEST JUMPDEST PUSH1 0x0 DUP3 ADD CALLDATALOAD PUSH8 0xFFFFFFFFFFFFFFFF DUP2 GT ISZERO PUSH2 0x252 JUMPI PUSH2 0x251 PUSH2 0xD3 JUMP JUMPDEST JUMPDEST PUSH2 0x25E DUP5 DUP3 DUP6 ADD PUSH2 0x1F0 JUMP JUMPDEST SWAP2 POP POP SWAP3 SWAP2 POP POP JUMP INVALID LOG2 PUSH5 0x6970667358 0x22 SLT KECCAK256 EQ PUSH22 0xE23D46C73D4723B33F59FE10558C7C8D76D5ABCE47CC 0xC6 CALLVALUE MLOAD SLOAD DUP11 0x25 CALLDATASIZE DUP1 PUSH5 0x736F6C6343 STOP ADDMOD 0xD STOP CALLER "
		},
		"gasEstimates": {
			"creation": {
				"codeDepositCost": "133800",
				"executionCost": "177",
				"totalCost": "133977"
			},
			"external": {
				"multiSend(bytes)": "infinite"
			}
		},
		"methodIdentifiers": {
			"multiSend(bytes)": "8d80ff0a"
		}
	},
	"abi": [
		{
			"inputs": [
				{
					"internalType": "bytes",
					"name": "transactions",
					"type": "bytes"
				}
			],
			"name": "multiSend",
			"outputs": [],
			"stateMutability": "payable",
			"type": "function"
		}
	]
}