{
	"data": {
		"bytecode": {
			"linkReferences": {},
			"object": "608060405234801561001057600080fd5b506100a560405180606001604052806040518060400160405280600b81526020017f566572696679436c61696d00000000000000000000000000000000000000000081525081526020016040518060400160405280600181526020017f3100000000000000000000000000000000000000000000000000000000000000815250815260200160618152506100b060201b60201c565b600081905550610197565b60007fc2f8787176b8ac6bf7215b4adcc1e069bf4ab82d9ab1df05a57a91d425935b6e82600001518051906020012083602001518051906020012084604001516040516020016101039493929190610152565b604051602081830303815290604052805190602001209050919050565b6000819050919050565b61013381610120565b82525050565b6000819050919050565b61014c81610139565b82525050565b6000608082019050610167600083018761012a565b610174602083018661012a565b610181604083018561012a565b61018e6060830184610143565b95945050505050565b610599806101a66000396000f3fe608060405234801561001057600080fd5b506004361061002b5760003560e01c8063110b1af614610030575b600080fd5b61004a600480360381019061004591906102fc565b610060565b60405161005791906103a4565b60405180910390f35b60008060405180606001604052808973ffffffffffffffffffffffffffffffffffffffff1681526020018881526020018781525090506100a2818686866100be565b6100af576100ae6103bf565b5b60019150509695505050505050565b6000806000546100cd87610192565b6040516020016100de929190610466565b6040516020818303038152906040528051906020012090507353de6a872435f5286befd0b6fb3bc06742af8c8f73ffffffffffffffffffffffffffffffffffffffff166001828787876040516000815260200160405260405161014494939291906104bb565b6020604051602081039080840390855afa158015610166573d6000803e3d6000fd5b5050506020604051035173ffffffffffffffffffffffffffffffffffffffff1614915050949350505050565b60007ff01c01a2ce7ee4222fc2ddf19ff353aad837b14f13f52ead32e65ca1199a26ff8260000151836020015184604001516040516020016101d7949392919061051e565b604051602081830303815290604052805190602001209050919050565b600080fd5b600073ffffffffffffffffffffffffffffffffffffffff82169050919050565b6000610224826101f9565b9050919050565b61023481610219565b811461023f57600080fd5b50565b6000813590506102518161022b565b92915050565b6000819050919050565b61026a81610257565b811461027557600080fd5b50565b60008135905061028781610261565b92915050565b600060ff82169050919050565b6102a38161028d565b81146102ae57600080fd5b50565b6000813590506102c08161029a565b92915050565b6000819050919050565b6102d9816102c6565b81146102e457600080fd5b50565b6000813590506102f6816102d0565b92915050565b60008060008060008060c08789031215610319576103186101f4565b5b600061032789828a01610242565b965050602061033889828a01610278565b955050604061034989828a01610278565b945050606061035a89828a016102b1565b935050608061036b89828a016102e7565b92505060a061037c89828a016102e7565b9150509295509295509295565b60008115159050919050565b61039e81610389565b82525050565b60006020820190506103b96000830184610395565b92915050565b7f4e487b7100000000000000000000000000000000000000000000000000000000600052600160045260246000fd5b600081905092915050565b7f1901000000000000000000000000000000000000000000000000000000000000600082015250565b600061042f6002836103ee565b915061043a826103f9565b600282019050919050565b6000819050919050565b61046061045b826102c6565b610445565b82525050565b600061047182610422565b915061047d828561044f565b60208201915061048d828461044f565b6020820191508190509392505050565b6104a6816102c6565b82525050565b6104b58161028d565b82525050565b60006080820190506104d0600083018761049d565b6104dd60208301866104ac565b6104ea604083018561049d565b6104f7606083018461049d565b95945050505050565b61050981610219565b82525050565b61051881610257565b82525050565b6000608082019050610533600083018761049d565b6105406020830186610500565b61054d604083018561050f565b61055a606083018461050f565b9594505050505056fea26469706673582212207c3b365bd322648d5fc3ad9cf3fecda902af830cc8c403842d1f2cfec667118c64736f6c634300080d0033",
			"opcodes": "PUSH1 0x80 PUSH1 0x40 MSTORE CALLVALUE DUP1 ISZERO PUSH2 0x10 JUMPI PUSH1 0x0 DUP1 REVERT JUMPDEST POP PUSH2 0xA5 PUSH1 0x40 MLOAD DUP1 PUSH1 0x60 ADD PUSH1 0x40 MSTORE DUP1 PUSH1 0x40 MLOAD DUP1 PUSH1 0x40 ADD PUSH1 0x40 MSTORE DUP1 PUSH1 0xB DUP2 MSTORE PUSH1 0x20 ADD PUSH32 0x566572696679436C61696D000000000000000000000000000000000000000000 DUP2 MSTORE POP DUP2 MSTORE PUSH1 0x20 ADD PUSH1 0x40 MLOAD DUP1 PUSH1 0x40 ADD PUSH1 0x40 MSTORE DUP1 PUSH1 0x1 DUP2 MSTORE PUSH1 0x20 ADD PUSH32 0x3100000000000000000000000000000000000000000000000000000000000000 DUP2 MSTORE POP DUP2 MSTORE PUSH1 0x20 ADD PUSH1 0x61 DUP2 MSTORE POP PUSH2 0xB0 PUSH1 0x20 SHL PUSH1 0x20 SHR JUMP JUMPDEST PUSH1 0x0 DUP2 SWAP1 SSTORE POP PUSH2 0x197 JUMP JUMPDEST PUSH1 0x0 PUSH32 0xC2F8787176B8AC6BF7215B4ADCC1E069BF4AB82D9AB1DF05A57A91D425935B6E DUP3 PUSH1 0x0 ADD MLOAD DUP1 MLOAD SWAP1 PUSH1 0x20 ADD KECCAK256 DUP4 PUSH1 0x20 ADD MLOAD DUP1 MLOAD SWAP1 PUSH1 0x20 ADD KECCAK256 DUP5 PUSH1 0x40 ADD MLOAD PUSH1 0x40 MLOAD PUSH1 0x20 ADD PUSH2 0x103 SWAP5 SWAP4 SWAP3 SWAP2 SWAP1 PUSH2 0x152 JUMP JUMPDEST PUSH1 0x40 MLOAD PUSH1 0x20 DUP2 DUP4 SUB SUB DUP2 MSTORE SWAP1 PUSH1 0x40 MSTORE DUP1 MLOAD SWAP1 PUSH1 0x20 ADD KECCAK256 SWAP1 POP SWAP2 SWAP1 POP JUMP JUMPDEST PUSH1 0x0 DUP2 SWAP1 POP SWAP2 SWAP1 POP JUMP JUMPDEST PUSH2 0x133 DUP2 PUSH2 0x120 JUMP JUMPDEST DUP3 MSTORE POP POP JUMP JUMPDEST PUSH1 0x0 DUP2 SWAP1 POP SWAP2 SWAP1 POP JUMP JUMPDEST PUSH2 0x14C DUP2 PUSH2 0x139 JUMP JUMPDEST DUP3 MSTORE POP POP JUMP JUMPDEST PUSH1 0x0 PUSH1 0x80 DUP3 ADD SWAP1 POP PUSH2 0x167 PUSH1 0x0 DUP4 ADD DUP8 PUSH2 0x12A JUMP JUMPDEST PUSH2 0x174 PUSH1 0x20 DUP4 ADD DUP7 PUSH2 0x12A JUMP JUMPDEST PUSH2 0x181 PUSH1 0x40 DUP4 ADD DUP6 PUSH2 0x12A JUMP JUMPDEST PUSH2 0x18E PUSH1 0x60 DUP4 ADD DUP5 PUSH2 0x143 JUMP JUMPDEST SWAP6 SWAP5 POP POP POP POP POP JUMP JUMPDEST PUSH2 0x599 DUP1 PUSH2 0x1A6 PUSH1 0x0 CODECOPY PUSH1 0x0 RETURN INVALID PUSH1 0x80 PUSH1 0x40 MSTORE CALLVALUE DUP1 ISZERO PUSH2 0x10 JUMPI PUSH1 0x0 DUP1 REVERT JUMPDEST POP PUSH1 0x4 CALLDATASIZE LT PUSH2 0x2B JUMPI PUSH1 0x0 CALLDATALOAD PUSH1 0xE0 SHR DUP1 PUSH4 0x110B1AF6 EQ PUSH2 0x30 JUMPI JUMPDEST PUSH1 0x0 DUP1 REVERT JUMPDEST PUSH2 0x4A PUSH1 0x4 DUP1 CALLDATASIZE SUB DUP2 ADD SWAP1 PUSH2 0x45 SWAP2 SWAP1 PUSH2 0x2FC JUMP JUMPDEST PUSH2 0x60 JUMP JUMPDEST PUSH1 0x40 MLOAD PUSH2 0x57 SWAP2 SWAP1 PUSH2 0x3A4 JUMP JUMPDEST PUSH1 0x40 MLOAD DUP1 SWAP2 SUB SWAP1 RETURN JUMPDEST PUSH1 0x0 DUP1 PUSH1 0x40 MLOAD DUP1 PUSH1 0x60 ADD PUSH1 0x40 MSTORE DUP1 DUP10 PUSH20 0xFFFFFFFFFFFFFFFFFFFFFFFFFFFFFFFFFFFFFFFF AND DUP2 MSTORE PUSH1 0x20 ADD DUP9 DUP2 MSTORE PUSH1 0x20 ADD DUP8 DUP2 MSTORE POP SWAP1 POP PUSH2 0xA2 DUP2 DUP7 DUP7 DUP7 PUSH2 0xBE JUMP JUMPDEST PUSH2 0xAF JUMPI PUSH2 0xAE PUSH2 0x3BF JUMP JUMPDEST JUMPDEST PUSH1 0x1 SWAP2 POP POP SWAP7 SWAP6 POP POP POP POP POP POP JUMP JUMPDEST PUSH1 0x0 DUP1 PUSH1 0x0 SLOAD PUSH2 0xCD DUP8 PUSH2 0x192 JUMP JUMPDEST PUSH1 0x40 MLOAD PUSH1 0x20 ADD PUSH2 0xDE SWAP3 SWAP2 SWAP1 PUSH2 0x466 JUMP JUMPDEST PUSH1 0x40 MLOAD PUSH1 0x20 DUP2 DUP4 SUB SUB DUP2 MSTORE SWAP1 PUSH1 0x40 MSTORE DUP1 MLOAD SWAP1 PUSH1 0x20 ADD KECCAK256 SWAP1 POP PUSH20 0x53DE6A872435F5286BEFD0B6FB3BC06742AF8C8F PUSH20 0xFFFFFFFFFFFFFFFFFFFFFFFFFFFFFFFFFFFFFFFF AND PUSH1 0x1 DUP3 DUP8 DUP8 DUP8 PUSH1 0x40 MLOAD PUSH1 0x0 DUP2 MSTORE PUSH1 0x20 ADD PUSH1 0x40 MSTORE PUSH1 0x40 MLOAD PUSH2 0x144 SWAP5 SWAP4 SWAP3 SWAP2 SWAP1 PUSH2 0x4BB JUMP JUMPDEST PUSH1 0x20 PUSH1 0x40 MLOAD PUSH1 0x20 DUP2 SUB SWAP1 DUP1 DUP5 SUB SWAP1 DUP6 GAS STATICCALL ISZERO DUP1 ISZERO PUSH2 0x166 JUMPI RETURNDATASIZE PUSH1 0x0 DUP1 RETURNDATACOPY RETURNDATASIZE PUSH1 0x0 REVERT JUMPDEST POP POP POP PUSH1 0x20 PUSH1 0x40 MLOAD SUB MLOAD PUSH20 0xFFFFFFFFFFFFFFFFFFFFFFFFFFFFFFFFFFFFFFFF AND EQ SWAP2 POP POP SWAP5 SWAP4 POP POP POP POP JUMP JUMPDEST PUSH1 0x0 PUSH32 0xF01C01A2CE7EE4222FC2DDF19FF353AAD837B14F13F52EAD32E65CA1199A26FF DUP3 PUSH1 0x0 ADD MLOAD DUP4 PUSH1 0x20 ADD MLOAD DUP5 PUSH1 0x40 ADD MLOAD PUSH1 0x40 MLOAD PUSH1 0x20 ADD PUSH2 0x1D7 SWAP5 SWAP4 SWAP3 SWAP2 SWAP1 PUSH2 0x51E JUMP JUMPDEST PUSH1 0x40 MLOAD PUSH1 0x20 DUP2 DUP4 SUB SUB DUP2 MSTORE SWAP1 PUSH1 0x40 MSTORE DUP1 MLOAD SWAP1 PUSH1 0x20 ADD KECCAK256 SWAP1 POP SWAP2 SWAP1 POP JUMP JUMPDEST PUSH1 0x0 DUP1 REVERT JUMPDEST PUSH1 0x0 PUSH20 0xFFFFFFFFFFFFFFFFFFFFFFFFFFFFFFFFFFFFFFFF DUP3 AND SWAP1 POP SWAP2 SWAP1 POP JUMP JUMPDEST PUSH1 0x0 PUSH2 0x224 DUP3 PUSH2 0x1F9 JUMP JUMPDEST SWAP1 POP SWAP2 SWAP1 POP JUMP JUMPDEST PUSH2 0x234 DUP2 PUSH2 0x219 JUMP JUMPDEST DUP2 EQ PUSH2 0x23F JUMPI PUSH1 0x0 DUP1 REVERT JUMPDEST POP JUMP JUMPDEST PUSH1 0x0 DUP2 CALLDATALOAD SWAP1 POP PUSH2 0x251 DUP2 PUSH2 0x22B JUMP JUMPDEST SWAP3 SWAP2 POP POP JUMP JUMPDEST PUSH1 0x0 DUP2 SWAP1 POP SWAP2 SWAP1 POP JUMP JUMPDEST PUSH2 0x26A DUP2 PUSH2 0x257 JUMP JUMPDEST DUP2 EQ PUSH2 0x275 JUMPI PUSH1 0x0 DUP1 REVERT JUMPDEST POP JUMP JUMPDEST PUSH1 0x0 DUP2 CALLDATALOAD SWAP1 POP PUSH2 0x287 DUP2 PUSH2 0x261 JUMP JUMPDEST SWAP3 SWAP2 POP POP JUMP JUMPDEST PUSH1 0x0 PUSH1 0xFF DUP3 AND SWAP1 POP SWAP2 SWAP1 POP JUMP JUMPDEST PUSH2 0x2A3 DUP2 PUSH2 0x28D JUMP JUMPDEST DUP2 EQ PUSH2 0x2AE JUMPI PUSH1 0x0 DUP1 REVERT JUMPDEST POP JUMP JUMPDEST PUSH1 0x0 DUP2 CALLDATALOAD SWAP1 POP PUSH2 0x2C0 DUP2 PUSH2 0x29A JUMP JUMPDEST SWAP3 SWAP2 POP POP JUMP JUMPDEST PUSH1 0x0 DUP2 SWAP1 POP SWAP2 SWAP1 POP JUMP JUMPDEST PUSH2 0x2D9 DUP2 PUSH2 0x2C6 JUMP JUMPDEST DUP2 EQ PUSH2 0x2E4 JUMPI PUSH1 0x0 DUP1 REVERT JUMPDEST POP JUMP JUMPDEST PUSH1 0x0 DUP2 CALLDATALOAD SWAP1 POP PUSH2 0x2F6 DUP2 PUSH2 0x2D0 JUMP JUMPDEST SWAP3 SWAP2 POP POP JUMP JUMPDEST PUSH1 0x0 DUP1 PUSH1 0x0 DUP1 PUSH1 0x0 DUP1 PUSH1 0xC0 DUP8 DUP10 SUB SLT ISZERO PUSH2 0x319 JUMPI PUSH2 0x318 PUSH2 0x1F4 JUMP JUMPDEST JUMPDEST PUSH1 0x0 PUSH2 0x327 DUP10 DUP3 DUP11 ADD PUSH2 0x242 JUMP JUMPDEST SWAP7 POP POP PUSH1 0x20 PUSH2 0x338 DUP10 DUP3 DUP11 ADD PUSH2 0x278 JUMP JUMPDEST SWAP6 POP POP PUSH1 0x40 PUSH2 0x349 DUP10 DUP3 DUP11 ADD PUSH2 0x278 JUMP JUMPDEST SWAP5 POP POP PUSH1 0x60 PUSH2 0x35A DUP10 DUP3 DUP11 ADD PUSH2 0x2B1 JUMP JUMPDEST SWAP4 POP POP PUSH1 0x80 PUSH2 0x36B DUP10 DUP3 DUP11 ADD PUSH2 0x2E7 JUMP JUMPDEST SWAP3 POP POP PUSH1 0xA0 PUSH2 0x37C DUP10 DUP3 DUP11 ADD PUSH2 0x2E7 JUMP JUMPDEST SWAP2 POP POP SWAP3 SWAP6 POP SWAP3 SWAP6 POP SWAP3 SWAP6 JUMP JUMPDEST PUSH1 0x0 DUP2 ISZERO ISZERO SWAP1 POP SWAP2 SWAP1 POP JUMP JUMPDEST PUSH2 0x39E DUP2 PUSH2 0x389 JUMP JUMPDEST DUP3 MSTORE POP POP JUMP JUMPDEST PUSH1 0x0 PUSH1 0x20 DUP3 ADD SWAP1 POP PUSH2 0x3B9 PUSH1 0x0 DUP4 ADD DUP5 PUSH2 0x395 JUMP JUMPDEST SWAP3 SWAP2 POP POP JUMP JUMPDEST PUSH32 0x4E487B7100000000000000000000000000000000000000000000000000000000 PUSH1 0x0 MSTORE PUSH1 0x1 PUSH1 0x4 MSTORE PUSH1 0x24 PUSH1 0x0 REVERT JUMPDEST PUSH1 0x0 DUP2 SWAP1 POP SWAP3 SWAP2 POP POP JUMP JUMPDEST PUSH32 0x1901000000000000000000000000000000000000000000000000000000000000 PUSH1 0x0 DUP3 ADD MSTORE POP JUMP JUMPDEST PUSH1 0x0 PUSH2 0x42F PUSH1 0x2 DUP4 PUSH2 0x3EE JUMP JUMPDEST SWAP2 POP PUSH2 0x43A DUP3 PUSH2 0x3F9 JUMP JUMPDEST PUSH1 0x2 DUP3 ADD SWAP1 POP SWAP2 SWAP1 POP JUMP JUMPDEST PUSH1 0x0 DUP2 SWAP1 POP SWAP2 SWAP1 POP JUMP JUMPDEST PUSH2 0x460 PUSH2 0x45B DUP3 PUSH2 0x2C6 JUMP JUMPDEST PUSH2 0x445 JUMP JUMPDEST DUP3 MSTORE POP POP JUMP JUMPDEST PUSH1 0x0 PUSH2 0x471 DUP3 PUSH2 0x422 JUMP JUMPDEST SWAP2 POP PUSH2 0x47D DUP3 DUP6 PUSH2 0x44F JUMP JUMPDEST PUSH1 0x20 DUP3 ADD SWAP2 POP PUSH2 0x48D DUP3 DUP5 PUSH2 0x44F JUMP JUMPDEST PUSH1 0x20 DUP3 ADD SWAP2 POP DUP2 SWAP1 POP SWAP4 SWAP3 POP POP POP JUMP JUMPDEST PUSH2 0x4A6 DUP2 PUSH2 0x2C6 JUMP JUMPDEST DUP3 MSTORE POP POP JUMP JUMPDEST PUSH2 0x4B5 DUP2 PUSH2 0x28D JUMP JUMPDEST DUP3 MSTORE POP POP JUMP JUMPDEST PUSH1 0x0 PUSH1 0x80 DUP3 ADD SWAP1 POP PUSH2 0x4D0 PUSH1 0x0 DUP4 ADD DUP8 PUSH2 0x49D JUMP JUMPDEST PUSH2 0x4DD PUSH1 0x20 DUP4 ADD DUP7 PUSH2 0x4AC JUMP JUMPDEST PUSH2 0x4EA PUSH1 0x40 DUP4 ADD DUP6 PUSH2 0x49D JUMP JUMPDEST PUSH2 0x4F7 PUSH1 0x60 DUP4 ADD DUP5 PUSH2 0x49D JUMP JUMPDEST SWAP6 SWAP5 POP POP POP POP POP JUMP JUMPDEST PUSH2 0x509 DUP2 PUSH2 0x219 JUMP JUMPDEST DUP3 MSTORE POP POP JUMP JUMPDEST PUSH2 0x518 DUP2 PUSH2 0x257 JUMP JUMPDEST DUP3 MSTORE POP POP JUMP JUMPDEST PUSH1 0x0 PUSH1 0x80 DUP3 ADD SWAP1 POP PUSH2 0x533 PUSH1 0x0 DUP4 ADD DUP8 PUSH2 0x49D JUMP JUMPDEST PUSH2 0x540 PUSH1 0x20 DUP4 ADD DUP7 PUSH2 0x500 JUMP JUMPDEST PUSH2 0x54D PUSH1 0x40 DUP4 ADD DUP6 PUSH2 0x50F JUMP JUMPDEST PUSH2 0x55A PUSH1 0x60 DUP4 ADD DUP5 PUSH2 0x50F JUMP JUMPDEST SWAP6 SWAP5 POP POP POP POP POP JUMP INVALID LOG2 PUSH5 0x6970667358 0x22 SLT KECCAK256 PUSH29 0x3B365BD322648D5FC3AD9CF3FECDA902AF830CC8C403842D1F2CFEC667 GT DUP13 PUSH5 0x736F6C6343 STOP ADDMOD 0xD STOP CALLER "
		},
		"gasEstimates": {
			"creation": {
				"codeDepositCost": "286600",
				"executionCost": "infinite",
				"totalCost": "infinite"
			},
			"external": {
				"test(address,uint256,uint256,uint8,bytes32,bytes32)": "infinite"
			},
			"internal": {
				"hash(struct Example.EIP712Domain memory)": "infinite",
				"hash(struct Example.Mail memory)": "infinite",
				"hash(struct Example.Person memory)": "infinite",
				"hash(struct Example.VerifyClaim memory)": "infinite",
				"verify(struct Example.VerifyClaim memory,uint8,bytes32,bytes32)": "infinite"
			}
		},
		"methodIdentifiers": {
			"test(address,uint256,uint256,uint8,bytes32,bytes32)": "110b1af6"
		}
	},
	"abi": [
		{
			"inputs": [],
			"stateMutability": "nonpayable",
			"type": "constructor"
		},
		{
			"inputs": [
				{
					"internalType": "address",
					"name": "_userAddress",
					"type": "address"
				},
				{
					"internalType": "uint256",
					"name": "_randNO",
					"type": "uint256"
				},
				{
					"internalType": "uint256",
					"name": "_amount",
					"type": "uint256"
				},
				{
					"internalType": "uint8",
					"name": "_v",
					"type": "uint8"
				},
				{
					"internalType": "bytes32",
					"name": "_r",
					"type": "bytes32"
				},
				{
					"internalType": "bytes32",
					"name": "_s",
					"type": "bytes32"
				}
			],
			"name": "test",
			"outputs": [
				{
					"internalType": "bool",
					"name": "",
					"type": "bool"
				}
			],
			"stateMutability": "view",
			"type": "function"
		}
	]
}