{
	"bid.sol": {
		"Example": {
			"abi": [
				{
					"constant": true,
					"inputs": [
						{
							"name": "_userAddress",
							"type": "address"
						},
						{
							"name": "_randNO",
							"type": "uint256"
						},
						{
							"name": "_amount",
							"type": "uint256"
						},
						{
							"name": "_v",
							"type": "uint8"
						},
						{
							"name": "_r",
							"type": "bytes32"
						},
						{
							"name": "_s",
							"type": "bytes32"
						}
					],
					"name": "test",
					"outputs": [
						{
							"name": "",
							"type": "bool"
						}
					],
					"payable": false,
					"stateMutability": "view",
					"type": "function"
				},
				{
					"inputs": [],
					"payable": false,
					"stateMutability": "nonpayable",
					"type": "constructor"
				}
			],
			"devdoc": {
				"methods": {}
			},
			"evm": {
				"assembly": "    /* \"bid.sol\":62:3168  contract Example {\r... */\n  mstore(0x40, 0x80)\n    /* \"bid.sol\":1053:1231  constructor () public {\r... */\n  callvalue\n    /* \"--CODEGEN--\":8:17   */\n  dup1\n    /* \"--CODEGEN--\":5:7   */\n  iszero\n  tag_1\n  jumpi\n    /* \"--CODEGEN--\":30:31   */\n  0x0\n    /* \"--CODEGEN--\":27:28   */\n  dup1\n    /* \"--CODEGEN--\":20:32   */\n  revert\n    /* \"--CODEGEN--\":5:7   */\ntag_1:\n    /* \"bid.sol\":1053:1231  constructor () public {\r... */\n  pop\n    /* \"bid.sol\":1105:1223  hash(EIP712Domain({\r... */\n  tag_4\n    /* \"bid.sol\":1110:1222  EIP712Domain({\r... */\n  0x60\n  mload(0x40)\n  swap1\n  dup2\n  add\n  0x40\n  mstore\n  dup1\n  0x40\n  dup1\n  mload\n  swap1\n  dup2\n  add\n  0x40\n  mstore\n  dup1\n  0xb\n  dup2\n  mstore\n  0x20\n  add\n  0x566572696679436c61696d000000000000000000000000000000000000000000\n  dup2\n  mstore\n  pop\n  dup2\n  mstore\n  0x20\n  add\n  0x40\n  dup1\n  mload\n  swap1\n  dup2\n  add\n  0x40\n  mstore\n  dup1\n  0x1\n  dup2\n  mstore\n  0x20\n  add\n  0x3100000000000000000000000000000000000000000000000000000000000000\n  dup2\n  mstore\n  pop\n  dup2\n  mstore\n  0x20\n  add\n    /* \"bid.sol\":1208:1210  97 */\n  0x61\n    /* \"bid.sol\":1110:1222  EIP712Domain({\r... */\n  dup2\n  mstore\n  pop\n    /* \"bid.sol\":1105:1109  hash */\n  mul(0x100000000, tag_5)\n    /* \"bid.sol\":1105:1223  hash(EIP712Domain({\r... */\n  0x100000000\n  swap1\n  div\n  jump\t// in\ntag_4:\n    /* \"bid.sol\":1086:1102  DOMAIN_SEPARATOR */\n  0x0\n    /* \"bid.sol\":1086:1223  DOMAIN_SEPARATOR = hash(EIP712Domain({\r... */\n  dup2\n  not(0x0)\n  and\n  swap1\n  sstore\n  pop\n    /* \"bid.sol\":62:3168  contract Example {\r... */\n  jump(tag_6)\n    /* \"bid.sol\":1723:2028  function hash(EIP712Domain eip712Domain) internal pure returns (bytes32) {\r... */\ntag_5:\n    /* \"bid.sol\":1787:1794  bytes32 */\n  0x0\n    /* \"bid.sol\":786:871  keccak256(\r... */\n  mload(0x40)\n  dup1\n  dup1\n  0x454950373132446f6d61696e28737472696e67206e616d652c737472696e6720\n  dup2\n  mstore\n  0x20\n  add\n  0x76657273696f6e2c75696e7432353620636861696e4964290000000000000000\n  dup2\n  mstore\n  pop\n  0x38\n  add\n  swap1\n  pop\n  mload(0x40)\n  dup1\n  swap2\n  sub\n  swap1\n  keccak256\n    /* \"bid.sol\":1901:1913  eip712Domain */\n  dup3\n    /* \"bid.sol\":1901:1918  eip712Domain.name */\n  0x0\n  add\n  mload\n    /* \"bid.sol\":1885:1920  keccak256(bytes(eip712Domain.name)) */\n  mload(0x40)\n  dup1\n  dup3\n  dup1\n  mload\n  swap1\n  0x20\n  add\n  swap1\n  dup1\n  dup4\n  dup4\n    /* \"--CODEGEN--\":36:189   */\ntag_8:\n    /* \"--CODEGEN--\":66:68   */\n  0x20\n    /* \"--CODEGEN--\":61:64   */\n  dup4\n    /* \"--CODEGEN--\":58:69   */\n  lt\n    /* \"--CODEGEN--\":51:70   */\n  iszero\n    /* \"--CODEGEN--\":36:189   */\n  iszero\n  tag_9\n  jumpi\n    /* \"--CODEGEN--\":182:185   */\n  dup1\n    /* \"--CODEGEN--\":176:186   */\n  mload\n    /* \"--CODEGEN--\":171:174   */\n  dup3\n    /* \"--CODEGEN--\":164:187   */\n  mstore\n    /* \"--CODEGEN--\":98:100   */\n  0x20\n    /* \"--CODEGEN--\":93:96   */\n  dup3\n    /* \"--CODEGEN--\":89:101   */\n  add\n    /* \"--CODEGEN--\":82:101   */\n  swap2\n  pop\n    /* \"--CODEGEN--\":123:125   */\n  0x20\n    /* \"--CODEGEN--\":118:121   */\n  dup2\n    /* \"--CODEGEN--\":114:126   */\n  add\n    /* \"--CODEGEN--\":107:126   */\n  swap1\n  pop\n    /* \"--CODEGEN--\":148:150   */\n  0x20\n    /* \"--CODEGEN--\":143:146   */\n  dup4\n    /* \"--CODEGEN--\":139:151   */\n  sub\n    /* \"--CODEGEN--\":132:151   */\n  swap3\n  pop\n    /* \"--CODEGEN--\":36:189   */\n  jump(tag_8)\ntag_9:\n    /* \"--CODEGEN--\":274:275   */\n  0x1\n    /* \"--CODEGEN--\":267:270   */\n  dup4\n    /* \"--CODEGEN--\":263:265   */\n  0x20\n    /* \"--CODEGEN--\":259:271   */\n  sub\n    /* \"--CODEGEN--\":254:257   */\n  0x100\n    /* \"--CODEGEN--\":250:272   */\n  exp\n    /* \"--CODEGEN--\":246:276   */\n  sub\n    /* \"--CODEGEN--\":315:319   */\n  dup1\n    /* \"--CODEGEN--\":311:320   */\n  not\n    /* \"--CODEGEN--\":305:308   */\n  dup3\n    /* \"--CODEGEN--\":299:309   */\n  mload\n    /* \"--CODEGEN--\":295:321   */\n  and\n    /* \"--CODEGEN--\":356:360   */\n  dup2\n    /* \"--CODEGEN--\":350:353   */\n  dup5\n    /* \"--CODEGEN--\":344:354   */\n  mload\n    /* \"--CODEGEN--\":340:361   */\n  and\n    /* \"--CODEGEN--\":389:396   */\n  dup1\n    /* \"--CODEGEN--\":380:387   */\n  dup3\n    /* \"--CODEGEN--\":377:397   */\n  or\n    /* \"--CODEGEN--\":372:375   */\n  dup6\n    /* \"--CODEGEN--\":365:398   */\n  mstore\n    /* \"--CODEGEN--\":3:402   */\n  pop\n  pop\n  pop\n    /* \"bid.sol\":1885:1920  keccak256(bytes(eip712Domain.name)) */\n  pop\n  pop\n  pop\n  swap1\n  pop\n  add\n  swap2\n  pop\n  pop\n  mload(0x40)\n  dup1\n  swap2\n  sub\n  swap1\n  keccak256\n    /* \"bid.sol\":1951:1963  eip712Domain */\n  dup4\n    /* \"bid.sol\":1951:1971  eip712Domain.version */\n  0x20\n  add\n  mload\n    /* \"bid.sol\":1935:1973  keccak256(bytes(eip712Domain.version)) */\n  mload(0x40)\n  dup1\n  dup3\n  dup1\n  mload\n  swap1\n  0x20\n  add\n  swap1\n  dup1\n  dup4\n  dup4\n    /* \"--CODEGEN--\":36:189   */\ntag_11:\n    /* \"--CODEGEN--\":66:68   */\n  0x20\n    /* \"--CODEGEN--\":61:64   */\n  dup4\n    /* \"--CODEGEN--\":58:69   */\n  lt\n    /* \"--CODEGEN--\":51:70   */\n  iszero\n    /* \"--CODEGEN--\":36:189   */\n  iszero\n  tag_12\n  jumpi\n    /* \"--CODEGEN--\":182:185   */\n  dup1\n    /* \"--CODEGEN--\":176:186   */\n  mload\n    /* \"--CODEGEN--\":171:174   */\n  dup3\n    /* \"--CODEGEN--\":164:187   */\n  mstore\n    /* \"--CODEGEN--\":98:100   */\n  0x20\n    /* \"--CODEGEN--\":93:96   */\n  dup3\n    /* \"--CODEGEN--\":89:101   */\n  add\n    /* \"--CODEGEN--\":82:101   */\n  swap2\n  pop\n    /* \"--CODEGEN--\":123:125   */\n  0x20\n    /* \"--CODEGEN--\":118:121   */\n  dup2\n    /* \"--CODEGEN--\":114:126   */\n  add\n    /* \"--CODEGEN--\":107:126   */\n  swap1\n  pop\n    /* \"--CODEGEN--\":148:150   */\n  0x20\n    /* \"--CODEGEN--\":143:146   */\n  dup4\n    /* \"--CODEGEN--\":139:151   */\n  sub\n    /* \"--CODEGEN--\":132:151   */\n  swap3\n  pop\n    /* \"--CODEGEN--\":36:189   */\n  jump(tag_11)\ntag_12:\n    /* \"--CODEGEN--\":274:275   */\n  0x1\n    /* \"--CODEGEN--\":267:270   */\n  dup4\n    /* \"--CODEGEN--\":263:265   */\n  0x20\n    /* \"--CODEGEN--\":259:271   */\n  sub\n    /* \"--CODEGEN--\":254:257   */\n  0x100\n    /* \"--CODEGEN--\":250:272   */\n  exp\n    /* \"--CODEGEN--\":246:276   */\n  sub\n    /* \"--CODEGEN--\":315:319   */\n  dup1\n    /* \"--CODEGEN--\":311:320   */\n  not\n    /* \"--CODEGEN--\":305:308   */\n  dup3\n    /* \"--CODEGEN--\":299:309   */\n  mload\n    /* \"--CODEGEN--\":295:321   */\n  and\n    /* \"--CODEGEN--\":356:360   */\n  dup2\n    /* \"--CODEGEN--\":350:353   */\n  dup5\n    /* \"--CODEGEN--\":344:354   */\n  mload\n    /* \"--CODEGEN--\":340:361   */\n  and\n    /* \"--CODEGEN--\":389:396   */\n  dup1\n    /* \"--CODEGEN--\":380:387   */\n  dup3\n    /* \"--CODEGEN--\":377:397   */\n  or\n    /* \"--CODEGEN--\":372:375   */\n  dup6\n    /* \"--CODEGEN--\":365:398   */\n  mstore\n    /* \"--CODEGEN--\":3:402   */\n  pop\n  pop\n  pop\n    /* \"bid.sol\":1935:1973  keccak256(bytes(eip712Domain.version)) */\n  pop\n  pop\n  pop\n  swap1\n  pop\n  add\n  swap2\n  pop\n  pop\n  mload(0x40)\n  dup1\n  swap2\n  sub\n  swap1\n  keccak256\n    /* \"bid.sol\":1988:2000  eip712Domain */\n  dup5\n    /* \"bid.sol\":1988:2008  eip712Domain.chainId */\n  0x40\n  add\n  mload\n    /* \"bid.sol\":1824:2019  abi.encode(\r... */\n  add(0x20, mload(0x40))\n  dup1\n  dup6\n  not(0x0)\n  and\n  not(0x0)\n  and\n  dup2\n  mstore\n  0x20\n  add\n  dup5\n  not(0x0)\n  and\n  not(0x0)\n  and\n  dup2\n  mstore\n  0x20\n  add\n  dup4\n  not(0x0)\n  and\n  not(0x0)\n  and\n  dup2\n  mstore\n  0x20\n  add\n  dup3\n  dup2\n  mstore\n  0x20\n  add\n  swap5\n  pop\n  pop\n  pop\n  pop\n  pop\n  mload(0x40)\n    /* \"--CODEGEN--\":49:53   */\n  0x20\n    /* \"--CODEGEN--\":39:46   */\n  dup2\n    /* \"--CODEGEN--\":30:37   */\n  dup4\n    /* \"--CODEGEN--\":26:47   */\n  sub\n    /* \"--CODEGEN--\":22:54   */\n  sub\n    /* \"--CODEGEN--\":13:20   */\n  dup2\n    /* \"--CODEGEN--\":6:55   */\n  mstore\n    /* \"bid.sol\":1824:2019  abi.encode(\r... */\n  swap1\n  0x40\n  mstore\n    /* \"bid.sol\":1814:2020  keccak256(abi.encode(\r... */\n  mload(0x40)\n  dup1\n  dup3\n  dup1\n  mload\n  swap1\n  0x20\n  add\n  swap1\n  dup1\n  dup4\n  dup4\n    /* \"--CODEGEN--\":36:189   */\ntag_14:\n    /* \"--CODEGEN--\":66:68   */\n  0x20\n    /* \"--CODEGEN--\":61:64   */\n  dup4\n    /* \"--CODEGEN--\":58:69   */\n  lt\n    /* \"--CODEGEN--\":51:70   */\n  iszero\n    /* \"--CODEGEN--\":36:189   */\n  iszero\n  tag_15\n  jumpi\n    /* \"--CODEGEN--\":182:185   */\n  dup1\n    /* \"--CODEGEN--\":176:186   */\n  mload\n    /* \"--CODEGEN--\":171:174   */\n  dup3\n    /* \"--CODEGEN--\":164:187   */\n  mstore\n    /* \"--CODEGEN--\":98:100   */\n  0x20\n    /* \"--CODEGEN--\":93:96   */\n  dup3\n    /* \"--CODEGEN--\":89:101   */\n  add\n    /* \"--CODEGEN--\":82:101   */\n  swap2\n  pop\n    /* \"--CODEGEN--\":123:125   */\n  0x20\n    /* \"--CODEGEN--\":118:121   */\n  dup2\n    /* \"--CODEGEN--\":114:126   */\n  add\n    /* \"--CODEGEN--\":107:126   */\n  swap1\n  pop\n    /* \"--CODEGEN--\":148:150   */\n  0x20\n    /* \"--CODEGEN--\":143:146   */\n  dup4\n    /* \"--CODEGEN--\":139:151   */\n  sub\n    /* \"--CODEGEN--\":132:151   */\n  swap3\n  pop\n    /* \"--CODEGEN--\":36:189   */\n  jump(tag_14)\ntag_15:\n    /* \"--CODEGEN--\":274:275   */\n  0x1\n    /* \"--CODEGEN--\":267:270   */\n  dup4\n    /* \"--CODEGEN--\":263:265   */\n  0x20\n    /* \"--CODEGEN--\":259:271   */\n  sub\n    /* \"--CODEGEN--\":254:257   */\n  0x100\n    /* \"--CODEGEN--\":250:272   */\n  exp\n    /* \"--CODEGEN--\":246:276   */\n  sub\n    /* \"--CODEGEN--\":315:319   */\n  dup1\n    /* \"--CODEGEN--\":311:320   */\n  not\n    /* \"--CODEGEN--\":305:308   */\n  dup3\n    /* \"--CODEGEN--\":299:309   */\n  mload\n    /* \"--CODEGEN--\":295:321   */\n  and\n    /* \"--CODEGEN--\":356:360   */\n  dup2\n    /* \"--CODEGEN--\":350:353   */\n  dup5\n    /* \"--CODEGEN--\":344:354   */\n  mload\n    /* \"--CODEGEN--\":340:361   */\n  and\n    /* \"--CODEGEN--\":389:396   */\n  dup1\n    /* \"--CODEGEN--\":380:387   */\n  dup3\n    /* \"--CODEGEN--\":377:397   */\n  or\n    /* \"--CODEGEN--\":372:375   */\n  dup6\n    /* \"--CODEGEN--\":365:398   */\n  mstore\n    /* \"--CODEGEN--\":3:402   */\n  pop\n  pop\n  pop\n    /* \"bid.sol\":1814:2020  keccak256(abi.encode(\r... */\n  pop\n  pop\n  pop\n  swap1\n  pop\n  add\n  swap2\n  pop\n  pop\n  mload(0x40)\n  dup1\n  swap2\n  sub\n  swap1\n  keccak256\n    /* \"bid.sol\":1807:2020  return keccak256(abi.encode(\r... */\n  swap1\n  pop\n    /* \"bid.sol\":1723:2028  function hash(EIP712Domain eip712Domain) internal pure returns (bytes32) {\r... */\n  swap2\n  swap1\n  pop\n  jump\t// out\n    /* \"bid.sol\":62:3168  contract Example {\r... */\ntag_6:\n  dataSize(sub_0)\n  dup1\n  dataOffset(sub_0)\n  0x0\n  codecopy\n  0x0\n  return\nstop\n\nsub_0: assembly {\n        /* \"bid.sol\":62:3168  contract Example {\r... */\n      mstore(0x40, 0x80)\n      jumpi(tag_1, lt(calldatasize, 0x4))\n      calldataload(0x0)\n      0x100000000000000000000000000000000000000000000000000000000\n      swap1\n      div\n      0xffffffff\n      and\n      dup1\n      0x110b1af6\n      eq\n      tag_2\n      jumpi\n    tag_1:\n      0x0\n      dup1\n      revert\n        /* \"bid.sol\":2751:3165  function test(address _userAddress, uint256 _randNO, uint256 _amount, uint8 _v, bytes32 _r, bytes32 _s) public view returns (bool) {\r... */\n    tag_2:\n      callvalue\n        /* \"--CODEGEN--\":8:17   */\n      dup1\n        /* \"--CODEGEN--\":5:7   */\n      iszero\n      tag_3\n      jumpi\n        /* \"--CODEGEN--\":30:31   */\n      0x0\n        /* \"--CODEGEN--\":27:28   */\n      dup1\n        /* \"--CODEGEN--\":20:32   */\n      revert\n        /* \"--CODEGEN--\":5:7   */\n    tag_3:\n        /* \"bid.sol\":2751:3165  function test(address _userAddress, uint256 _randNO, uint256 _amount, uint8 _v, bytes32 _r, bytes32 _s) public view returns (bool) {\r... */\n      pop\n      tag_4\n      0x4\n      dup1\n      calldatasize\n      sub\n      dup2\n      add\n      swap1\n      dup1\n      dup1\n      calldataload\n      0xffffffffffffffffffffffffffffffffffffffff\n      and\n      swap1\n      0x20\n      add\n      swap1\n      swap3\n      swap2\n      swap1\n      dup1\n      calldataload\n      swap1\n      0x20\n      add\n      swap1\n      swap3\n      swap2\n      swap1\n      dup1\n      calldataload\n      swap1\n      0x20\n      add\n      swap1\n      swap3\n      swap2\n      swap1\n      dup1\n      calldataload\n      0xff\n      and\n      swap1\n      0x20\n      add\n      swap1\n      swap3\n      swap2\n      swap1\n      dup1\n      calldataload\n      not(0x0)\n      and\n      swap1\n      0x20\n      add\n      swap1\n      swap3\n      swap2\n      swap1\n      dup1\n      calldataload\n      not(0x0)\n      and\n      swap1\n      0x20\n      add\n      swap1\n      swap3\n      swap2\n      swap1\n      pop\n      pop\n      pop\n      jump(tag_5)\n    tag_4:\n      mload(0x40)\n      dup1\n      dup3\n      iszero\n      iszero\n      iszero\n      iszero\n      dup2\n      mstore\n      0x20\n      add\n      swap2\n      pop\n      pop\n      mload(0x40)\n      dup1\n      swap2\n      sub\n      swap1\n      return\n    tag_5:\n        /* \"bid.sol\":2876:2880  bool */\n      0x0\n        /* \"bid.sol\":2928:2958  VerifyClaim memory verifyclaim */\n      tag_6\n      jump\t// in(tag_7)\n    tag_6:\n        /* \"bid.sol\":2961:3085  VerifyClaim({\r... */\n      0x60\n      mload(0x40)\n      swap1\n      dup2\n      add\n      0x40\n      mstore\n      dup1\n        /* \"bid.sol\":3001:3013  _userAddress */\n      dup10\n        /* \"bid.sol\":2961:3085  VerifyClaim({\r... */\n      0xffffffffffffffffffffffffffffffffffffffff\n      and\n      dup2\n      mstore\n      0x20\n      add\n        /* \"bid.sol\":3036:3043  _randNO */\n      dup9\n        /* \"bid.sol\":2961:3085  VerifyClaim({\r... */\n      dup2\n      mstore\n      0x20\n      add\n        /* \"bid.sol\":3066:3073  _amount */\n      dup8\n        /* \"bid.sol\":2961:3085  VerifyClaim({\r... */\n      dup2\n      mstore\n      pop\n        /* \"bid.sol\":2928:3085  VerifyClaim memory verifyclaim = VerifyClaim({\r... */\n      swap1\n      pop\n        /* \"bid.sol\":3103:3134  verify(verifyclaim, _v, _r, _s) */\n      tag_9\n        /* \"bid.sol\":3110:3121  verifyclaim */\n      dup2\n        /* \"bid.sol\":3123:3125  _v */\n      dup7\n        /* \"bid.sol\":3127:3129  _r */\n      dup7\n        /* \"bid.sol\":3131:3133  _s */\n      dup7\n        /* \"bid.sol\":3103:3109  verify */\n      tag_10\n        /* \"bid.sol\":3103:3134  verify(verifyclaim, _v, _r, _s) */\n      jump\t// in\n    tag_9:\n        /* \"bid.sol\":3096:3135  assert(verify(verifyclaim, _v, _r, _s)) */\n      iszero\n      iszero\n      tag_11\n      jumpi\n      invalid\n    tag_11:\n        /* \"bid.sol\":3153:3157  true */\n      0x1\n        /* \"bid.sol\":3146:3157  return true */\n      swap2\n      pop\n        /* \"bid.sol\":2751:3165  function test(address _userAddress, uint256 _randNO, uint256 _amount, uint8 _v, bytes32 _r, bytes32 _s) public view returns (bool) {\r... */\n      pop\n      swap7\n      swap6\n      pop\n      pop\n      pop\n      pop\n      pop\n      pop\n      jump\t// out\n        /* \"bid.sol\":2312:2739  function verify(VerifyClaim verifyclaim, uint8 v, bytes32 r, bytes32 s) internal view returns (bool) {\r... */\n    tag_10:\n        /* \"bid.sol\":2407:2411  bool */\n      0x0\n        /* \"bid.sol\":2498:2512  bytes32 digest */\n      dup1\n        /* \"bid.sol\":2581:2597  DOMAIN_SEPARATOR */\n      sload(0x0)\n        /* \"bid.sol\":2612:2629  hash(verifyclaim) */\n      tag_13\n        /* \"bid.sol\":2617:2628  verifyclaim */\n      dup8\n        /* \"bid.sol\":2612:2616  hash */\n      tag_14\n        /* \"bid.sol\":2612:2629  hash(verifyclaim) */\n      jump\t// in\n    tag_13:\n        /* \"bid.sol\":2525:2640  abi.encodePacked(\r... */\n      add(0x20, mload(0x40))\n      dup1\n      dup1\n      0x1901000000000000000000000000000000000000000000000000000000000000\n      dup2\n      mstore\n      pop\n      0x2\n      add\n      dup4\n      not(0x0)\n      and\n      not(0x0)\n      and\n      dup2\n      mstore\n      0x20\n      add\n      dup3\n      not(0x0)\n      and\n      not(0x0)\n      and\n      dup2\n      mstore\n      0x20\n      add\n      swap3\n      pop\n      pop\n      pop\n      mload(0x40)\n        /* \"--CODEGEN--\":49:53   */\n      0x20\n        /* \"--CODEGEN--\":39:46   */\n      dup2\n        /* \"--CODEGEN--\":30:37   */\n      dup4\n        /* \"--CODEGEN--\":26:47   */\n      sub\n        /* \"--CODEGEN--\":22:54   */\n      sub\n        /* \"--CODEGEN--\":13:20   */\n      dup2\n        /* \"--CODEGEN--\":6:55   */\n      mstore\n        /* \"bid.sol\":2525:2640  abi.encodePacked(\r... */\n      swap1\n      0x40\n      mstore\n        /* \"bid.sol\":2515:2641  keccak256(abi.encodePacked(\r... */\n      mload(0x40)\n      dup1\n      dup3\n      dup1\n      mload\n      swap1\n      0x20\n      add\n      swap1\n      dup1\n      dup4\n      dup4\n        /* \"--CODEGEN--\":36:189   */\n    tag_15:\n        /* \"--CODEGEN--\":66:68   */\n      0x20\n        /* \"--CODEGEN--\":61:64   */\n      dup4\n        /* \"--CODEGEN--\":58:69   */\n      lt\n        /* \"--CODEGEN--\":51:70   */\n      iszero\n        /* \"--CODEGEN--\":36:189   */\n      iszero\n      tag_16\n      jumpi\n        /* \"--CODEGEN--\":182:185   */\n      dup1\n        /* \"--CODEGEN--\":176:186   */\n      mload\n        /* \"--CODEGEN--\":171:174   */\n      dup3\n        /* \"--CODEGEN--\":164:187   */\n      mstore\n        /* \"--CODEGEN--\":98:100   */\n      0x20\n        /* \"--CODEGEN--\":93:96   */\n      dup3\n        /* \"--CODEGEN--\":89:101   */\n      add\n        /* \"--CODEGEN--\":82:101   */\n      swap2\n      pop\n        /* \"--CODEGEN--\":123:125   */\n      0x20\n        /* \"--CODEGEN--\":118:121   */\n      dup2\n        /* \"--CODEGEN--\":114:126   */\n      add\n        /* \"--CODEGEN--\":107:126   */\n      swap1\n      pop\n        /* \"--CODEGEN--\":148:150   */\n      0x20\n        /* \"--CODEGEN--\":143:146   */\n      dup4\n        /* \"--CODEGEN--\":139:151   */\n      sub\n        /* \"--CODEGEN--\":132:151   */\n      swap3\n      pop\n        /* \"--CODEGEN--\":36:189   */\n      jump(tag_15)\n    tag_16:\n        /* \"--CODEGEN--\":274:275   */\n      0x1\n        /* \"--CODEGEN--\":267:270   */\n      dup4\n        /* \"--CODEGEN--\":263:265   */\n      0x20\n        /* \"--CODEGEN--\":259:271   */\n      sub\n        /* \"--CODEGEN--\":254:257   */\n      0x100\n        /* \"--CODEGEN--\":250:272   */\n      exp\n        /* \"--CODEGEN--\":246:276   */\n      sub\n        /* \"--CODEGEN--\":315:319   */\n      dup1\n        /* \"--CODEGEN--\":311:320   */\n      not\n        /* \"--CODEGEN--\":305:308   */\n      dup3\n        /* \"--CODEGEN--\":299:309   */\n      mload\n        /* \"--CODEGEN--\":295:321   */\n      and\n        /* \"--CODEGEN--\":356:360   */\n      dup2\n        /* \"--CODEGEN--\":350:353   */\n      dup5\n        /* \"--CODEGEN--\":344:354   */\n      mload\n        /* \"--CODEGEN--\":340:361   */\n      and\n        /* \"--CODEGEN--\":389:396   */\n      dup1\n        /* \"--CODEGEN--\":380:387   */\n      dup3\n        /* \"--CODEGEN--\":377:397   */\n      or\n        /* \"--CODEGEN--\":372:375   */\n      dup6\n        /* \"--CODEGEN--\":365:398   */\n      mstore\n        /* \"--CODEGEN--\":3:402   */\n      pop\n      pop\n      pop\n        /* \"bid.sol\":2515:2641  keccak256(abi.encodePacked(\r... */\n      pop\n      pop\n      pop\n      swap1\n      pop\n      add\n      swap2\n      pop\n      pop\n      mload(0x40)\n      dup1\n      swap2\n      sub\n      swap1\n      keccak256\n        /* \"bid.sol\":2498:2641  bytes32 digest = keccak256(abi.encodePacked(\r... */\n      swap1\n      pop\n        /* \"bid.sol\":2689:2731  0x53dE6A872435F5286BEFd0b6fB3bC06742aF8C8F */\n      0x53de6a872435f5286befd0b6fb3bc06742af8c8f\n        /* \"bid.sol\":2659:2731  ecrecover(digest, v, r, s) == 0x53dE6A872435F5286BEFd0b6fB3bC06742aF8C8F */\n      0xffffffffffffffffffffffffffffffffffffffff\n      and\n        /* \"bid.sol\":2659:2685  ecrecover(digest, v, r, s) */\n      0x1\n        /* \"bid.sol\":2669:2675  digest */\n      dup3\n        /* \"bid.sol\":2677:2678  v */\n      dup8\n        /* \"bid.sol\":2680:2681  r */\n      dup8\n        /* \"bid.sol\":2683:2684  s */\n      dup8\n        /* \"bid.sol\":2659:2685  ecrecover(digest, v, r, s) */\n      mload(0x40)\n      0x0\n      dup2\n      mstore\n      0x20\n      add\n      0x40\n      mstore\n      mload(0x40)\n      dup1\n      dup6\n      not(0x0)\n      and\n      not(0x0)\n      and\n      dup2\n      mstore\n      0x20\n      add\n      dup5\n      0xff\n      and\n      0xff\n      and\n      dup2\n      mstore\n      0x20\n      add\n      dup4\n      not(0x0)\n      and\n      not(0x0)\n      and\n      dup2\n      mstore\n      0x20\n      add\n      dup3\n      not(0x0)\n      and\n      not(0x0)\n      and\n      dup2\n      mstore\n      0x20\n      add\n      swap5\n      pop\n      pop\n      pop\n      pop\n      pop\n      0x20\n      mload(0x40)\n      0x20\n      dup2\n      sub\n      swap1\n      dup1\n      dup5\n      sub\n      swap1\n      0x0\n      dup7\n      gas\n      call\n      iszero\n        /* \"--CODEGEN--\":8:17   */\n      dup1\n        /* \"--CODEGEN--\":5:7   */\n      iszero\n      tag_18\n      jumpi\n        /* \"--CODEGEN--\":45:61   */\n      returndatasize\n        /* \"--CODEGEN--\":42:43   */\n      0x0\n        /* \"--CODEGEN--\":39:40   */\n      dup1\n        /* \"--CODEGEN--\":24:62   */\n      returndatacopy\n        /* \"--CODEGEN--\":77:93   */\n      returndatasize\n        /* \"--CODEGEN--\":74:75   */\n      0x0\n        /* \"--CODEGEN--\":67:94   */\n      revert\n        /* \"--CODEGEN--\":5:7   */\n    tag_18:\n        /* \"bid.sol\":2659:2685  ecrecover(digest, v, r, s) */\n      pop\n      pop\n      pop\n      mload(sub(mload(0x40), 0x20))\n        /* \"bid.sol\":2659:2731  ecrecover(digest, v, r, s) == 0x53dE6A872435F5286BEFd0b6fB3bC06742aF8C8F */\n      0xffffffffffffffffffffffffffffffffffffffff\n      and\n      eq\n        /* \"bid.sol\":2652:2731  return ecrecover(digest, v, r, s) == 0x53dE6A872435F5286BEFd0b6fB3bC06742aF8C8F */\n      swap2\n      pop\n        /* \"bid.sol\":2312:2739  function verify(VerifyClaim verifyclaim, uint8 v, bytes32 r, bytes32 s) internal view returns (bool) {\r... */\n      pop\n      swap5\n      swap4\n      pop\n      pop\n      pop\n      pop\n      jump\t// out\n        /* \"bid.sol\":2036:2304  function hash(VerifyClaim verifyclaim) internal pure returns (bytes32) {\r... */\n    tag_14:\n        /* \"bid.sol\":2098:2105  bytes32 */\n      0x0\n        /* \"bid.sol\":920:1011  keccak256(\r... */\n      mload(0x40)\n      dup1\n      dup1\n      0x566572696679436c61696d28616464726573732075736572416464726573732c\n      dup2\n      mstore\n      0x20\n      add\n      0x75696e743235362072616e644e6f2c75696e7432353620616d6f756e74290000\n      dup2\n      mstore\n      pop\n      0x3e\n      add\n      swap1\n      pop\n      mload(0x40)\n      dup1\n      swap2\n      sub\n      swap1\n      keccak256\n        /* \"bid.sol\":2195:2206  verifyclaim */\n      dup3\n        /* \"bid.sol\":2195:2218  verifyclaim.userAddress */\n      0x0\n      add\n      mload\n        /* \"bid.sol\":2233:2244  verifyclaim */\n      dup4\n        /* \"bid.sol\":2233:2251  verifyclaim.randNo */\n      0x20\n      add\n      mload\n        /* \"bid.sol\":2266:2277  verifyclaim */\n      dup5\n        /* \"bid.sol\":2266:2284  verifyclaim.amount */\n      0x40\n      add\n      mload\n        /* \"bid.sol\":2135:2295  abi.encode(\r... */\n      add(0x20, mload(0x40))\n      dup1\n      dup6\n      not(0x0)\n      and\n      not(0x0)\n      and\n      dup2\n      mstore\n      0x20\n      add\n      dup5\n      0xffffffffffffffffffffffffffffffffffffffff\n      and\n      0xffffffffffffffffffffffffffffffffffffffff\n      and\n      dup2\n      mstore\n      0x20\n      add\n      dup4\n      dup2\n      mstore\n      0x20\n      add\n      dup3\n      dup2\n      mstore\n      0x20\n      add\n      swap5\n      pop\n      pop\n      pop\n      pop\n      pop\n      mload(0x40)\n        /* \"--CODEGEN--\":49:53   */\n      0x20\n        /* \"--CODEGEN--\":39:46   */\n      dup2\n        /* \"--CODEGEN--\":30:37   */\n      dup4\n        /* \"--CODEGEN--\":26:47   */\n      sub\n        /* \"--CODEGEN--\":22:54   */\n      sub\n        /* \"--CODEGEN--\":13:20   */\n      dup2\n        /* \"--CODEGEN--\":6:55   */\n      mstore\n        /* \"bid.sol\":2135:2295  abi.encode(\r... */\n      swap1\n      0x40\n      mstore\n        /* \"bid.sol\":2125:2296  keccak256(abi.encode(\r... */\n      mload(0x40)\n      dup1\n      dup3\n      dup1\n      mload\n      swap1\n      0x20\n      add\n      swap1\n      dup1\n      dup4\n      dup4\n        /* \"--CODEGEN--\":36:189   */\n    tag_20:\n        /* \"--CODEGEN--\":66:68   */\n      0x20\n        /* \"--CODEGEN--\":61:64   */\n      dup4\n        /* \"--CODEGEN--\":58:69   */\n      lt\n        /* \"--CODEGEN--\":51:70   */\n      iszero\n        /* \"--CODEGEN--\":36:189   */\n      iszero\n      tag_21\n      jumpi\n        /* \"--CODEGEN--\":182:185   */\n      dup1\n        /* \"--CODEGEN--\":176:186   */\n      mload\n        /* \"--CODEGEN--\":171:174   */\n      dup3\n        /* \"--CODEGEN--\":164:187   */\n      mstore\n        /* \"--CODEGEN--\":98:100   */\n      0x20\n        /* \"--CODEGEN--\":93:96   */\n      dup3\n        /* \"--CODEGEN--\":89:101   */\n      add\n        /* \"--CODEGEN--\":82:101   */\n      swap2\n      pop\n        /* \"--CODEGEN--\":123:125   */\n      0x20\n        /* \"--CODEGEN--\":118:121   */\n      dup2\n        /* \"--CODEGEN--\":114:126   */\n      add\n        /* \"--CODEGEN--\":107:126   */\n      swap1\n      pop\n        /* \"--CODEGEN--\":148:150   */\n      0x20\n        /* \"--CODEGEN--\":143:146   */\n      dup4\n        /* \"--CODEGEN--\":139:151   */\n      sub\n        /* \"--CODEGEN--\":132:151   */\n      swap3\n      pop\n        /* \"--CODEGEN--\":36:189   */\n      jump(tag_20)\n    tag_21:\n        /* \"--CODEGEN--\":274:275   */\n      0x1\n        /* \"--CODEGEN--\":267:270   */\n      dup4\n        /* \"--CODEGEN--\":263:265   */\n      0x20\n        /* \"--CODEGEN--\":259:271   */\n      sub\n        /* \"--CODEGEN--\":254:257   */\n      0x100\n        /* \"--CODEGEN--\":250:272   */\n      exp\n        /* \"--CODEGEN--\":246:276   */\n      sub\n        /* \"--CODEGEN--\":315:319   */\n      dup1\n        /* \"--CODEGEN--\":311:320   */\n      not\n        /* \"--CODEGEN--\":305:308   */\n      dup3\n        /* \"--CODEGEN--\":299:309   */\n      mload\n        /* \"--CODEGEN--\":295:321   */\n      and\n        /* \"--CODEGEN--\":356:360   */\n      dup2\n        /* \"--CODEGEN--\":350:353   */\n      dup5\n        /* \"--CODEGEN--\":344:354   */\n      mload\n        /* \"--CODEGEN--\":340:361   */\n      and\n        /* \"--CODEGEN--\":389:396   */\n      dup1\n        /* \"--CODEGEN--\":380:387   */\n      dup3\n        /* \"--CODEGEN--\":377:397   */\n      or\n        /* \"--CODEGEN--\":372:375   */\n      dup6\n        /* \"--CODEGEN--\":365:398   */\n      mstore\n        /* \"--CODEGEN--\":3:402   */\n      pop\n      pop\n      pop\n        /* \"bid.sol\":2125:2296  keccak256(abi.encode(\r... */\n      pop\n      pop\n      pop\n      swap1\n      pop\n      add\n      swap2\n      pop\n      pop\n      mload(0x40)\n      dup1\n      swap2\n      sub\n      swap1\n      keccak256\n        /* \"bid.sol\":2118:2296  return keccak256(abi.encode(\r... */\n      swap1\n      pop\n        /* \"bid.sol\":2036:2304  function hash(VerifyClaim verifyclaim) internal pure returns (bytes32) {\r... */\n      swap2\n      swap1\n      pop\n      jump\t// out\n        /* \"bid.sol\":62:3168  contract Example {\r... */\n    tag_7:\n      0x60\n      mload(0x40)\n      swap1\n      dup2\n      add\n      0x40\n      mstore\n      dup1\n      and(0xffffffffffffffffffffffffffffffffffffffff, 0x0)\n      dup2\n      mstore\n      0x20\n      add\n      0x0\n      dup2\n      mstore\n      0x20\n      add\n      0x0\n      dup2\n      mstore\n      pop\n      swap1\n      jump\t// out\n\n    auxdata: 0xa165627a7a72305820e11f119b3e0f40aafbc2e43fd2d69a245d604ec2dc6919894b0a1a23e51cd1d20029\n}\n",
				"bytecode": {
					"linkReferences": {},
					"object": "608060405234801561001057600080fd5b506100af6060604051908101604052806040805190810160405280600b81526020017f566572696679436c61696d00000000000000000000000000000000000000000081525081526020016040805190810160405280600181526020017f3100000000000000000000000000000000000000000000000000000000000000815250815260200160618152506100be640100000000026401000000009004565b600081600019169055506102a4565b600060405180807f454950373132446f6d61696e28737472696e67206e616d652c737472696e672081526020017f76657273696f6e2c75696e7432353620636861696e49642900000000000000008152506038019050604051809103902082600001516040518082805190602001908083835b6020831015156101565780518252602082019150602081019050602083039250610131565b6001836020036101000a038019825116818451168082178552505050505050905001915050604051809103902083602001516040518082805190602001908083835b6020831015156101bd5780518252602082019150602081019050602083039250610198565b6001836020036101000a03801982511681845116808217855250505050505090500191505060405180910390208460400151604051602001808560001916600019168152602001846000191660001916815260200183600019166000191681526020018281526020019450505050506040516020818303038152906040526040518082805190602001908083835b602083101515610270578051825260208201915060208101905060208303925061024b565b6001836020036101000a03801982511681845116808217855250505050505090500191505060405180910390209050919050565b610480806102b36000396000f300608060405260043610610041576000357c0100000000000000000000000000000000000000000000000000000000900463ffffffff168063110b1af614610046575b600080fd5b34801561005257600080fd5b506100c4600480360381019080803573ffffffffffffffffffffffffffffffffffffffff1690602001909291908035906020019092919080359060200190929190803560ff169060200190929190803560001916906020019092919080356000191690602001909291905050506100de565b604051808215151515815260200191505060405180910390f35b60006100e861041c565b6060604051908101604052808973ffffffffffffffffffffffffffffffffffffffff1681526020018881526020018781525090506101288186868661013f565b151561013057fe5b60019150509695505050505050565b60008060005461014e876102de565b60405160200180807f190100000000000000000000000000000000000000000000000000000000000081525060020183600019166000191681526020018260001916600019168152602001925050506040516020818303038152906040526040518082805190602001908083835b6020831015156101e157805182526020820191506020810190506020830392506101bc565b6001836020036101000a038019825116818451168082178552505050505050905001915050604051809103902090507353de6a872435f5286befd0b6fb3bc06742af8c8f73ffffffffffffffffffffffffffffffffffffffff16600182878787604051600081526020016040526040518085600019166000191681526020018460ff1660ff1681526020018360001916600019168152602001826000191660001916815260200194505050505060206040516020810390808403906000865af11580156102b2573d6000803e3d6000fd5b5050506020604051035173ffffffffffffffffffffffffffffffffffffffff1614915050949350505050565b600060405180807f566572696679436c61696d28616464726573732075736572416464726573732c81526020017f75696e743235362072616e644e6f2c75696e7432353620616d6f756e74290000815250603e01905060405180910390208260000151836020015184604001516040516020018085600019166000191681526020018473ffffffffffffffffffffffffffffffffffffffff1673ffffffffffffffffffffffffffffffffffffffff1681526020018381526020018281526020019450505050506040516020818303038152906040526040518082805190602001908083835b6020831015156103e857805182526020820191506020810190506020830392506103c3565b6001836020036101000a03801982511681845116808217855250505050505090500191505060405180910390209050919050565b606060405190810160405280600073ffffffffffffffffffffffffffffffffffffffff168152602001600081526020016000815250905600a165627a7a72305820e11f119b3e0f40aafbc2e43fd2d69a245d604ec2dc6919894b0a1a23e51cd1d20029",
					"opcodes": "PUSH1 0x80 PUSH1 0x40 MSTORE CALLVALUE DUP1 ISZERO PUSH2 0x10 JUMPI PUSH1 0x0 DUP1 REVERT JUMPDEST POP PUSH2 0xAF PUSH1 0x60 PUSH1 0x40 MLOAD SWAP1 DUP2 ADD PUSH1 0x40 MSTORE DUP1 PUSH1 0x40 DUP1 MLOAD SWAP1 DUP2 ADD PUSH1 0x40 MSTORE DUP1 PUSH1 0xB DUP2 MSTORE PUSH1 0x20 ADD PUSH32 0x566572696679436C61696D000000000000000000000000000000000000000000 DUP2 MSTORE POP DUP2 MSTORE PUSH1 0x20 ADD PUSH1 0x40 DUP1 MLOAD SWAP1 DUP2 ADD PUSH1 0x40 MSTORE DUP1 PUSH1 0x1 DUP2 MSTORE PUSH1 0x20 ADD PUSH32 0x3100000000000000000000000000000000000000000000000000000000000000 DUP2 MSTORE POP DUP2 MSTORE PUSH1 0x20 ADD PUSH1 0x61 DUP2 MSTORE POP PUSH2 0xBE PUSH5 0x100000000 MUL PUSH5 0x100000000 SWAP1 DIV JUMP JUMPDEST PUSH1 0x0 DUP2 PUSH1 0x0 NOT AND SWAP1 SSTORE POP PUSH2 0x2A4 JUMP JUMPDEST PUSH1 0x0 PUSH1 0x40 MLOAD DUP1 DUP1 PUSH32 0x454950373132446F6D61696E28737472696E67206E616D652C737472696E6720 DUP2 MSTORE PUSH1 0x20 ADD PUSH32 0x76657273696F6E2C75696E7432353620636861696E4964290000000000000000 DUP2 MSTORE POP PUSH1 0x38 ADD SWAP1 POP PUSH1 0x40 MLOAD DUP1 SWAP2 SUB SWAP1 KECCAK256 DUP3 PUSH1 0x0 ADD MLOAD PUSH1 0x40 MLOAD DUP1 DUP3 DUP1 MLOAD SWAP1 PUSH1 0x20 ADD SWAP1 DUP1 DUP4 DUP4 JUMPDEST PUSH1 0x20 DUP4 LT ISZERO ISZERO PUSH2 0x156 JUMPI DUP1 MLOAD DUP3 MSTORE PUSH1 0x20 DUP3 ADD SWAP2 POP PUSH1 0x20 DUP2 ADD SWAP1 POP PUSH1 0x20 DUP4 SUB SWAP3 POP PUSH2 0x131 JUMP JUMPDEST PUSH1 0x1 DUP4 PUSH1 0x20 SUB PUSH2 0x100 EXP SUB DUP1 NOT DUP3 MLOAD AND DUP2 DUP5 MLOAD AND DUP1 DUP3 OR DUP6 MSTORE POP POP POP POP POP POP SWAP1 POP ADD SWAP2 POP POP PUSH1 0x40 MLOAD DUP1 SWAP2 SUB SWAP1 KECCAK256 DUP4 PUSH1 0x20 ADD MLOAD PUSH1 0x40 MLOAD DUP1 DUP3 DUP1 MLOAD SWAP1 PUSH1 0x20 ADD SWAP1 DUP1 DUP4 DUP4 JUMPDEST PUSH1 0x20 DUP4 LT ISZERO ISZERO PUSH2 0x1BD JUMPI DUP1 MLOAD DUP3 MSTORE PUSH1 0x20 DUP3 ADD SWAP2 POP PUSH1 0x20 DUP2 ADD SWAP1 POP PUSH1 0x20 DUP4 SUB SWAP3 POP PUSH2 0x198 JUMP JUMPDEST PUSH1 0x1 DUP4 PUSH1 0x20 SUB PUSH2 0x100 EXP SUB DUP1 NOT DUP3 MLOAD AND DUP2 DUP5 MLOAD AND DUP1 DUP3 OR DUP6 MSTORE POP POP POP POP POP POP SWAP1 POP ADD SWAP2 POP POP PUSH1 0x40 MLOAD DUP1 SWAP2 SUB SWAP1 KECCAK256 DUP5 PUSH1 0x40 ADD MLOAD PUSH1 0x40 MLOAD PUSH1 0x20 ADD DUP1 DUP6 PUSH1 0x0 NOT AND PUSH1 0x0 NOT AND DUP2 MSTORE PUSH1 0x20 ADD DUP5 PUSH1 0x0 NOT AND PUSH1 0x0 NOT AND DUP2 MSTORE PUSH1 0x20 ADD DUP4 PUSH1 0x0 NOT AND PUSH1 0x0 NOT AND DUP2 MSTORE PUSH1 0x20 ADD DUP3 DUP2 MSTORE PUSH1 0x20 ADD SWAP5 POP POP POP POP POP PUSH1 0x40 MLOAD PUSH1 0x20 DUP2 DUP4 SUB SUB DUP2 MSTORE SWAP1 PUSH1 0x40 MSTORE PUSH1 0x40 MLOAD DUP1 DUP3 DUP1 MLOAD SWAP1 PUSH1 0x20 ADD SWAP1 DUP1 DUP4 DUP4 JUMPDEST PUSH1 0x20 DUP4 LT ISZERO ISZERO PUSH2 0x270 JUMPI DUP1 MLOAD DUP3 MSTORE PUSH1 0x20 DUP3 ADD SWAP2 POP PUSH1 0x20 DUP2 ADD SWAP1 POP PUSH1 0x20 DUP4 SUB SWAP3 POP PUSH2 0x24B JUMP JUMPDEST PUSH1 0x1 DUP4 PUSH1 0x20 SUB PUSH2 0x100 EXP SUB DUP1 NOT DUP3 MLOAD AND DUP2 DUP5 MLOAD AND DUP1 DUP3 OR DUP6 MSTORE POP POP POP POP POP POP SWAP1 POP ADD SWAP2 POP POP PUSH1 0x40 MLOAD DUP1 SWAP2 SUB SWAP1 KECCAK256 SWAP1 POP SWAP2 SWAP1 POP JUMP JUMPDEST PUSH2 0x480 DUP1 PUSH2 0x2B3 PUSH1 0x0 CODECOPY PUSH1 0x0 RETURN STOP PUSH1 0x80 PUSH1 0x40 MSTORE PUSH1 0x4 CALLDATASIZE LT PUSH2 0x41 JUMPI PUSH1 0x0 CALLDATALOAD PUSH29 0x100000000000000000000000000000000000000000000000000000000 SWAP1 DIV PUSH4 0xFFFFFFFF AND DUP1 PUSH4 0x110B1AF6 EQ PUSH2 0x46 JUMPI JUMPDEST PUSH1 0x0 DUP1 REVERT JUMPDEST CALLVALUE DUP1 ISZERO PUSH2 0x52 JUMPI PUSH1 0x0 DUP1 REVERT JUMPDEST POP PUSH2 0xC4 PUSH1 0x4 DUP1 CALLDATASIZE SUB DUP2 ADD SWAP1 DUP1 DUP1 CALLDATALOAD PUSH20 0xFFFFFFFFFFFFFFFFFFFFFFFFFFFFFFFFFFFFFFFF AND SWAP1 PUSH1 0x20 ADD SWAP1 SWAP3 SWAP2 SWAP1 DUP1 CALLDATALOAD SWAP1 PUSH1 0x20 ADD SWAP1 SWAP3 SWAP2 SWAP1 DUP1 CALLDATALOAD SWAP1 PUSH1 0x20 ADD SWAP1 SWAP3 SWAP2 SWAP1 DUP1 CALLDATALOAD PUSH1 0xFF AND SWAP1 PUSH1 0x20 ADD SWAP1 SWAP3 SWAP2 SWAP1 DUP1 CALLDATALOAD PUSH1 0x0 NOT AND SWAP1 PUSH1 0x20 ADD SWAP1 SWAP3 SWAP2 SWAP1 DUP1 CALLDATALOAD PUSH1 0x0 NOT AND SWAP1 PUSH1 0x20 ADD SWAP1 SWAP3 SWAP2 SWAP1 POP POP POP PUSH2 0xDE JUMP JUMPDEST PUSH1 0x40 MLOAD DUP1 DUP3 ISZERO ISZERO ISZERO ISZERO DUP2 MSTORE PUSH1 0x20 ADD SWAP2 POP POP PUSH1 0x40 MLOAD DUP1 SWAP2 SUB SWAP1 RETURN JUMPDEST PUSH1 0x0 PUSH2 0xE8 PUSH2 0x41C JUMP JUMPDEST PUSH1 0x60 PUSH1 0x40 MLOAD SWAP1 DUP2 ADD PUSH1 0x40 MSTORE DUP1 DUP10 PUSH20 0xFFFFFFFFFFFFFFFFFFFFFFFFFFFFFFFFFFFFFFFF AND DUP2 MSTORE PUSH1 0x20 ADD DUP9 DUP2 MSTORE PUSH1 0x20 ADD DUP8 DUP2 MSTORE POP SWAP1 POP PUSH2 0x128 DUP2 DUP7 DUP7 DUP7 PUSH2 0x13F JUMP JUMPDEST ISZERO ISZERO PUSH2 0x130 JUMPI INVALID JUMPDEST PUSH1 0x1 SWAP2 POP POP SWAP7 SWAP6 POP POP POP POP POP POP JUMP JUMPDEST PUSH1 0x0 DUP1 PUSH1 0x0 SLOAD PUSH2 0x14E DUP8 PUSH2 0x2DE JUMP JUMPDEST PUSH1 0x40 MLOAD PUSH1 0x20 ADD DUP1 DUP1 PUSH32 0x1901000000000000000000000000000000000000000000000000000000000000 DUP2 MSTORE POP PUSH1 0x2 ADD DUP4 PUSH1 0x0 NOT AND PUSH1 0x0 NOT AND DUP2 MSTORE PUSH1 0x20 ADD DUP3 PUSH1 0x0 NOT AND PUSH1 0x0 NOT AND DUP2 MSTORE PUSH1 0x20 ADD SWAP3 POP POP POP PUSH1 0x40 MLOAD PUSH1 0x20 DUP2 DUP4 SUB SUB DUP2 MSTORE SWAP1 PUSH1 0x40 MSTORE PUSH1 0x40 MLOAD DUP1 DUP3 DUP1 MLOAD SWAP1 PUSH1 0x20 ADD SWAP1 DUP1 DUP4 DUP4 JUMPDEST PUSH1 0x20 DUP4 LT ISZERO ISZERO PUSH2 0x1E1 JUMPI DUP1 MLOAD DUP3 MSTORE PUSH1 0x20 DUP3 ADD SWAP2 POP PUSH1 0x20 DUP2 ADD SWAP1 POP PUSH1 0x20 DUP4 SUB SWAP3 POP PUSH2 0x1BC JUMP JUMPDEST PUSH1 0x1 DUP4 PUSH1 0x20 SUB PUSH2 0x100 EXP SUB DUP1 NOT DUP3 MLOAD AND DUP2 DUP5 MLOAD AND DUP1 DUP3 OR DUP6 MSTORE POP POP POP POP POP POP SWAP1 POP ADD SWAP2 POP POP PUSH1 0x40 MLOAD DUP1 SWAP2 SUB SWAP1 KECCAK256 SWAP1 POP PUSH20 0x53DE6A872435F5286BEFD0B6FB3BC06742AF8C8F PUSH20 0xFFFFFFFFFFFFFFFFFFFFFFFFFFFFFFFFFFFFFFFF AND PUSH1 0x1 DUP3 DUP8 DUP8 DUP8 PUSH1 0x40 MLOAD PUSH1 0x0 DUP2 MSTORE PUSH1 0x20 ADD PUSH1 0x40 MSTORE PUSH1 0x40 MLOAD DUP1 DUP6 PUSH1 0x0 NOT AND PUSH1 0x0 NOT AND DUP2 MSTORE PUSH1 0x20 ADD DUP5 PUSH1 0xFF AND PUSH1 0xFF AND DUP2 MSTORE PUSH1 0x20 ADD DUP4 PUSH1 0x0 NOT AND PUSH1 0x0 NOT AND DUP2 MSTORE PUSH1 0x20 ADD DUP3 PUSH1 0x0 NOT AND PUSH1 0x0 NOT AND DUP2 MSTORE PUSH1 0x20 ADD SWAP5 POP POP POP POP POP PUSH1 0x20 PUSH1 0x40 MLOAD PUSH1 0x20 DUP2 SUB SWAP1 DUP1 DUP5 SUB SWAP1 PUSH1 0x0 DUP7 GAS CALL ISZERO DUP1 ISZERO PUSH2 0x2B2 JUMPI RETURNDATASIZE PUSH1 0x0 DUP1 RETURNDATACOPY RETURNDATASIZE PUSH1 0x0 REVERT JUMPDEST POP POP POP PUSH1 0x20 PUSH1 0x40 MLOAD SUB MLOAD PUSH20 0xFFFFFFFFFFFFFFFFFFFFFFFFFFFFFFFFFFFFFFFF AND EQ SWAP2 POP POP SWAP5 SWAP4 POP POP POP POP JUMP JUMPDEST PUSH1 0x0 PUSH1 0x40 MLOAD DUP1 DUP1 PUSH32 0x566572696679436C61696D28616464726573732075736572416464726573732C DUP2 MSTORE PUSH1 0x20 ADD PUSH32 0x75696E743235362072616E644E6F2C75696E7432353620616D6F756E74290000 DUP2 MSTORE POP PUSH1 0x3E ADD SWAP1 POP PUSH1 0x40 MLOAD DUP1 SWAP2 SUB SWAP1 KECCAK256 DUP3 PUSH1 0x0 ADD MLOAD DUP4 PUSH1 0x20 ADD MLOAD DUP5 PUSH1 0x40 ADD MLOAD PUSH1 0x40 MLOAD PUSH1 0x20 ADD DUP1 DUP6 PUSH1 0x0 NOT AND PUSH1 0x0 NOT AND DUP2 MSTORE PUSH1 0x20 ADD DUP5 PUSH20 0xFFFFFFFFFFFFFFFFFFFFFFFFFFFFFFFFFFFFFFFF AND PUSH20 0xFFFFFFFFFFFFFFFFFFFFFFFFFFFFFFFFFFFFFFFF AND DUP2 MSTORE PUSH1 0x20 ADD DUP4 DUP2 MSTORE PUSH1 0x20 ADD DUP3 DUP2 MSTORE PUSH1 0x20 ADD SWAP5 POP POP POP POP POP PUSH1 0x40 MLOAD PUSH1 0x20 DUP2 DUP4 SUB SUB DUP2 MSTORE SWAP1 PUSH1 0x40 MSTORE PUSH1 0x40 MLOAD DUP1 DUP3 DUP1 MLOAD SWAP1 PUSH1 0x20 ADD SWAP1 DUP1 DUP4 DUP4 JUMPDEST PUSH1 0x20 DUP4 LT ISZERO ISZERO PUSH2 0x3E8 JUMPI DUP1 MLOAD DUP3 MSTORE PUSH1 0x20 DUP3 ADD SWAP2 POP PUSH1 0x20 DUP2 ADD SWAP1 POP PUSH1 0x20 DUP4 SUB SWAP3 POP PUSH2 0x3C3 JUMP JUMPDEST PUSH1 0x1 DUP4 PUSH1 0x20 SUB PUSH2 0x100 EXP SUB DUP1 NOT DUP3 MLOAD AND DUP2 DUP5 MLOAD AND DUP1 DUP3 OR DUP6 MSTORE POP POP POP POP POP POP SWAP1 POP ADD SWAP2 POP POP PUSH1 0x40 MLOAD DUP1 SWAP2 SUB SWAP1 KECCAK256 SWAP1 POP SWAP2 SWAP1 POP JUMP JUMPDEST PUSH1 0x60 PUSH1 0x40 MLOAD SWAP1 DUP2 ADD PUSH1 0x40 MSTORE DUP1 PUSH1 0x0 PUSH20 0xFFFFFFFFFFFFFFFFFFFFFFFFFFFFFFFFFFFFFFFF AND DUP2 MSTORE PUSH1 0x20 ADD PUSH1 0x0 DUP2 MSTORE PUSH1 0x20 ADD PUSH1 0x0 DUP2 MSTORE POP SWAP1 JUMP STOP LOG1 PUSH6 0x627A7A723058 KECCAK256 0xe1 0x1f GT SWAP12 RETURNDATACOPY 0xf BLOCKHASH 0xaa CREATE2 0xc2 0xe4 0x3f 0xd2 0xd6 SWAP11 0x24 0x5d PUSH1 0x4E 0xc2 0xdc PUSH10 0x19894B0A1A23E51CD1D2 STOP 0x29 "
				},
				"gasEstimates": {
					"creation": {
						"codeDepositCost": "230400",
						"executionCost": "infinite",
						"totalCost": "infinite"
					},
					"external": {
						"test(address,uint256,uint256,uint8,bytes32,bytes32)": "infinite"
					},
					"internal": {
						"hash(struct Example.EIP712Domain memory)": "infinite",
						"hash(struct Example.Mail memory)": "infinite",
						"hash(struct Example.Person memory)": "infinite",
						"hash(struct Example.VerifyClaim memory)": "infinite",
						"verify(struct Example.VerifyClaim memory,uint8,bytes32,bytes32)": "infinite"
					}
				},
				"methodIdentifiers": {
					"test(address,uint256,uint256,uint8,bytes32,bytes32)": "110b1af6"
				}
			},
			"userdoc": {
				"methods": {}
			}
		}
	}
}