{
	"bid.sol": {
		"Example": {
			"abi": [
				{
					"inputs": [],
					"stateMutability": "nonpayable",
					"type": "constructor"
				},
				{
					"inputs": [
						{
							"internalType": "address",
							"name": "_userAddress",
							"type": "address"
						},
						{
							"internalType": "uint256",
							"name": "_randNO",
							"type": "uint256"
						},
						{
							"internalType": "uint256",
							"name": "_amount",
							"type": "uint256"
						},
						{
							"internalType": "uint8",
							"name": "_v",
							"type": "uint8"
						},
						{
							"internalType": "bytes32",
							"name": "_r",
							"type": "bytes32"
						},
						{
							"internalType": "bytes32",
							"name": "_s",
							"type": "bytes32"
						}
					],
					"name": "test",
					"outputs": [
						{
							"internalType": "bool",
							"name": "",
							"type": "bool"
						}
					],
					"stateMutability": "view",
					"type": "function"
				}
			],
			"devdoc": {
				"kind": "dev",
				"methods": {},
				"version": 1
			},
			"evm": {
				"assembly": "    /* \"bid.sol\":59:3194  contract Example {... */\n  mstore(0x40, 0x80)\n    /* \"bid.sol\":1050:1222  constructor ()  {... */\n  callvalue\n  dup1\n  iszero\n  tag_1\n  jumpi\n  0x00\n  dup1\n  revert\ntag_1:\n  pop\n    /* \"bid.sol\":1096:1214  hash(EIP712Domain({... */\n  tag_4\n    /* \"bid.sol\":1101:1213  EIP712Domain({... */\n  mload(0x40)\n  dup1\n  0x60\n  add\n  0x40\n  mstore\n  dup1\n  mload(0x40)\n  dup1\n  0x40\n  add\n  0x40\n  mstore\n  dup1\n  0x0b\n  dup2\n  mstore\n  0x20\n  add\n  0x566572696679436c61696d000000000000000000000000000000000000000000\n  dup2\n  mstore\n  pop\n  dup2\n  mstore\n  0x20\n  add\n  mload(0x40)\n  dup1\n  0x40\n  add\n  0x40\n  mstore\n  dup1\n  0x01\n  dup2\n  mstore\n  0x20\n  add\n  0x3100000000000000000000000000000000000000000000000000000000000000\n  dup2\n  mstore\n  pop\n  dup2\n  mstore\n  0x20\n  add\n    /* \"bid.sol\":1199:1201  97 */\n  0x61\n    /* \"bid.sol\":1101:1213  EIP712Domain({... */\n  dup2\n  mstore\n  pop\n    /* \"bid.sol\":1096:1100  hash */\n  shl(0x20, tag_5)\n    /* \"bid.sol\":1096:1214  hash(EIP712Domain({... */\n  0x20\n  shr\n  jump\t// in\ntag_4:\n    /* \"bid.sol\":1077:1093  DOMAIN_SEPARATOR */\n  0x00\n    /* \"bid.sol\":1077:1214  DOMAIN_SEPARATOR = hash(EIP712Domain({... */\n  dup2\n  swap1\n  sstore\n  pop\n    /* \"bid.sol\":59:3194  contract Example {... */\n  jump(tag_6)\n    /* \"bid.sol\":1728:2040  function hash(EIP712Domain memory eip712Domain) internal pure returns (bytes32) {... */\ntag_5:\n    /* \"bid.sol\":1799:1806  bytes32 */\n  0x00\n    /* \"bid.sol\":783:868  keccak256(... */\n  0xc2f8787176b8ac6bf7215b4adcc1e069bf4ab82d9ab1df05a57a91d425935b6e\n    /* \"bid.sol\":1913:1925  eip712Domain */\n  dup3\n    /* \"bid.sol\":1913:1930  eip712Domain.name */\n  0x00\n  add\n  mload\n    /* \"bid.sol\":1897:1932  keccak256(bytes(eip712Domain.name)) */\n  dup1\n  mload\n  swap1\n  0x20\n  add\n  keccak256\n    /* \"bid.sol\":1963:1975  eip712Domain */\n  dup4\n    /* \"bid.sol\":1963:1983  eip712Domain.version */\n  0x20\n  add\n  mload\n    /* \"bid.sol\":1947:1985  keccak256(bytes(eip712Domain.version)) */\n  dup1\n  mload\n  swap1\n  0x20\n  add\n  keccak256\n    /* \"bid.sol\":2000:2012  eip712Domain */\n  dup5\n    /* \"bid.sol\":2000:2020  eip712Domain.chainId */\n  0x40\n  add\n  mload\n    /* \"bid.sol\":1836:2031  abi.encode(... */\n  add(0x20, mload(0x40))\n  tag_8\n  swap5\n  swap4\n  swap3\n  swap2\n  swap1\n  tag_9\n  jump\t// in\ntag_8:\n  mload(0x40)\n  0x20\n  dup2\n  dup4\n  sub\n  sub\n  dup2\n  mstore\n  swap1\n  0x40\n  mstore\n    /* \"bid.sol\":1826:2032  keccak256(abi.encode(... */\n  dup1\n  mload\n  swap1\n  0x20\n  add\n  keccak256\n    /* \"bid.sol\":1819:2032  return keccak256(abi.encode(... */\n  swap1\n  pop\n    /* \"bid.sol\":1728:2040  function hash(EIP712Domain memory eip712Domain) internal pure returns (bytes32) {... */\n  swap2\n  swap1\n  pop\n  jump\t// out\n    /* \"#utility.yul\":7:84   */\ntag_10:\n    /* \"#utility.yul\":44:51   */\n  0x00\n    /* \"#utility.yul\":73:78   */\n  dup2\n    /* \"#utility.yul\":62:78   */\n  swap1\n  pop\n    /* \"#utility.yul\":7:84   */\n  swap2\n  swap1\n  pop\n  jump\t// out\n    /* \"#utility.yul\":90:208   */\ntag_11:\n    /* \"#utility.yul\":177:201   */\n  tag_17\n    /* \"#utility.yul\":195:200   */\n  dup2\n    /* \"#utility.yul\":177:201   */\n  tag_10\n  jump\t// in\ntag_17:\n    /* \"#utility.yul\":172:175   */\n  dup3\n    /* \"#utility.yul\":165:202   */\n  mstore\n    /* \"#utility.yul\":90:208   */\n  pop\n  pop\n  jump\t// out\n    /* \"#utility.yul\":214:291   */\ntag_12:\n    /* \"#utility.yul\":251:258   */\n  0x00\n    /* \"#utility.yul\":280:285   */\n  dup2\n    /* \"#utility.yul\":269:285   */\n  swap1\n  pop\n    /* \"#utility.yul\":214:291   */\n  swap2\n  swap1\n  pop\n  jump\t// out\n    /* \"#utility.yul\":297:415   */\ntag_13:\n    /* \"#utility.yul\":384:408   */\n  tag_20\n    /* \"#utility.yul\":402:407   */\n  dup2\n    /* \"#utility.yul\":384:408   */\n  tag_12\n  jump\t// in\ntag_20:\n    /* \"#utility.yul\":379:382   */\n  dup3\n    /* \"#utility.yul\":372:409   */\n  mstore\n    /* \"#utility.yul\":297:415   */\n  pop\n  pop\n  jump\t// out\n    /* \"#utility.yul\":421:974   */\ntag_9:\n    /* \"#utility.yul\":598:602   */\n  0x00\n    /* \"#utility.yul\":636:639   */\n  0x80\n    /* \"#utility.yul\":625:634   */\n  dup3\n    /* \"#utility.yul\":621:640   */\n  add\n    /* \"#utility.yul\":613:640   */\n  swap1\n  pop\n    /* \"#utility.yul\":650:721   */\n  tag_22\n    /* \"#utility.yul\":718:719   */\n  0x00\n    /* \"#utility.yul\":707:716   */\n  dup4\n    /* \"#utility.yul\":703:720   */\n  add\n    /* \"#utility.yul\":694:700   */\n  dup8\n    /* \"#utility.yul\":650:721   */\n  tag_11\n  jump\t// in\ntag_22:\n    /* \"#utility.yul\":731:803   */\n  tag_23\n    /* \"#utility.yul\":799:801   */\n  0x20\n    /* \"#utility.yul\":788:797   */\n  dup4\n    /* \"#utility.yul\":784:802   */\n  add\n    /* \"#utility.yul\":775:781   */\n  dup7\n    /* \"#utility.yul\":731:803   */\n  tag_11\n  jump\t// in\ntag_23:\n    /* \"#utility.yul\":813:885   */\n  tag_24\n    /* \"#utility.yul\":881:883   */\n  0x40\n    /* \"#utility.yul\":870:879   */\n  dup4\n    /* \"#utility.yul\":866:884   */\n  add\n    /* \"#utility.yul\":857:863   */\n  dup6\n    /* \"#utility.yul\":813:885   */\n  tag_11\n  jump\t// in\ntag_24:\n    /* \"#utility.yul\":895:967   */\n  tag_25\n    /* \"#utility.yul\":963:965   */\n  0x60\n    /* \"#utility.yul\":952:961   */\n  dup4\n    /* \"#utility.yul\":948:966   */\n  add\n    /* \"#utility.yul\":939:945   */\n  dup5\n    /* \"#utility.yul\":895:967   */\n  tag_13\n  jump\t// in\ntag_25:\n    /* \"#utility.yul\":421:974   */\n  swap6\n  swap5\n  pop\n  pop\n  pop\n  pop\n  pop\n  jump\t// out\n    /* \"bid.sol\":59:3194  contract Example {... */\ntag_6:\n  dataSize(sub_0)\n  dup1\n  dataOffset(sub_0)\n  0x00\n  codecopy\n  0x00\n  return\nstop\n\nsub_0: assembly {\n        /* \"bid.sol\":59:3194  contract Example {... */\n      mstore(0x40, 0x80)\n      callvalue\n      dup1\n      iszero\n      tag_1\n      jumpi\n      0x00\n      dup1\n      revert\n    tag_1:\n      pop\n      jumpi(tag_2, lt(calldatasize, 0x04))\n      shr(0xe0, calldataload(0x00))\n      dup1\n      0x110b1af6\n      eq\n      tag_3\n      jumpi\n    tag_2:\n      0x00\n      dup1\n      revert\n        /* \"bid.sol\":2777:3191  function test(address _userAddress, uint256 _randNO, uint256 _amount, uint8 _v, bytes32 _r, bytes32 _s) public view returns (bool) {... */\n    tag_3:\n      tag_4\n      0x04\n      dup1\n      calldatasize\n      sub\n      dup2\n      add\n      swap1\n      tag_5\n      swap2\n      swap1\n      tag_6\n      jump\t// in\n    tag_5:\n      tag_7\n      jump\t// in\n    tag_4:\n      mload(0x40)\n      tag_8\n      swap2\n      swap1\n      tag_9\n      jump\t// in\n    tag_8:\n      mload(0x40)\n      dup1\n      swap2\n      sub\n      swap1\n      return\n    tag_7:\n        /* \"bid.sol\":2902:2906  bool */\n      0x00\n        /* \"bid.sol\":2954:2984  VerifyClaim memory verifyclaim */\n      dup1\n        /* \"bid.sol\":2987:3111  VerifyClaim({... */\n      mload(0x40)\n      dup1\n      0x60\n      add\n      0x40\n      mstore\n      dup1\n        /* \"bid.sol\":3027:3039  _userAddress */\n      dup10\n        /* \"bid.sol\":2987:3111  VerifyClaim({... */\n      0xffffffffffffffffffffffffffffffffffffffff\n      and\n      dup2\n      mstore\n      0x20\n      add\n        /* \"bid.sol\":3062:3069  _randNO */\n      dup9\n        /* \"bid.sol\":2987:3111  VerifyClaim({... */\n      dup2\n      mstore\n      0x20\n      add\n        /* \"bid.sol\":3092:3099  _amount */\n      dup8\n        /* \"bid.sol\":2987:3111  VerifyClaim({... */\n      dup2\n      mstore\n      pop\n        /* \"bid.sol\":2954:3111  VerifyClaim memory verifyclaim = VerifyClaim({... */\n      swap1\n      pop\n        /* \"bid.sol\":3129:3160  verify(verifyclaim, _v, _r, _s) */\n      tag_11\n        /* \"bid.sol\":3136:3147  verifyclaim */\n      dup2\n        /* \"bid.sol\":3149:3151  _v */\n      dup7\n        /* \"bid.sol\":3153:3155  _r */\n      dup7\n        /* \"bid.sol\":3157:3159  _s */\n      dup7\n        /* \"bid.sol\":3129:3135  verify */\n      tag_12\n        /* \"bid.sol\":3129:3160  verify(verifyclaim, _v, _r, _s) */\n      jump\t// in\n    tag_11:\n        /* \"bid.sol\":3122:3161  assert(verify(verifyclaim, _v, _r, _s)) */\n      tag_13\n      jumpi\n      tag_14\n      tag_15\n      jump\t// in\n    tag_14:\n    tag_13:\n        /* \"bid.sol\":3179:3183  true */\n      0x01\n        /* \"bid.sol\":3172:3183  return true */\n      swap2\n      pop\n      pop\n        /* \"bid.sol\":2777:3191  function test(address _userAddress, uint256 _randNO, uint256 _amount, uint8 _v, bytes32 _r, bytes32 _s) public view returns (bool) {... */\n      swap7\n      swap6\n      pop\n      pop\n      pop\n      pop\n      pop\n      pop\n      jump\t// out\n        /* \"bid.sol\":2331:2765  function verify(VerifyClaim memory verifyclaim, uint8 v, bytes32 r, bytes32 s) internal view returns (bool) {... */\n    tag_12:\n        /* \"bid.sol\":2433:2437  bool */\n      0x00\n        /* \"bid.sol\":2524:2538  bytes32 digest */\n      dup1\n        /* \"bid.sol\":2607:2623  DOMAIN_SEPARATOR */\n      sload(0x00)\n        /* \"bid.sol\":2638:2655  hash(verifyclaim) */\n      tag_17\n        /* \"bid.sol\":2643:2654  verifyclaim */\n      dup8\n        /* \"bid.sol\":2638:2642  hash */\n      tag_18\n        /* \"bid.sol\":2638:2655  hash(verifyclaim) */\n      jump\t// in\n    tag_17:\n        /* \"bid.sol\":2551:2666  abi.encodePacked(... */\n      add(0x20, mload(0x40))\n      tag_19\n      swap3\n      swap2\n      swap1\n      tag_20\n      jump\t// in\n    tag_19:\n      mload(0x40)\n      0x20\n      dup2\n      dup4\n      sub\n      sub\n      dup2\n      mstore\n      swap1\n      0x40\n      mstore\n        /* \"bid.sol\":2541:2667  keccak256(abi.encodePacked(... */\n      dup1\n      mload\n      swap1\n      0x20\n      add\n      keccak256\n        /* \"bid.sol\":2524:2667  bytes32 digest = keccak256(abi.encodePacked(... */\n      swap1\n      pop\n        /* \"bid.sol\":2715:2757  0x53dE6A872435F5286BEFd0b6fB3bC06742aF8C8F */\n      0x53de6a872435f5286befd0b6fb3bc06742af8c8f\n        /* \"bid.sol\":2685:2757  ecrecover(digest, v, r, s) == 0x53dE6A872435F5286BEFd0b6fB3bC06742aF8C8F */\n      0xffffffffffffffffffffffffffffffffffffffff\n      and\n        /* \"bid.sol\":2685:2711  ecrecover(digest, v, r, s) */\n      0x01\n        /* \"bid.sol\":2695:2701  digest */\n      dup3\n        /* \"bid.sol\":2703:2704  v */\n      dup8\n        /* \"bid.sol\":2706:2707  r */\n      dup8\n        /* \"bid.sol\":2709:2710  s */\n      dup8\n        /* \"bid.sol\":2685:2711  ecrecover(digest, v, r, s) */\n      mload(0x40)\n      0x00\n      dup2\n      mstore\n      0x20\n      add\n      0x40\n      mstore\n      mload(0x40)\n      tag_21\n      swap5\n      swap4\n      swap3\n      swap2\n      swap1\n      tag_22\n      jump\t// in\n    tag_21:\n      0x20\n      mload(0x40)\n      0x20\n      dup2\n      sub\n      swap1\n      dup1\n      dup5\n      sub\n      swap1\n      dup6\n      gas\n      staticcall\n      iszero\n      dup1\n      iszero\n      tag_24\n      jumpi\n      returndatasize\n      0x00\n      dup1\n      returndatacopy\n      revert(0x00, returndatasize)\n    tag_24:\n      pop\n      pop\n      pop\n      mload(sub(mload(0x40), 0x20))\n        /* \"bid.sol\":2685:2757  ecrecover(digest, v, r, s) == 0x53dE6A872435F5286BEFd0b6fB3bC06742aF8C8F */\n      0xffffffffffffffffffffffffffffffffffffffff\n      and\n      eq\n        /* \"bid.sol\":2678:2757  return ecrecover(digest, v, r, s) == 0x53dE6A872435F5286BEFd0b6fB3bC06742aF8C8F */\n      swap2\n      pop\n      pop\n        /* \"bid.sol\":2331:2765  function verify(VerifyClaim memory verifyclaim, uint8 v, bytes32 r, bytes32 s) internal view returns (bool) {... */\n      swap5\n      swap4\n      pop\n      pop\n      pop\n      pop\n      jump\t// out\n        /* \"bid.sol\":2048:2323  function hash(VerifyClaim memory verifyclaim) internal pure returns (bytes32) {... */\n    tag_18:\n        /* \"bid.sol\":2117:2124  bytes32 */\n      0x00\n        /* \"bid.sol\":917:1008  keccak256(... */\n      0xf01c01a2ce7ee4222fc2ddf19ff353aad837b14f13f52ead32e65ca1199a26ff\n        /* \"bid.sol\":2214:2225  verifyclaim */\n      dup3\n        /* \"bid.sol\":2214:2237  verifyclaim.userAddress */\n      0x00\n      add\n      mload\n        /* \"bid.sol\":2252:2263  verifyclaim */\n      dup4\n        /* \"bid.sol\":2252:2270  verifyclaim.randNo */\n      0x20\n      add\n      mload\n        /* \"bid.sol\":2285:2296  verifyclaim */\n      dup5\n        /* \"bid.sol\":2285:2303  verifyclaim.amount */\n      0x40\n      add\n      mload\n        /* \"bid.sol\":2154:2314  abi.encode(... */\n      add(0x20, mload(0x40))\n      tag_26\n      swap5\n      swap4\n      swap3\n      swap2\n      swap1\n      tag_27\n      jump\t// in\n    tag_26:\n      mload(0x40)\n      0x20\n      dup2\n      dup4\n      sub\n      sub\n      dup2\n      mstore\n      swap1\n      0x40\n      mstore\n        /* \"bid.sol\":2144:2315  keccak256(abi.encode(... */\n      dup1\n      mload\n      swap1\n      0x20\n      add\n      keccak256\n        /* \"bid.sol\":2137:2315  return keccak256(abi.encode(... */\n      swap1\n      pop\n        /* \"bid.sol\":2048:2323  function hash(VerifyClaim memory verifyclaim) internal pure returns (bytes32) {... */\n      swap2\n      swap1\n      pop\n      jump\t// out\n        /* \"#utility.yul\":88:205   */\n    tag_29:\n        /* \"#utility.yul\":197:198   */\n      0x00\n        /* \"#utility.yul\":194:195   */\n      dup1\n        /* \"#utility.yul\":187:199   */\n      revert\n        /* \"#utility.yul\":334:460   */\n    tag_31:\n        /* \"#utility.yul\":371:378   */\n      0x00\n        /* \"#utility.yul\":411:453   */\n      0xffffffffffffffffffffffffffffffffffffffff\n        /* \"#utility.yul\":404:409   */\n      dup3\n        /* \"#utility.yul\":400:454   */\n      and\n        /* \"#utility.yul\":389:454   */\n      swap1\n      pop\n        /* \"#utility.yul\":334:460   */\n      swap2\n      swap1\n      pop\n      jump\t// out\n        /* \"#utility.yul\":466:562   */\n    tag_32:\n        /* \"#utility.yul\":503:510   */\n      0x00\n        /* \"#utility.yul\":532:556   */\n      tag_61\n        /* \"#utility.yul\":550:555   */\n      dup3\n        /* \"#utility.yul\":532:556   */\n      tag_31\n      jump\t// in\n    tag_61:\n        /* \"#utility.yul\":521:556   */\n      swap1\n      pop\n        /* \"#utility.yul\":466:562   */\n      swap2\n      swap1\n      pop\n      jump\t// out\n        /* \"#utility.yul\":568:690   */\n    tag_33:\n        /* \"#utility.yul\":641:665   */\n      tag_63\n        /* \"#utility.yul\":659:664   */\n      dup2\n        /* \"#utility.yul\":641:665   */\n      tag_32\n      jump\t// in\n    tag_63:\n        /* \"#utility.yul\":634:639   */\n      dup2\n        /* \"#utility.yul\":631:666   */\n      eq\n        /* \"#utility.yul\":621:684   */\n      tag_64\n      jumpi\n        /* \"#utility.yul\":680:681   */\n      0x00\n        /* \"#utility.yul\":677:678   */\n      dup1\n        /* \"#utility.yul\":670:682   */\n      revert\n        /* \"#utility.yul\":621:684   */\n    tag_64:\n        /* \"#utility.yul\":568:690   */\n      pop\n      jump\t// out\n        /* \"#utility.yul\":696:835   */\n    tag_34:\n        /* \"#utility.yul\":742:747   */\n      0x00\n        /* \"#utility.yul\":780:786   */\n      dup2\n        /* \"#utility.yul\":767:787   */\n      calldataload\n        /* \"#utility.yul\":758:787   */\n      swap1\n      pop\n        /* \"#utility.yul\":796:829   */\n      tag_66\n        /* \"#utility.yul\":823:828   */\n      dup2\n        /* \"#utility.yul\":796:829   */\n      tag_33\n      jump\t// in\n    tag_66:\n        /* \"#utility.yul\":696:835   */\n      swap3\n      swap2\n      pop\n      pop\n      jump\t// out\n        /* \"#utility.yul\":841:918   */\n    tag_35:\n        /* \"#utility.yul\":878:885   */\n      0x00\n        /* \"#utility.yul\":907:912   */\n      dup2\n        /* \"#utility.yul\":896:912   */\n      swap1\n      pop\n        /* \"#utility.yul\":841:918   */\n      swap2\n      swap1\n      pop\n      jump\t// out\n        /* \"#utility.yul\":924:1046   */\n    tag_36:\n        /* \"#utility.yul\":997:1021   */\n      tag_69\n        /* \"#utility.yul\":1015:1020   */\n      dup2\n        /* \"#utility.yul\":997:1021   */\n      tag_35\n      jump\t// in\n    tag_69:\n        /* \"#utility.yul\":990:995   */\n      dup2\n        /* \"#utility.yul\":987:1022   */\n      eq\n        /* \"#utility.yul\":977:1040   */\n      tag_70\n      jumpi\n        /* \"#utility.yul\":1036:1037   */\n      0x00\n        /* \"#utility.yul\":1033:1034   */\n      dup1\n        /* \"#utility.yul\":1026:1038   */\n      revert\n        /* \"#utility.yul\":977:1040   */\n    tag_70:\n        /* \"#utility.yul\":924:1046   */\n      pop\n      jump\t// out\n        /* \"#utility.yul\":1052:1191   */\n    tag_37:\n        /* \"#utility.yul\":1098:1103   */\n      0x00\n        /* \"#utility.yul\":1136:1142   */\n      dup2\n        /* \"#utility.yul\":1123:1143   */\n      calldataload\n        /* \"#utility.yul\":1114:1143   */\n      swap1\n      pop\n        /* \"#utility.yul\":1152:1185   */\n      tag_72\n        /* \"#utility.yul\":1179:1184   */\n      dup2\n        /* \"#utility.yul\":1152:1185   */\n      tag_36\n      jump\t// in\n    tag_72:\n        /* \"#utility.yul\":1052:1191   */\n      swap3\n      swap2\n      pop\n      pop\n      jump\t// out\n        /* \"#utility.yul\":1197:1283   */\n    tag_38:\n        /* \"#utility.yul\":1232:1239   */\n      0x00\n        /* \"#utility.yul\":1272:1276   */\n      0xff\n        /* \"#utility.yul\":1265:1270   */\n      dup3\n        /* \"#utility.yul\":1261:1277   */\n      and\n        /* \"#utility.yul\":1250:1277   */\n      swap1\n      pop\n        /* \"#utility.yul\":1197:1283   */\n      swap2\n      swap1\n      pop\n      jump\t// out\n        /* \"#utility.yul\":1289:1407   */\n    tag_39:\n        /* \"#utility.yul\":1360:1382   */\n      tag_75\n        /* \"#utility.yul\":1376:1381   */\n      dup2\n        /* \"#utility.yul\":1360:1382   */\n      tag_38\n      jump\t// in\n    tag_75:\n        /* \"#utility.yul\":1353:1358   */\n      dup2\n        /* \"#utility.yul\":1350:1383   */\n      eq\n        /* \"#utility.yul\":1340:1401   */\n      tag_76\n      jumpi\n        /* \"#utility.yul\":1397:1398   */\n      0x00\n        /* \"#utility.yul\":1394:1395   */\n      dup1\n        /* \"#utility.yul\":1387:1399   */\n      revert\n        /* \"#utility.yul\":1340:1401   */\n    tag_76:\n        /* \"#utility.yul\":1289:1407   */\n      pop\n      jump\t// out\n        /* \"#utility.yul\":1413:1548   */\n    tag_40:\n        /* \"#utility.yul\":1457:1462   */\n      0x00\n        /* \"#utility.yul\":1495:1501   */\n      dup2\n        /* \"#utility.yul\":1482:1502   */\n      calldataload\n        /* \"#utility.yul\":1473:1502   */\n      swap1\n      pop\n        /* \"#utility.yul\":1511:1542   */\n      tag_78\n        /* \"#utility.yul\":1536:1541   */\n      dup2\n        /* \"#utility.yul\":1511:1542   */\n      tag_39\n      jump\t// in\n    tag_78:\n        /* \"#utility.yul\":1413:1548   */\n      swap3\n      swap2\n      pop\n      pop\n      jump\t// out\n        /* \"#utility.yul\":1554:1631   */\n    tag_41:\n        /* \"#utility.yul\":1591:1598   */\n      0x00\n        /* \"#utility.yul\":1620:1625   */\n      dup2\n        /* \"#utility.yul\":1609:1625   */\n      swap1\n      pop\n        /* \"#utility.yul\":1554:1631   */\n      swap2\n      swap1\n      pop\n      jump\t// out\n        /* \"#utility.yul\":1637:1759   */\n    tag_42:\n        /* \"#utility.yul\":1710:1734   */\n      tag_81\n        /* \"#utility.yul\":1728:1733   */\n      dup2\n        /* \"#utility.yul\":1710:1734   */\n      tag_41\n      jump\t// in\n    tag_81:\n        /* \"#utility.yul\":1703:1708   */\n      dup2\n        /* \"#utility.yul\":1700:1735   */\n      eq\n        /* \"#utility.yul\":1690:1753   */\n      tag_82\n      jumpi\n        /* \"#utility.yul\":1749:1750   */\n      0x00\n        /* \"#utility.yul\":1746:1747   */\n      dup1\n        /* \"#utility.yul\":1739:1751   */\n      revert\n        /* \"#utility.yul\":1690:1753   */\n    tag_82:\n        /* \"#utility.yul\":1637:1759   */\n      pop\n      jump\t// out\n        /* \"#utility.yul\":1765:1904   */\n    tag_43:\n        /* \"#utility.yul\":1811:1816   */\n      0x00\n        /* \"#utility.yul\":1849:1855   */\n      dup2\n        /* \"#utility.yul\":1836:1856   */\n      calldataload\n        /* \"#utility.yul\":1827:1856   */\n      swap1\n      pop\n        /* \"#utility.yul\":1865:1898   */\n      tag_84\n        /* \"#utility.yul\":1892:1897   */\n      dup2\n        /* \"#utility.yul\":1865:1898   */\n      tag_42\n      jump\t// in\n    tag_84:\n        /* \"#utility.yul\":1765:1904   */\n      swap3\n      swap2\n      pop\n      pop\n      jump\t// out\n        /* \"#utility.yul\":1910:2963   */\n    tag_6:\n        /* \"#utility.yul\":2012:2018   */\n      0x00\n        /* \"#utility.yul\":2020:2026   */\n      dup1\n        /* \"#utility.yul\":2028:2034   */\n      0x00\n        /* \"#utility.yul\":2036:2042   */\n      dup1\n        /* \"#utility.yul\":2044:2050   */\n      0x00\n        /* \"#utility.yul\":2052:2058   */\n      dup1\n        /* \"#utility.yul\":2101:2104   */\n      0xc0\n        /* \"#utility.yul\":2089:2098   */\n      dup8\n        /* \"#utility.yul\":2080:2087   */\n      dup10\n        /* \"#utility.yul\":2076:2099   */\n      sub\n        /* \"#utility.yul\":2072:2105   */\n      slt\n        /* \"#utility.yul\":2069:2189   */\n      iszero\n      tag_86\n      jumpi\n        /* \"#utility.yul\":2108:2187   */\n      tag_87\n      tag_29\n      jump\t// in\n    tag_87:\n        /* \"#utility.yul\":2069:2189   */\n    tag_86:\n        /* \"#utility.yul\":2228:2229   */\n      0x00\n        /* \"#utility.yul\":2253:2306   */\n      tag_88\n        /* \"#utility.yul\":2298:2305   */\n      dup10\n        /* \"#utility.yul\":2289:2295   */\n      dup3\n        /* \"#utility.yul\":2278:2287   */\n      dup11\n        /* \"#utility.yul\":2274:2296   */\n      add\n        /* \"#utility.yul\":2253:2306   */\n      tag_34\n      jump\t// in\n    tag_88:\n        /* \"#utility.yul\":2243:2306   */\n      swap7\n      pop\n        /* \"#utility.yul\":2199:2316   */\n      pop\n        /* \"#utility.yul\":2355:2357   */\n      0x20\n        /* \"#utility.yul\":2381:2434   */\n      tag_89\n        /* \"#utility.yul\":2426:2433   */\n      dup10\n        /* \"#utility.yul\":2417:2423   */\n      dup3\n        /* \"#utility.yul\":2406:2415   */\n      dup11\n        /* \"#utility.yul\":2402:2424   */\n      add\n        /* \"#utility.yul\":2381:2434   */\n      tag_37\n      jump\t// in\n    tag_89:\n        /* \"#utility.yul\":2371:2434   */\n      swap6\n      pop\n        /* \"#utility.yul\":2326:2444   */\n      pop\n        /* \"#utility.yul\":2483:2485   */\n      0x40\n        /* \"#utility.yul\":2509:2562   */\n      tag_90\n        /* \"#utility.yul\":2554:2561   */\n      dup10\n        /* \"#utility.yul\":2545:2551   */\n      dup3\n        /* \"#utility.yul\":2534:2543   */\n      dup11\n        /* \"#utility.yul\":2530:2552   */\n      add\n        /* \"#utility.yul\":2509:2562   */\n      tag_37\n      jump\t// in\n    tag_90:\n        /* \"#utility.yul\":2499:2562   */\n      swap5\n      pop\n        /* \"#utility.yul\":2454:2572   */\n      pop\n        /* \"#utility.yul\":2611:2613   */\n      0x60\n        /* \"#utility.yul\":2637:2688   */\n      tag_91\n        /* \"#utility.yul\":2680:2687   */\n      dup10\n        /* \"#utility.yul\":2671:2677   */\n      dup3\n        /* \"#utility.yul\":2660:2669   */\n      dup11\n        /* \"#utility.yul\":2656:2678   */\n      add\n        /* \"#utility.yul\":2637:2688   */\n      tag_40\n      jump\t// in\n    tag_91:\n        /* \"#utility.yul\":2627:2688   */\n      swap4\n      pop\n        /* \"#utility.yul\":2582:2698   */\n      pop\n        /* \"#utility.yul\":2737:2740   */\n      0x80\n        /* \"#utility.yul\":2764:2817   */\n      tag_92\n        /* \"#utility.yul\":2809:2816   */\n      dup10\n        /* \"#utility.yul\":2800:2806   */\n      dup3\n        /* \"#utility.yul\":2789:2798   */\n      dup11\n        /* \"#utility.yul\":2785:2807   */\n      add\n        /* \"#utility.yul\":2764:2817   */\n      tag_43\n      jump\t// in\n    tag_92:\n        /* \"#utility.yul\":2754:2817   */\n      swap3\n      pop\n        /* \"#utility.yul\":2708:2827   */\n      pop\n        /* \"#utility.yul\":2866:2869   */\n      0xa0\n        /* \"#utility.yul\":2893:2946   */\n      tag_93\n        /* \"#utility.yul\":2938:2945   */\n      dup10\n        /* \"#utility.yul\":2929:2935   */\n      dup3\n        /* \"#utility.yul\":2918:2927   */\n      dup11\n        /* \"#utility.yul\":2914:2936   */\n      add\n        /* \"#utility.yul\":2893:2946   */\n      tag_43\n      jump\t// in\n    tag_93:\n        /* \"#utility.yul\":2883:2946   */\n      swap2\n      pop\n        /* \"#utility.yul\":2837:2956   */\n      pop\n        /* \"#utility.yul\":1910:2963   */\n      swap3\n      swap6\n      pop\n      swap3\n      swap6\n      pop\n      swap3\n      swap6\n      jump\t// out\n        /* \"#utility.yul\":2969:3059   */\n    tag_44:\n        /* \"#utility.yul\":3003:3010   */\n      0x00\n        /* \"#utility.yul\":3046:3051   */\n      dup2\n        /* \"#utility.yul\":3039:3052   */\n      iszero\n        /* \"#utility.yul\":3032:3053   */\n      iszero\n        /* \"#utility.yul\":3021:3053   */\n      swap1\n      pop\n        /* \"#utility.yul\":2969:3059   */\n      swap2\n      swap1\n      pop\n      jump\t// out\n        /* \"#utility.yul\":3065:3174   */\n    tag_45:\n        /* \"#utility.yul\":3146:3167   */\n      tag_96\n        /* \"#utility.yul\":3161:3166   */\n      dup2\n        /* \"#utility.yul\":3146:3167   */\n      tag_44\n      jump\t// in\n    tag_96:\n        /* \"#utility.yul\":3141:3144   */\n      dup3\n        /* \"#utility.yul\":3134:3168   */\n      mstore\n        /* \"#utility.yul\":3065:3174   */\n      pop\n      pop\n      jump\t// out\n        /* \"#utility.yul\":3180:3390   */\n    tag_9:\n        /* \"#utility.yul\":3267:3271   */\n      0x00\n        /* \"#utility.yul\":3305:3307   */\n      0x20\n        /* \"#utility.yul\":3294:3303   */\n      dup3\n        /* \"#utility.yul\":3290:3308   */\n      add\n        /* \"#utility.yul\":3282:3308   */\n      swap1\n      pop\n        /* \"#utility.yul\":3318:3383   */\n      tag_98\n        /* \"#utility.yul\":3380:3381   */\n      0x00\n        /* \"#utility.yul\":3369:3378   */\n      dup4\n        /* \"#utility.yul\":3365:3382   */\n      add\n        /* \"#utility.yul\":3356:3362   */\n      dup5\n        /* \"#utility.yul\":3318:3383   */\n      tag_45\n      jump\t// in\n    tag_98:\n        /* \"#utility.yul\":3180:3390   */\n      swap3\n      swap2\n      pop\n      pop\n      jump\t// out\n        /* \"#utility.yul\":3396:3576   */\n    tag_15:\n        /* \"#utility.yul\":3444:3521   */\n      0x4e487b7100000000000000000000000000000000000000000000000000000000\n        /* \"#utility.yul\":3441:3442   */\n      0x00\n        /* \"#utility.yul\":3434:3522   */\n      mstore\n        /* \"#utility.yul\":3541:3545   */\n      0x01\n        /* \"#utility.yul\":3538:3539   */\n      0x04\n        /* \"#utility.yul\":3531:3546   */\n      mstore\n        /* \"#utility.yul\":3565:3569   */\n      0x24\n        /* \"#utility.yul\":3562:3563   */\n      0x00\n        /* \"#utility.yul\":3555:3570   */\n      revert\n        /* \"#utility.yul\":3582:3730   */\n    tag_46:\n        /* \"#utility.yul\":3684:3695   */\n      0x00\n        /* \"#utility.yul\":3721:3724   */\n      dup2\n        /* \"#utility.yul\":3706:3724   */\n      swap1\n      pop\n        /* \"#utility.yul\":3582:3730   */\n      swap3\n      swap2\n      pop\n      pop\n      jump\t// out\n        /* \"#utility.yul\":3736:3950   */\n    tag_47:\n        /* \"#utility.yul\":3876:3942   */\n      0x1901000000000000000000000000000000000000000000000000000000000000\n        /* \"#utility.yul\":3872:3873   */\n      0x00\n        /* \"#utility.yul\":3864:3870   */\n      dup3\n        /* \"#utility.yul\":3860:3874   */\n      add\n        /* \"#utility.yul\":3853:3943   */\n      mstore\n        /* \"#utility.yul\":3736:3950   */\n      pop\n      jump\t// out\n        /* \"#utility.yul\":3956:4356   */\n    tag_48:\n        /* \"#utility.yul\":4116:4119   */\n      0x00\n        /* \"#utility.yul\":4137:4221   */\n      tag_103\n        /* \"#utility.yul\":4219:4220   */\n      0x02\n        /* \"#utility.yul\":4214:4217   */\n      dup4\n        /* \"#utility.yul\":4137:4221   */\n      tag_46\n      jump\t// in\n    tag_103:\n        /* \"#utility.yul\":4130:4221   */\n      swap2\n      pop\n        /* \"#utility.yul\":4230:4323   */\n      tag_104\n        /* \"#utility.yul\":4319:4322   */\n      dup3\n        /* \"#utility.yul\":4230:4323   */\n      tag_47\n      jump\t// in\n    tag_104:\n        /* \"#utility.yul\":4348:4349   */\n      0x02\n        /* \"#utility.yul\":4343:4346   */\n      dup3\n        /* \"#utility.yul\":4339:4350   */\n      add\n        /* \"#utility.yul\":4332:4350   */\n      swap1\n      pop\n        /* \"#utility.yul\":3956:4356   */\n      swap2\n      swap1\n      pop\n      jump\t// out\n        /* \"#utility.yul\":4362:4441   */\n    tag_49:\n        /* \"#utility.yul\":4401:4408   */\n      0x00\n        /* \"#utility.yul\":4430:4435   */\n      dup2\n        /* \"#utility.yul\":4419:4435   */\n      swap1\n      pop\n        /* \"#utility.yul\":4362:4441   */\n      swap2\n      swap1\n      pop\n      jump\t// out\n        /* \"#utility.yul\":4447:4604   */\n    tag_50:\n        /* \"#utility.yul\":4552:4597   */\n      tag_107\n        /* \"#utility.yul\":4572:4596   */\n      tag_108\n        /* \"#utility.yul\":4590:4595   */\n      dup3\n        /* \"#utility.yul\":4572:4596   */\n      tag_41\n      jump\t// in\n    tag_108:\n        /* \"#utility.yul\":4552:4597   */\n      tag_49\n      jump\t// in\n    tag_107:\n        /* \"#utility.yul\":4547:4550   */\n      dup3\n        /* \"#utility.yul\":4540:4598   */\n      mstore\n        /* \"#utility.yul\":4447:4604   */\n      pop\n      pop\n      jump\t// out\n        /* \"#utility.yul\":4610:5273   */\n    tag_20:\n        /* \"#utility.yul\":4851:4854   */\n      0x00\n        /* \"#utility.yul\":4873:5021   */\n      tag_110\n        /* \"#utility.yul\":5017:5020   */\n      dup3\n        /* \"#utility.yul\":4873:5021   */\n      tag_48\n      jump\t// in\n    tag_110:\n        /* \"#utility.yul\":4866:5021   */\n      swap2\n      pop\n        /* \"#utility.yul\":5031:5106   */\n      tag_111\n        /* \"#utility.yul\":5102:5105   */\n      dup3\n        /* \"#utility.yul\":5093:5099   */\n      dup6\n        /* \"#utility.yul\":5031:5106   */\n      tag_50\n      jump\t// in\n    tag_111:\n        /* \"#utility.yul\":5131:5133   */\n      0x20\n        /* \"#utility.yul\":5126:5129   */\n      dup3\n        /* \"#utility.yul\":5122:5134   */\n      add\n        /* \"#utility.yul\":5115:5134   */\n      swap2\n      pop\n        /* \"#utility.yul\":5144:5219   */\n      tag_112\n        /* \"#utility.yul\":5215:5218   */\n      dup3\n        /* \"#utility.yul\":5206:5212   */\n      dup5\n        /* \"#utility.yul\":5144:5219   */\n      tag_50\n      jump\t// in\n    tag_112:\n        /* \"#utility.yul\":5244:5246   */\n      0x20\n        /* \"#utility.yul\":5239:5242   */\n      dup3\n        /* \"#utility.yul\":5235:5247   */\n      add\n        /* \"#utility.yul\":5228:5247   */\n      swap2\n      pop\n        /* \"#utility.yul\":5264:5267   */\n      dup2\n        /* \"#utility.yul\":5257:5267   */\n      swap1\n      pop\n        /* \"#utility.yul\":4610:5273   */\n      swap4\n      swap3\n      pop\n      pop\n      pop\n      jump\t// out\n        /* \"#utility.yul\":5279:5397   */\n    tag_51:\n        /* \"#utility.yul\":5366:5390   */\n      tag_114\n        /* \"#utility.yul\":5384:5389   */\n      dup2\n        /* \"#utility.yul\":5366:5390   */\n      tag_41\n      jump\t// in\n    tag_114:\n        /* \"#utility.yul\":5361:5364   */\n      dup3\n        /* \"#utility.yul\":5354:5391   */\n      mstore\n        /* \"#utility.yul\":5279:5397   */\n      pop\n      pop\n      jump\t// out\n        /* \"#utility.yul\":5403:5515   */\n    tag_52:\n        /* \"#utility.yul\":5486:5508   */\n      tag_116\n        /* \"#utility.yul\":5502:5507   */\n      dup2\n        /* \"#utility.yul\":5486:5508   */\n      tag_38\n      jump\t// in\n    tag_116:\n        /* \"#utility.yul\":5481:5484   */\n      dup3\n        /* \"#utility.yul\":5474:5509   */\n      mstore\n        /* \"#utility.yul\":5403:5515   */\n      pop\n      pop\n      jump\t// out\n        /* \"#utility.yul\":5521:6066   */\n    tag_22:\n        /* \"#utility.yul\":5694:5698   */\n      0x00\n        /* \"#utility.yul\":5732:5735   */\n      0x80\n        /* \"#utility.yul\":5721:5730   */\n      dup3\n        /* \"#utility.yul\":5717:5736   */\n      add\n        /* \"#utility.yul\":5709:5736   */\n      swap1\n      pop\n        /* \"#utility.yul\":5746:5817   */\n      tag_118\n        /* \"#utility.yul\":5814:5815   */\n      0x00\n        /* \"#utility.yul\":5803:5812   */\n      dup4\n        /* \"#utility.yul\":5799:5816   */\n      add\n        /* \"#utility.yul\":5790:5796   */\n      dup8\n        /* \"#utility.yul\":5746:5817   */\n      tag_51\n      jump\t// in\n    tag_118:\n        /* \"#utility.yul\":5827:5895   */\n      tag_119\n        /* \"#utility.yul\":5891:5893   */\n      0x20\n        /* \"#utility.yul\":5880:5889   */\n      dup4\n        /* \"#utility.yul\":5876:5894   */\n      add\n        /* \"#utility.yul\":5867:5873   */\n      dup7\n        /* \"#utility.yul\":5827:5895   */\n      tag_52\n      jump\t// in\n    tag_119:\n        /* \"#utility.yul\":5905:5977   */\n      tag_120\n        /* \"#utility.yul\":5973:5975   */\n      0x40\n        /* \"#utility.yul\":5962:5971   */\n      dup4\n        /* \"#utility.yul\":5958:5976   */\n      add\n        /* \"#utility.yul\":5949:5955   */\n      dup6\n        /* \"#utility.yul\":5905:5977   */\n      tag_51\n      jump\t// in\n    tag_120:\n        /* \"#utility.yul\":5987:6059   */\n      tag_121\n        /* \"#utility.yul\":6055:6057   */\n      0x60\n        /* \"#utility.yul\":6044:6053   */\n      dup4\n        /* \"#utility.yul\":6040:6058   */\n      add\n        /* \"#utility.yul\":6031:6037   */\n      dup5\n        /* \"#utility.yul\":5987:6059   */\n      tag_51\n      jump\t// in\n    tag_121:\n        /* \"#utility.yul\":5521:6066   */\n      swap6\n      swap5\n      pop\n      pop\n      pop\n      pop\n      pop\n      jump\t// out\n        /* \"#utility.yul\":6072:6190   */\n    tag_53:\n        /* \"#utility.yul\":6159:6183   */\n      tag_123\n        /* \"#utility.yul\":6177:6182   */\n      dup2\n        /* \"#utility.yul\":6159:6183   */\n      tag_32\n      jump\t// in\n    tag_123:\n        /* \"#utility.yul\":6154:6157   */\n      dup3\n        /* \"#utility.yul\":6147:6184   */\n      mstore\n        /* \"#utility.yul\":6072:6190   */\n      pop\n      pop\n      jump\t// out\n        /* \"#utility.yul\":6196:6314   */\n    tag_54:\n        /* \"#utility.yul\":6283:6307   */\n      tag_125\n        /* \"#utility.yul\":6301:6306   */\n      dup2\n        /* \"#utility.yul\":6283:6307   */\n      tag_35\n      jump\t// in\n    tag_125:\n        /* \"#utility.yul\":6278:6281   */\n      dup3\n        /* \"#utility.yul\":6271:6308   */\n      mstore\n        /* \"#utility.yul\":6196:6314   */\n      pop\n      pop\n      jump\t// out\n        /* \"#utility.yul\":6320:6873   */\n    tag_27:\n        /* \"#utility.yul\":6497:6501   */\n      0x00\n        /* \"#utility.yul\":6535:6538   */\n      0x80\n        /* \"#utility.yul\":6524:6533   */\n      dup3\n        /* \"#utility.yul\":6520:6539   */\n      add\n        /* \"#utility.yul\":6512:6539   */\n      swap1\n      pop\n        /* \"#utility.yul\":6549:6620   */\n      tag_127\n        /* \"#utility.yul\":6617:6618   */\n      0x00\n        /* \"#utility.yul\":6606:6615   */\n      dup4\n        /* \"#utility.yul\":6602:6619   */\n      add\n        /* \"#utility.yul\":6593:6599   */\n      dup8\n        /* \"#utility.yul\":6549:6620   */\n      tag_51\n      jump\t// in\n    tag_127:\n        /* \"#utility.yul\":6630:6702   */\n      tag_128\n        /* \"#utility.yul\":6698:6700   */\n      0x20\n        /* \"#utility.yul\":6687:6696   */\n      dup4\n        /* \"#utility.yul\":6683:6701   */\n      add\n        /* \"#utility.yul\":6674:6680   */\n      dup7\n        /* \"#utility.yul\":6630:6702   */\n      tag_53\n      jump\t// in\n    tag_128:\n        /* \"#utility.yul\":6712:6784   */\n      tag_129\n        /* \"#utility.yul\":6780:6782   */\n      0x40\n        /* \"#utility.yul\":6769:6778   */\n      dup4\n        /* \"#utility.yul\":6765:6783   */\n      add\n        /* \"#utility.yul\":6756:6762   */\n      dup6\n        /* \"#utility.yul\":6712:6784   */\n      tag_54\n      jump\t// in\n    tag_129:\n        /* \"#utility.yul\":6794:6866   */\n      tag_130\n        /* \"#utility.yul\":6862:6864   */\n      0x60\n        /* \"#utility.yul\":6851:6860   */\n      dup4\n        /* \"#utility.yul\":6847:6865   */\n      add\n        /* \"#utility.yul\":6838:6844   */\n      dup5\n        /* \"#utility.yul\":6794:6866   */\n      tag_54\n      jump\t// in\n    tag_130:\n        /* \"#utility.yul\":6320:6873   */\n      swap6\n      swap5\n      pop\n      pop\n      pop\n      pop\n      pop\n      jump\t// out\n\n    auxdata: 0xa26469706673582212207c3b365bd322648d5fc3ad9cf3fecda902af830cc8c403842d1f2cfec667118c64736f6c634300080d0033\n}\n",
				"bytecode": {
					"linkReferences": {},
					"object": "608060405234801561001057600080fd5b506100a560405180606001604052806040518060400160405280600b81526020017f566572696679436c61696d00000000000000000000000000000000000000000081525081526020016040518060400160405280600181526020017f3100000000000000000000000000000000000000000000000000000000000000815250815260200160618152506100b060201b60201c565b600081905550610197565b60007fc2f8787176b8ac6bf7215b4adcc1e069bf4ab82d9ab1df05a57a91d425935b6e82600001518051906020012083602001518051906020012084604001516040516020016101039493929190610152565b604051602081830303815290604052805190602001209050919050565b6000819050919050565b61013381610120565b82525050565b6000819050919050565b61014c81610139565b82525050565b6000608082019050610167600083018761012a565b610174602083018661012a565b610181604083018561012a565b61018e6060830184610143565b95945050505050565b610599806101a66000396000f3fe608060405234801561001057600080fd5b506004361061002b5760003560e01c8063110b1af614610030575b600080fd5b61004a600480360381019061004591906102fc565b610060565b60405161005791906103a4565b60405180910390f35b60008060405180606001604052808973ffffffffffffffffffffffffffffffffffffffff1681526020018881526020018781525090506100a2818686866100be565b6100af576100ae6103bf565b5b60019150509695505050505050565b6000806000546100cd87610192565b6040516020016100de929190610466565b6040516020818303038152906040528051906020012090507353de6a872435f5286befd0b6fb3bc06742af8c8f73ffffffffffffffffffffffffffffffffffffffff166001828787876040516000815260200160405260405161014494939291906104bb565b6020604051602081039080840390855afa158015610166573d6000803e3d6000fd5b5050506020604051035173ffffffffffffffffffffffffffffffffffffffff1614915050949350505050565b60007ff01c01a2ce7ee4222fc2ddf19ff353aad837b14f13f52ead32e65ca1199a26ff8260000151836020015184604001516040516020016101d7949392919061051e565b604051602081830303815290604052805190602001209050919050565b600080fd5b600073ffffffffffffffffffffffffffffffffffffffff82169050919050565b6000610224826101f9565b9050919050565b61023481610219565b811461023f57600080fd5b50565b6000813590506102518161022b565b92915050565b6000819050919050565b61026a81610257565b811461027557600080fd5b50565b60008135905061028781610261565b92915050565b600060ff82169050919050565b6102a38161028d565b81146102ae57600080fd5b50565b6000813590506102c08161029a565b92915050565b6000819050919050565b6102d9816102c6565b81146102e457600080fd5b50565b6000813590506102f6816102d0565b92915050565b60008060008060008060c08789031215610319576103186101f4565b5b600061032789828a01610242565b965050602061033889828a01610278565b955050604061034989828a01610278565b945050606061035a89828a016102b1565b935050608061036b89828a016102e7565b92505060a061037c89828a016102e7565b9150509295509295509295565b60008115159050919050565b61039e81610389565b82525050565b60006020820190506103b96000830184610395565b92915050565b7f4e487b7100000000000000000000000000000000000000000000000000000000600052600160045260246000fd5b600081905092915050565b7f1901000000000000000000000000000000000000000000000000000000000000600082015250565b600061042f6002836103ee565b915061043a826103f9565b600282019050919050565b6000819050919050565b61046061045b826102c6565b610445565b82525050565b600061047182610422565b915061047d828561044f565b60208201915061048d828461044f565b6020820191508190509392505050565b6104a6816102c6565b82525050565b6104b58161028d565b82525050565b60006080820190506104d0600083018761049d565b6104dd60208301866104ac565b6104ea604083018561049d565b6104f7606083018461049d565b95945050505050565b61050981610219565b82525050565b61051881610257565b82525050565b6000608082019050610533600083018761049d565b6105406020830186610500565b61054d604083018561050f565b61055a606083018461050f565b9594505050505056fea26469706673582212207c3b365bd322648d5fc3ad9cf3fecda902af830cc8c403842d1f2cfec667118c64736f6c634300080d0033",
					"opcodes": "PUSH1 0x80 PUSH1 0x40 MSTORE CALLVALUE DUP1 ISZERO PUSH2 0x10 JUMPI PUSH1 0x0 DUP1 REVERT JUMPDEST POP PUSH2 0xA5 PUSH1 0x40 MLOAD DUP1 PUSH1 0x60 ADD PUSH1 0x40 MSTORE DUP1 PUSH1 0x40 MLOAD DUP1 PUSH1 0x40 ADD PUSH1 0x40 MSTORE DUP1 PUSH1 0xB DUP2 MSTORE PUSH1 0x20 ADD PUSH32 0x566572696679436C61696D000000000000000000000000000000000000000000 DUP2 MSTORE POP DUP2 MSTORE PUSH1 0x20 ADD PUSH1 0x40 MLOAD DUP1 PUSH1 0x40 ADD PUSH1 0x40 MSTORE DUP1 PUSH1 0x1 DUP2 MSTORE PUSH1 0x20 ADD PUSH32 0x3100000000000000000000000000000000000000000000000000000000000000 DUP2 MSTORE POP DUP2 MSTORE PUSH1 0x20 ADD PUSH1 0x61 DUP2 MSTORE POP PUSH2 0xB0 PUSH1 0x20 SHL PUSH1 0x20 SHR JUMP JUMPDEST PUSH1 0x0 DUP2 SWAP1 SSTORE POP PUSH2 0x197 JUMP JUMPDEST PUSH1 0x0 PUSH32 0xC2F8787176B8AC6BF7215B4ADCC1E069BF4AB82D9AB1DF05A57A91D425935B6E DUP3 PUSH1 0x0 ADD MLOAD DUP1 MLOAD SWAP1 PUSH1 0x20 ADD KECCAK256 DUP4 PUSH1 0x20 ADD MLOAD DUP1 MLOAD SWAP1 PUSH1 0x20 ADD KECCAK256 DUP5 PUSH1 0x40 ADD MLOAD PUSH1 0x40 MLOAD PUSH1 0x20 ADD PUSH2 0x103 SWAP5 SWAP4 SWAP3 SWAP2 SWAP1 PUSH2 0x152 JUMP JUMPDEST PUSH1 0x40 MLOAD PUSH1 0x20 DUP2 DUP4 SUB SUB DUP2 MSTORE SWAP1 PUSH1 0x40 MSTORE DUP1 MLOAD SWAP1 PUSH1 0x20 ADD KECCAK256 SWAP1 POP SWAP2 SWAP1 POP JUMP JUMPDEST PUSH1 0x0 DUP2 SWAP1 POP SWAP2 SWAP1 POP JUMP JUMPDEST PUSH2 0x133 DUP2 PUSH2 0x120 JUMP JUMPDEST DUP3 MSTORE POP POP JUMP JUMPDEST PUSH1 0x0 DUP2 SWAP1 POP SWAP2 SWAP1 POP JUMP JUMPDEST PUSH2 0x14C DUP2 PUSH2 0x139 JUMP JUMPDEST DUP3 MSTORE POP POP JUMP JUMPDEST PUSH1 0x0 PUSH1 0x80 DUP3 ADD SWAP1 POP PUSH2 0x167 PUSH1 0x0 DUP4 ADD DUP8 PUSH2 0x12A JUMP JUMPDEST PUSH2 0x174 PUSH1 0x20 DUP4 ADD DUP7 PUSH2 0x12A JUMP JUMPDEST PUSH2 0x181 PUSH1 0x40 DUP4 ADD DUP6 PUSH2 0x12A JUMP JUMPDEST PUSH2 0x18E PUSH1 0x60 DUP4 ADD DUP5 PUSH2 0x143 JUMP JUMPDEST SWAP6 SWAP5 POP POP POP POP POP JUMP JUMPDEST PUSH2 0x599 DUP1 PUSH2 0x1A6 PUSH1 0x0 CODECOPY PUSH1 0x0 RETURN INVALID PUSH1 0x80 PUSH1 0x40 MSTORE CALLVALUE DUP1 ISZERO PUSH2 0x10 JUMPI PUSH1 0x0 DUP1 REVERT JUMPDEST POP PUSH1 0x4 CALLDATASIZE LT PUSH2 0x2B JUMPI PUSH1 0x0 CALLDATALOAD PUSH1 0xE0 SHR DUP1 PUSH4 0x110B1AF6 EQ PUSH2 0x30 JUMPI JUMPDEST PUSH1 0x0 DUP1 REVERT JUMPDEST PUSH2 0x4A PUSH1 0x4 DUP1 CALLDATASIZE SUB DUP2 ADD SWAP1 PUSH2 0x45 SWAP2 SWAP1 PUSH2 0x2FC JUMP JUMPDEST PUSH2 0x60 JUMP JUMPDEST PUSH1 0x40 MLOAD PUSH2 0x57 SWAP2 SWAP1 PUSH2 0x3A4 JUMP JUMPDEST PUSH1 0x40 MLOAD DUP1 SWAP2 SUB SWAP1 RETURN JUMPDEST PUSH1 0x0 DUP1 PUSH1 0x40 MLOAD DUP1 PUSH1 0x60 ADD PUSH1 0x40 MSTORE DUP1 DUP10 PUSH20 0xFFFFFFFFFFFFFFFFFFFFFFFFFFFFFFFFFFFFFFFF AND DUP2 MSTORE PUSH1 0x20 ADD DUP9 DUP2 MSTORE PUSH1 0x20 ADD DUP8 DUP2 MSTORE POP SWAP1 POP PUSH2 0xA2 DUP2 DUP7 DUP7 DUP7 PUSH2 0xBE JUMP JUMPDEST PUSH2 0xAF JUMPI PUSH2 0xAE PUSH2 0x3BF JUMP JUMPDEST JUMPDEST PUSH1 0x1 SWAP2 POP POP SWAP7 SWAP6 POP POP POP POP POP POP JUMP JUMPDEST PUSH1 0x0 DUP1 PUSH1 0x0 SLOAD PUSH2 0xCD DUP8 PUSH2 0x192 JUMP JUMPDEST PUSH1 0x40 MLOAD PUSH1 0x20 ADD PUSH2 0xDE SWAP3 SWAP2 SWAP1 PUSH2 0x466 JUMP JUMPDEST PUSH1 0x40 MLOAD PUSH1 0x20 DUP2 DUP4 SUB SUB DUP2 MSTORE SWAP1 PUSH1 0x40 MSTORE DUP1 MLOAD SWAP1 PUSH1 0x20 ADD KECCAK256 SWAP1 POP PUSH20 0x53DE6A872435F5286BEFD0B6FB3BC06742AF8C8F PUSH20 0xFFFFFFFFFFFFFFFFFFFFFFFFFFFFFFFFFFFFFFFF AND PUSH1 0x1 DUP3 DUP8 DUP8 DUP8 PUSH1 0x40 MLOAD PUSH1 0x0 DUP2 MSTORE PUSH1 0x20 ADD PUSH1 0x40 MSTORE PUSH1 0x40 MLOAD PUSH2 0x144 SWAP5 SWAP4 SWAP3 SWAP2 SWAP1 PUSH2 0x4BB JUMP JUMPDEST PUSH1 0x20 PUSH1 0x40 MLOAD PUSH1 0x20 DUP2 SUB SWAP1 DUP1 DUP5 SUB SWAP1 DUP6 GAS STATICCALL ISZERO DUP1 ISZERO PUSH2 0x166 JUMPI RETURNDATASIZE PUSH1 0x0 DUP1 RETURNDATACOPY RETURNDATASIZE PUSH1 0x0 REVERT JUMPDEST POP POP POP PUSH1 0x20 PUSH1 0x40 MLOAD SUB MLOAD PUSH20 0xFFFFFFFFFFFFFFFFFFFFFFFFFFFFFFFFFFFFFFFF AND EQ SWAP2 POP POP SWAP5 SWAP4 POP POP POP POP JUMP JUMPDEST PUSH1 0x0 PUSH32 0xF01C01A2CE7EE4222FC2DDF19FF353AAD837B14F13F52EAD32E65CA1199A26FF DUP3 PUSH1 0x0 ADD MLOAD DUP4 PUSH1 0x20 ADD MLOAD DUP5 PUSH1 0x40 ADD MLOAD PUSH1 0x40 MLOAD PUSH1 0x20 ADD PUSH2 0x1D7 SWAP5 SWAP4 SWAP3 SWAP2 SWAP1 PUSH2 0x51E JUMP JUMPDEST PUSH1 0x40 MLOAD PUSH1 0x20 DUP2 DUP4 SUB SUB DUP2 MSTORE SWAP1 PUSH1 0x40 MSTORE DUP1 MLOAD SWAP1 PUSH1 0x20 ADD KECCAK256 SWAP1 POP SWAP2 SWAP1 POP JUMP JUMPDEST PUSH1 0x0 DUP1 REVERT JUMPDEST PUSH1 0x0 PUSH20 0xFFFFFFFFFFFFFFFFFFFFFFFFFFFFFFFFFFFFFFFF DUP3 AND SWAP1 POP SWAP2 SWAP1 POP JUMP JUMPDEST PUSH1 0x0 PUSH2 0x224 DUP3 PUSH2 0x1F9 JUMP JUMPDEST SWAP1 POP SWAP2 SWAP1 POP JUMP JUMPDEST PUSH2 0x234 DUP2 PUSH2 0x219 JUMP JUMPDEST DUP2 EQ PUSH2 0x23F JUMPI PUSH1 0x0 DUP1 REVERT JUMPDEST POP JUMP JUMPDEST PUSH1 0x0 DUP2 CALLDATALOAD SWAP1 POP PUSH2 0x251 DUP2 PUSH2 0x22B JUMP JUMPDEST SWAP3 SWAP2 POP POP JUMP JUMPDEST PUSH1 0x0 DUP2 SWAP1 POP SWAP2 SWAP1 POP JUMP JUMPDEST PUSH2 0x26A DUP2 PUSH2 0x257 JUMP JUMPDEST DUP2 EQ PUSH2 0x275 JUMPI PUSH1 0x0 DUP1 REVERT JUMPDEST POP JUMP JUMPDEST PUSH1 0x0 DUP2 CALLDATALOAD SWAP1 POP PUSH2 0x287 DUP2 PUSH2 0x261 JUMP JUMPDEST SWAP3 SWAP2 POP POP JUMP JUMPDEST PUSH1 0x0 PUSH1 0xFF DUP3 AND SWAP1 POP SWAP2 SWAP1 POP JUMP JUMPDEST PUSH2 0x2A3 DUP2 PUSH2 0x28D JUMP JUMPDEST DUP2 EQ PUSH2 0x2AE JUMPI PUSH1 0x0 DUP1 REVERT JUMPDEST POP JUMP JUMPDEST PUSH1 0x0 DUP2 CALLDATALOAD SWAP1 POP PUSH2 0x2C0 DUP2 PUSH2 0x29A JUMP JUMPDEST SWAP3 SWAP2 POP POP JUMP JUMPDEST PUSH1 0x0 DUP2 SWAP1 POP SWAP2 SWAP1 POP JUMP JUMPDEST PUSH2 0x2D9 DUP2 PUSH2 0x2C6 JUMP JUMPDEST DUP2 EQ PUSH2 0x2E4 JUMPI PUSH1 0x0 DUP1 REVERT JUMPDEST POP JUMP JUMPDEST PUSH1 0x0 DUP2 CALLDATALOAD SWAP1 POP PUSH2 0x2F6 DUP2 PUSH2 0x2D0 JUMP JUMPDEST SWAP3 SWAP2 POP POP JUMP JUMPDEST PUSH1 0x0 DUP1 PUSH1 0x0 DUP1 PUSH1 0x0 DUP1 PUSH1 0xC0 DUP8 DUP10 SUB SLT ISZERO PUSH2 0x319 JUMPI PUSH2 0x318 PUSH2 0x1F4 JUMP JUMPDEST JUMPDEST PUSH1 0x0 PUSH2 0x327 DUP10 DUP3 DUP11 ADD PUSH2 0x242 JUMP JUMPDEST SWAP7 POP POP PUSH1 0x20 PUSH2 0x338 DUP10 DUP3 DUP11 ADD PUSH2 0x278 JUMP JUMPDEST SWAP6 POP POP PUSH1 0x40 PUSH2 0x349 DUP10 DUP3 DUP11 ADD PUSH2 0x278 JUMP JUMPDEST SWAP5 POP POP PUSH1 0x60 PUSH2 0x35A DUP10 DUP3 DUP11 ADD PUSH2 0x2B1 JUMP JUMPDEST SWAP4 POP POP PUSH1 0x80 PUSH2 0x36B DUP10 DUP3 DUP11 ADD PUSH2 0x2E7 JUMP JUMPDEST SWAP3 POP POP PUSH1 0xA0 PUSH2 0x37C DUP10 DUP3 DUP11 ADD PUSH2 0x2E7 JUMP JUMPDEST SWAP2 POP POP SWAP3 SWAP6 POP SWAP3 SWAP6 POP SWAP3 SWAP6 JUMP JUMPDEST PUSH1 0x0 DUP2 ISZERO ISZERO SWAP1 POP SWAP2 SWAP1 POP JUMP JUMPDEST PUSH2 0x39E DUP2 PUSH2 0x389 JUMP JUMPDEST DUP3 MSTORE POP POP JUMP JUMPDEST PUSH1 0x0 PUSH1 0x20 DUP3 ADD SWAP1 POP PUSH2 0x3B9 PUSH1 0x0 DUP4 ADD DUP5 PUSH2 0x395 JUMP JUMPDEST SWAP3 SWAP2 POP POP JUMP JUMPDEST PUSH32 0x4E487B7100000000000000000000000000000000000000000000000000000000 PUSH1 0x0 MSTORE PUSH1 0x1 PUSH1 0x4 MSTORE PUSH1 0x24 PUSH1 0x0 REVERT JUMPDEST PUSH1 0x0 DUP2 SWAP1 POP SWAP3 SWAP2 POP POP JUMP JUMPDEST PUSH32 0x1901000000000000000000000000000000000000000000000000000000000000 PUSH1 0x0 DUP3 ADD MSTORE POP JUMP JUMPDEST PUSH1 0x0 PUSH2 0x42F PUSH1 0x2 DUP4 PUSH2 0x3EE JUMP JUMPDEST SWAP2 POP PUSH2 0x43A DUP3 PUSH2 0x3F9 JUMP JUMPDEST PUSH1 0x2 DUP3 ADD SWAP1 POP SWAP2 SWAP1 POP JUMP JUMPDEST PUSH1 0x0 DUP2 SWAP1 POP SWAP2 SWAP1 POP JUMP JUMPDEST PUSH2 0x460 PUSH2 0x45B DUP3 PUSH2 0x2C6 JUMP JUMPDEST PUSH2 0x445 JUMP JUMPDEST DUP3 MSTORE POP POP JUMP JUMPDEST PUSH1 0x0 PUSH2 0x471 DUP3 PUSH2 0x422 JUMP JUMPDEST SWAP2 POP PUSH2 0x47D DUP3 DUP6 PUSH2 0x44F JUMP JUMPDEST PUSH1 0x20 DUP3 ADD SWAP2 POP PUSH2 0x48D DUP3 DUP5 PUSH2 0x44F JUMP JUMPDEST PUSH1 0x20 DUP3 ADD SWAP2 POP DUP2 SWAP1 POP SWAP4 SWAP3 POP POP POP JUMP JUMPDEST PUSH2 0x4A6 DUP2 PUSH2 0x2C6 JUMP JUMPDEST DUP3 MSTORE POP POP JUMP JUMPDEST PUSH2 0x4B5 DUP2 PUSH2 0x28D JUMP JUMPDEST DUP3 MSTORE POP POP JUMP JUMPDEST PUSH1 0x0 PUSH1 0x80 DUP3 ADD SWAP1 POP PUSH2 0x4D0 PUSH1 0x0 DUP4 ADD DUP8 PUSH2 0x49D JUMP JUMPDEST PUSH2 0x4DD PUSH1 0x20 DUP4 ADD DUP7 PUSH2 0x4AC JUMP JUMPDEST PUSH2 0x4EA PUSH1 0x40 DUP4 ADD DUP6 PUSH2 0x49D JUMP JUMPDEST PUSH2 0x4F7 PUSH1 0x60 DUP4 ADD DUP5 PUSH2 0x49D JUMP JUMPDEST SWAP6 SWAP5 POP POP POP POP POP JUMP JUMPDEST PUSH2 0x509 DUP2 PUSH2 0x219 JUMP JUMPDEST DUP3 MSTORE POP POP JUMP JUMPDEST PUSH2 0x518 DUP2 PUSH2 0x257 JUMP JUMPDEST DUP3 MSTORE POP POP JUMP JUMPDEST PUSH1 0x0 PUSH1 0x80 DUP3 ADD SWAP1 POP PUSH2 0x533 PUSH1 0x0 DUP4 ADD DUP8 PUSH2 0x49D JUMP JUMPDEST PUSH2 0x540 PUSH1 0x20 DUP4 ADD DUP7 PUSH2 0x500 JUMP JUMPDEST PUSH2 0x54D PUSH1 0x40 DUP4 ADD DUP6 PUSH2 0x50F JUMP JUMPDEST PUSH2 0x55A PUSH1 0x60 DUP4 ADD DUP5 PUSH2 0x50F JUMP JUMPDEST SWAP6 SWAP5 POP POP POP POP POP JUMP INVALID LOG2 PUSH5 0x6970667358 0x22 SLT KECCAK256 PUSH29 0x3B365BD322648D5FC3AD9CF3FECDA902AF830CC8C403842D1F2CFEC667 GT DUP13 PUSH5 0x736F6C6343 STOP ADDMOD 0xD STOP CALLER "
				},
				"gasEstimates": {
					"creation": {
						"codeDepositCost": "286600",
						"executionCost": "infinite",
						"totalCost": "infinite"
					},
					"external": {
						"test(address,uint256,uint256,uint8,bytes32,bytes32)": "infinite"
					},
					"internal": {
						"hash(struct Example.EIP712Domain memory)": "infinite",
						"hash(struct Example.Mail memory)": "infinite",
						"hash(struct Example.Person memory)": "infinite",
						"hash(struct Example.VerifyClaim memory)": "infinite",
						"verify(struct Example.VerifyClaim memory,uint8,bytes32,bytes32)": "infinite"
					}
				},
				"methodIdentifiers": {
					"test(address,uint256,uint256,uint8,bytes32,bytes32)": "110b1af6"
				}
			},
			"storageLayout": {
				"storage": [
					{
						"astId": 51,
						"contract": "bid.sol:Example",
						"label": "DOMAIN_SEPARATOR",
						"offset": 0,
						"slot": "0",
						"type": "t_bytes32"
					}
				],
				"types": {
					"t_bytes32": {
						"encoding": "inplace",
						"label": "bytes32",
						"numberOfBytes": "32"
					}
				}
			},
			"userdoc": {
				"kind": "user",
				"methods": {},
				"version": 1
			}
		}
	}
}