{
	"test.sol": {
		"TestMultiCall": {
			"abi": [
				{
					"inputs": [
						{
							"internalType": "uint256",
							"name": "_i",
							"type": "uint256"
						}
					],
					"name": "getData",
					"outputs": [
						{
							"internalType": "bytes",
							"name": "",
							"type": "bytes"
						}
					],
					"stateMutability": "pure",
					"type": "function"
				}
			],
			"devdoc": {
				"kind": "dev",
				"methods": {},
				"version": 1
			},
			"evm": {
				"assembly": "    /* \"test.sol\":61:212  contract TestMultiCall {... */\n  mstore(0x40, 0x80)\n  callvalue\n  dup1\n  iszero\n  tag_1\n  jumpi\n  0x00\n  dup1\n  revert\ntag_1:\n  pop\n  dataSize(sub_0)\n  dup1\n  dataOffset(sub_0)\n  0x00\n  codecopy\n  0x00\n  return\nstop\n\nsub_0: assembly {\n        /* \"test.sol\":61:212  contract TestMultiCall {... */\n      mstore(0x40, 0x80)\n      callvalue\n      dup1\n      iszero\n      tag_1\n      jumpi\n      0x00\n      dup1\n      revert\n    tag_1:\n      pop\n      jumpi(tag_2, lt(calldatasize, 0x04))\n      shr(0xe0, calldataload(0x00))\n      dup1\n      0x0178fe3f\n      eq\n      tag_3\n      jumpi\n    tag_2:\n      0x00\n      dup1\n      revert\n        /* \"test.sol\":99:209  function getData(uint _i) external pure returns (bytes memory) {... */\n    tag_3:\n      tag_4\n      0x04\n      dup1\n      calldatasize\n      sub\n      dup2\n      add\n      swap1\n      tag_5\n      swap2\n      swap1\n      tag_6\n      jump\t// in\n    tag_5:\n      tag_7\n      jump\t// in\n    tag_4:\n      mload(0x40)\n      tag_8\n      swap2\n      swap1\n      tag_9\n      jump\t// in\n    tag_8:\n      mload(0x40)\n      dup1\n      swap2\n      sub\n      swap1\n      return\n    tag_7:\n        /* \"test.sol\":148:160  bytes memory */\n      0x60\n        /* \"test.sol\":198:200  _i */\n      dup2\n        /* \"test.sol\":180:201  abi.encodePacked( _i) */\n      add(0x20, mload(0x40))\n      tag_11\n      swap2\n      swap1\n      tag_12\n      jump\t// in\n    tag_11:\n      mload(0x40)\n      0x20\n      dup2\n      dup4\n      sub\n      sub\n      dup2\n      mstore\n      swap1\n      0x40\n      mstore\n        /* \"test.sol\":173:201  return abi.encodePacked( _i) */\n      swap1\n      pop\n        /* \"test.sol\":99:209  function getData(uint _i) external pure returns (bytes memory) {... */\n      swap2\n      swap1\n      pop\n      jump\t// out\n        /* \"#utility.yul\":88:205   */\n    tag_14:\n        /* \"#utility.yul\":197:198   */\n      0x00\n        /* \"#utility.yul\":194:195   */\n      dup1\n        /* \"#utility.yul\":187:199   */\n      revert\n        /* \"#utility.yul\":334:411   */\n    tag_16:\n        /* \"#utility.yul\":371:378   */\n      0x00\n        /* \"#utility.yul\":400:405   */\n      dup2\n        /* \"#utility.yul\":389:405   */\n      swap1\n      pop\n        /* \"#utility.yul\":334:411   */\n      swap2\n      swap1\n      pop\n      jump\t// out\n        /* \"#utility.yul\":417:539   */\n    tag_17:\n        /* \"#utility.yul\":490:514   */\n      tag_32\n        /* \"#utility.yul\":508:513   */\n      dup2\n        /* \"#utility.yul\":490:514   */\n      tag_16\n      jump\t// in\n    tag_32:\n        /* \"#utility.yul\":483:488   */\n      dup2\n        /* \"#utility.yul\":480:515   */\n      eq\n        /* \"#utility.yul\":470:533   */\n      tag_33\n      jumpi\n        /* \"#utility.yul\":529:530   */\n      0x00\n        /* \"#utility.yul\":526:527   */\n      dup1\n        /* \"#utility.yul\":519:531   */\n      revert\n        /* \"#utility.yul\":470:533   */\n    tag_33:\n        /* \"#utility.yul\":417:539   */\n      pop\n      jump\t// out\n        /* \"#utility.yul\":545:684   */\n    tag_18:\n        /* \"#utility.yul\":591:596   */\n      0x00\n        /* \"#utility.yul\":629:635   */\n      dup2\n        /* \"#utility.yul\":616:636   */\n      calldataload\n        /* \"#utility.yul\":607:636   */\n      swap1\n      pop\n        /* \"#utility.yul\":645:678   */\n      tag_35\n        /* \"#utility.yul\":672:677   */\n      dup2\n        /* \"#utility.yul\":645:678   */\n      tag_17\n      jump\t// in\n    tag_35:\n        /* \"#utility.yul\":545:684   */\n      swap3\n      swap2\n      pop\n      pop\n      jump\t// out\n        /* \"#utility.yul\":690:1019   */\n    tag_6:\n        /* \"#utility.yul\":749:755   */\n      0x00\n        /* \"#utility.yul\":798:800   */\n      0x20\n        /* \"#utility.yul\":786:795   */\n      dup3\n        /* \"#utility.yul\":777:784   */\n      dup5\n        /* \"#utility.yul\":773:796   */\n      sub\n        /* \"#utility.yul\":769:801   */\n      slt\n        /* \"#utility.yul\":766:885   */\n      iszero\n      tag_37\n      jumpi\n        /* \"#utility.yul\":804:883   */\n      tag_38\n      tag_14\n      jump\t// in\n    tag_38:\n        /* \"#utility.yul\":766:885   */\n    tag_37:\n        /* \"#utility.yul\":924:925   */\n      0x00\n        /* \"#utility.yul\":949:1002   */\n      tag_39\n        /* \"#utility.yul\":994:1001   */\n      dup5\n        /* \"#utility.yul\":985:991   */\n      dup3\n        /* \"#utility.yul\":974:983   */\n      dup6\n        /* \"#utility.yul\":970:992   */\n      add\n        /* \"#utility.yul\":949:1002   */\n      tag_18\n      jump\t// in\n    tag_39:\n        /* \"#utility.yul\":939:1002   */\n      swap2\n      pop\n        /* \"#utility.yul\":895:1012   */\n      pop\n        /* \"#utility.yul\":690:1019   */\n      swap3\n      swap2\n      pop\n      pop\n      jump\t// out\n        /* \"#utility.yul\":1025:1123   */\n    tag_19:\n        /* \"#utility.yul\":1076:1082   */\n      0x00\n        /* \"#utility.yul\":1110:1115   */\n      dup2\n        /* \"#utility.yul\":1104:1116   */\n      mload\n        /* \"#utility.yul\":1094:1116   */\n      swap1\n      pop\n        /* \"#utility.yul\":1025:1123   */\n      swap2\n      swap1\n      pop\n      jump\t// out\n        /* \"#utility.yul\":1129:1297   */\n    tag_20:\n        /* \"#utility.yul\":1212:1223   */\n      0x00\n        /* \"#utility.yul\":1246:1252   */\n      dup3\n        /* \"#utility.yul\":1241:1244   */\n      dup3\n        /* \"#utility.yul\":1234:1253   */\n      mstore\n        /* \"#utility.yul\":1286:1290   */\n      0x20\n        /* \"#utility.yul\":1281:1284   */\n      dup3\n        /* \"#utility.yul\":1277:1291   */\n      add\n        /* \"#utility.yul\":1262:1291   */\n      swap1\n      pop\n        /* \"#utility.yul\":1129:1297   */\n      swap3\n      swap2\n      pop\n      pop\n      jump\t// out\n        /* \"#utility.yul\":1303:1610   */\n    tag_21:\n        /* \"#utility.yul\":1371:1372   */\n      0x00\n        /* \"#utility.yul\":1381:1494   */\n    tag_43:\n        /* \"#utility.yul\":1395:1401   */\n      dup4\n        /* \"#utility.yul\":1392:1393   */\n      dup2\n        /* \"#utility.yul\":1389:1402   */\n      lt\n        /* \"#utility.yul\":1381:1494   */\n      iszero\n      tag_45\n      jumpi\n        /* \"#utility.yul\":1480:1481   */\n      dup1\n        /* \"#utility.yul\":1475:1478   */\n      dup3\n        /* \"#utility.yul\":1471:1482   */\n      add\n        /* \"#utility.yul\":1465:1483   */\n      mload\n        /* \"#utility.yul\":1461:1462   */\n      dup2\n        /* \"#utility.yul\":1456:1459   */\n      dup5\n        /* \"#utility.yul\":1452:1463   */\n      add\n        /* \"#utility.yul\":1445:1484   */\n      mstore\n        /* \"#utility.yul\":1417:1419   */\n      0x20\n        /* \"#utility.yul\":1414:1415   */\n      dup2\n        /* \"#utility.yul\":1410:1420   */\n      add\n        /* \"#utility.yul\":1405:1420   */\n      swap1\n      pop\n        /* \"#utility.yul\":1381:1494   */\n      jump(tag_43)\n    tag_45:\n        /* \"#utility.yul\":1512:1518   */\n      dup4\n        /* \"#utility.yul\":1509:1510   */\n      dup2\n        /* \"#utility.yul\":1506:1519   */\n      gt\n        /* \"#utility.yul\":1503:1604   */\n      iszero\n      tag_46\n      jumpi\n        /* \"#utility.yul\":1592:1593   */\n      0x00\n        /* \"#utility.yul\":1583:1589   */\n      dup5\n        /* \"#utility.yul\":1578:1581   */\n      dup5\n        /* \"#utility.yul\":1574:1590   */\n      add\n        /* \"#utility.yul\":1567:1594   */\n      mstore\n        /* \"#utility.yul\":1503:1604   */\n    tag_46:\n        /* \"#utility.yul\":1352:1610   */\n      pop\n        /* \"#utility.yul\":1303:1610   */\n      pop\n      pop\n      pop\n      jump\t// out\n        /* \"#utility.yul\":1616:1718   */\n    tag_22:\n        /* \"#utility.yul\":1657:1663   */\n      0x00\n        /* \"#utility.yul\":1708:1710   */\n      0x1f\n        /* \"#utility.yul\":1704:1711   */\n      not\n        /* \"#utility.yul\":1699:1701   */\n      0x1f\n        /* \"#utility.yul\":1692:1697   */\n      dup4\n        /* \"#utility.yul\":1688:1702   */\n      add\n        /* \"#utility.yul\":1684:1712   */\n      and\n        /* \"#utility.yul\":1674:1712   */\n      swap1\n      pop\n        /* \"#utility.yul\":1616:1718   */\n      swap2\n      swap1\n      pop\n      jump\t// out\n        /* \"#utility.yul\":1724:2084   */\n    tag_23:\n        /* \"#utility.yul\":1810:1813   */\n      0x00\n        /* \"#utility.yul\":1838:1876   */\n      tag_49\n        /* \"#utility.yul\":1870:1875   */\n      dup3\n        /* \"#utility.yul\":1838:1876   */\n      tag_19\n      jump\t// in\n    tag_49:\n        /* \"#utility.yul\":1892:1962   */\n      tag_50\n        /* \"#utility.yul\":1955:1961   */\n      dup2\n        /* \"#utility.yul\":1950:1953   */\n      dup6\n        /* \"#utility.yul\":1892:1962   */\n      tag_20\n      jump\t// in\n    tag_50:\n        /* \"#utility.yul\":1885:1962   */\n      swap4\n      pop\n        /* \"#utility.yul\":1971:2023   */\n      tag_51\n        /* \"#utility.yul\":2016:2022   */\n      dup2\n        /* \"#utility.yul\":2011:2014   */\n      dup6\n        /* \"#utility.yul\":2004:2008   */\n      0x20\n        /* \"#utility.yul\":1997:2002   */\n      dup7\n        /* \"#utility.yul\":1993:2009   */\n      add\n        /* \"#utility.yul\":1971:2023   */\n      tag_21\n      jump\t// in\n    tag_51:\n        /* \"#utility.yul\":2048:2077   */\n      tag_52\n        /* \"#utility.yul\":2070:2076   */\n      dup2\n        /* \"#utility.yul\":2048:2077   */\n      tag_22\n      jump\t// in\n    tag_52:\n        /* \"#utility.yul\":2043:2046   */\n      dup5\n        /* \"#utility.yul\":2039:2078   */\n      add\n        /* \"#utility.yul\":2032:2078   */\n      swap2\n      pop\n        /* \"#utility.yul\":1814:2084   */\n      pop\n        /* \"#utility.yul\":1724:2084   */\n      swap3\n      swap2\n      pop\n      pop\n      jump\t// out\n        /* \"#utility.yul\":2090:2399   */\n    tag_9:\n        /* \"#utility.yul\":2201:2205   */\n      0x00\n        /* \"#utility.yul\":2239:2241   */\n      0x20\n        /* \"#utility.yul\":2228:2237   */\n      dup3\n        /* \"#utility.yul\":2224:2242   */\n      add\n        /* \"#utility.yul\":2216:2242   */\n      swap1\n      pop\n        /* \"#utility.yul\":2288:2297   */\n      dup2\n        /* \"#utility.yul\":2282:2286   */\n      dup2\n        /* \"#utility.yul\":2278:2298   */\n      sub\n        /* \"#utility.yul\":2274:2275   */\n      0x00\n        /* \"#utility.yul\":2263:2272   */\n      dup4\n        /* \"#utility.yul\":2259:2276   */\n      add\n        /* \"#utility.yul\":2252:2299   */\n      mstore\n        /* \"#utility.yul\":2316:2392   */\n      tag_54\n        /* \"#utility.yul\":2387:2391   */\n      dup2\n        /* \"#utility.yul\":2378:2384   */\n      dup5\n        /* \"#utility.yul\":2316:2392   */\n      tag_23\n      jump\t// in\n    tag_54:\n        /* \"#utility.yul\":2308:2392   */\n      swap1\n      pop\n        /* \"#utility.yul\":2090:2399   */\n      swap3\n      swap2\n      pop\n      pop\n      jump\t// out\n        /* \"#utility.yul\":2405:2484   */\n    tag_24:\n        /* \"#utility.yul\":2444:2451   */\n      0x00\n        /* \"#utility.yul\":2473:2478   */\n      dup2\n        /* \"#utility.yul\":2462:2478   */\n      swap1\n      pop\n        /* \"#utility.yul\":2405:2484   */\n      swap2\n      swap1\n      pop\n      jump\t// out\n        /* \"#utility.yul\":2490:2647   */\n    tag_25:\n        /* \"#utility.yul\":2595:2640   */\n      tag_57\n        /* \"#utility.yul\":2615:2639   */\n      tag_58\n        /* \"#utility.yul\":2633:2638   */\n      dup3\n        /* \"#utility.yul\":2615:2639   */\n      tag_16\n      jump\t// in\n    tag_58:\n        /* \"#utility.yul\":2595:2640   */\n      tag_24\n      jump\t// in\n    tag_57:\n        /* \"#utility.yul\":2590:2593   */\n      dup3\n        /* \"#utility.yul\":2583:2641   */\n      mstore\n        /* \"#utility.yul\":2490:2647   */\n      pop\n      pop\n      jump\t// out\n        /* \"#utility.yul\":2653:2909   */\n    tag_12:\n        /* \"#utility.yul\":2765:2768   */\n      0x00\n        /* \"#utility.yul\":2780:2855   */\n      tag_60\n        /* \"#utility.yul\":2851:2854   */\n      dup3\n        /* \"#utility.yul\":2842:2848   */\n      dup5\n        /* \"#utility.yul\":2780:2855   */\n      tag_25\n      jump\t// in\n    tag_60:\n        /* \"#utility.yul\":2880:2882   */\n      0x20\n        /* \"#utility.yul\":2875:2878   */\n      dup3\n        /* \"#utility.yul\":2871:2883   */\n      add\n        /* \"#utility.yul\":2864:2883   */\n      swap2\n      pop\n        /* \"#utility.yul\":2900:2903   */\n      dup2\n        /* \"#utility.yul\":2893:2903   */\n      swap1\n      pop\n        /* \"#utility.yul\":2653:2909   */\n      swap3\n      swap2\n      pop\n      pop\n      jump\t// out\n\n    auxdata: 0xa26469706673582212209f412a0c6962f85a55c5d68551d1c0e2aa84206888f5896c50e279721cac423464736f6c634300080d0033\n}\n",
				"bytecode": {
					"linkReferences": {},
					"object": "608060405234801561001057600080fd5b5061021e806100206000396000f3fe608060405234801561001057600080fd5b506004361061002b5760003560e01c80630178fe3f14610030575b600080fd5b61004a600480360381019061004591906100c4565b610060565b604051610057919061018a565b60405180910390f35b60608160405160200161007391906101cd565b6040516020818303038152906040529050919050565b600080fd5b6000819050919050565b6100a18161008e565b81146100ac57600080fd5b50565b6000813590506100be81610098565b92915050565b6000602082840312156100da576100d9610089565b5b60006100e8848285016100af565b91505092915050565b600081519050919050565b600082825260208201905092915050565b60005b8381101561012b578082015181840152602081019050610110565b8381111561013a576000848401525b50505050565b6000601f19601f8301169050919050565b600061015c826100f1565b61016681856100fc565b935061017681856020860161010d565b61017f81610140565b840191505092915050565b600060208201905081810360008301526101a48184610151565b905092915050565b6000819050919050565b6101c76101c28261008e565b6101ac565b82525050565b60006101d982846101b6565b6020820191508190509291505056fea26469706673582212209f412a0c6962f85a55c5d68551d1c0e2aa84206888f5896c50e279721cac423464736f6c634300080d0033",
					"opcodes": "PUSH1 0x80 PUSH1 0x40 MSTORE CALLVALUE DUP1 ISZERO PUSH2 0x10 JUMPI PUSH1 0x0 DUP1 REVERT JUMPDEST POP PUSH2 0x21E DUP1 PUSH2 0x20 PUSH1 0x0 CODECOPY PUSH1 0x0 RETURN INVALID PUSH1 0x80 PUSH1 0x40 MSTORE CALLVALUE DUP1 ISZERO PUSH2 0x10 JUMPI PUSH1 0x0 DUP1 REVERT JUMPDEST POP PUSH1 0x4 CALLDATASIZE LT PUSH2 0x2B JUMPI PUSH1 0x0 CALLDATALOAD PUSH1 0xE0 SHR DUP1 PUSH4 0x178FE3F EQ PUSH2 0x30 JUMPI JUMPDEST PUSH1 0x0 DUP1 REVERT JUMPDEST PUSH2 0x4A PUSH1 0x4 DUP1 CALLDATASIZE SUB DUP2 ADD SWAP1 PUSH2 0x45 SWAP2 SWAP1 PUSH2 0xC4 JUMP JUMPDEST PUSH2 0x60 JUMP JUMPDEST PUSH1 0x40 MLOAD PUSH2 0x57 SWAP2 SWAP1 PUSH2 0x18A JUMP JUMPDEST PUSH1 0x40 MLOAD DUP1 SWAP2 SUB SWAP1 RETURN JUMPDEST PUSH1 0x60 DUP2 PUSH1 0x40 MLOAD PUSH1 0x20 ADD PUSH2 0x73 SWAP2 SWAP1 PUSH2 0x1CD JUMP JUMPDEST PUSH1 0x40 MLOAD PUSH1 0x20 DUP2 DUP4 SUB SUB DUP2 MSTORE SWAP1 PUSH1 0x40 MSTORE SWAP1 POP SWAP2 SWAP1 POP JUMP JUMPDEST PUSH1 0x0 DUP1 REVERT JUMPDEST PUSH1 0x0 DUP2 SWAP1 POP SWAP2 SWAP1 POP JUMP JUMPDEST PUSH2 0xA1 DUP2 PUSH2 0x8E JUMP JUMPDEST DUP2 EQ PUSH2 0xAC JUMPI PUSH1 0x0 DUP1 REVERT JUMPDEST POP JUMP JUMPDEST PUSH1 0x0 DUP2 CALLDATALOAD SWAP1 POP PUSH2 0xBE DUP2 PUSH2 0x98 JUMP JUMPDEST SWAP3 SWAP2 POP POP JUMP JUMPDEST PUSH1 0x0 PUSH1 0x20 DUP3 DUP5 SUB SLT ISZERO PUSH2 0xDA JUMPI PUSH2 0xD9 PUSH2 0x89 JUMP JUMPDEST JUMPDEST PUSH1 0x0 PUSH2 0xE8 DUP5 DUP3 DUP6 ADD PUSH2 0xAF JUMP JUMPDEST SWAP2 POP POP SWAP3 SWAP2 POP POP JUMP JUMPDEST PUSH1 0x0 DUP2 MLOAD SWAP1 POP SWAP2 SWAP1 POP JUMP JUMPDEST PUSH1 0x0 DUP3 DUP3 MSTORE PUSH1 0x20 DUP3 ADD SWAP1 POP SWAP3 SWAP2 POP POP JUMP JUMPDEST PUSH1 0x0 JUMPDEST DUP4 DUP2 LT ISZERO PUSH2 0x12B JUMPI DUP1 DUP3 ADD MLOAD DUP2 DUP5 ADD MSTORE PUSH1 0x20 DUP2 ADD SWAP1 POP PUSH2 0x110 JUMP JUMPDEST DUP4 DUP2 GT ISZERO PUSH2 0x13A JUMPI PUSH1 0x0 DUP5 DUP5 ADD MSTORE JUMPDEST POP POP POP POP JUMP JUMPDEST PUSH1 0x0 PUSH1 0x1F NOT PUSH1 0x1F DUP4 ADD AND SWAP1 POP SWAP2 SWAP1 POP JUMP JUMPDEST PUSH1 0x0 PUSH2 0x15C DUP3 PUSH2 0xF1 JUMP JUMPDEST PUSH2 0x166 DUP2 DUP6 PUSH2 0xFC JUMP JUMPDEST SWAP4 POP PUSH2 0x176 DUP2 DUP6 PUSH1 0x20 DUP7 ADD PUSH2 0x10D JUMP JUMPDEST PUSH2 0x17F DUP2 PUSH2 0x140 JUMP JUMPDEST DUP5 ADD SWAP2 POP POP SWAP3 SWAP2 POP POP JUMP JUMPDEST PUSH1 0x0 PUSH1 0x20 DUP3 ADD SWAP1 POP DUP2 DUP2 SUB PUSH1 0x0 DUP4 ADD MSTORE PUSH2 0x1A4 DUP2 DUP5 PUSH2 0x151 JUMP JUMPDEST SWAP1 POP SWAP3 SWAP2 POP POP JUMP JUMPDEST PUSH1 0x0 DUP2 SWAP1 POP SWAP2 SWAP1 POP JUMP JUMPDEST PUSH2 0x1C7 PUSH2 0x1C2 DUP3 PUSH2 0x8E JUMP JUMPDEST PUSH2 0x1AC JUMP JUMPDEST DUP3 MSTORE POP POP JUMP JUMPDEST PUSH1 0x0 PUSH2 0x1D9 DUP3 DUP5 PUSH2 0x1B6 JUMP JUMPDEST PUSH1 0x20 DUP3 ADD SWAP2 POP DUP2 SWAP1 POP SWAP3 SWAP2 POP POP JUMP INVALID LOG2 PUSH5 0x6970667358 0x22 SLT KECCAK256 SWAP16 COINBASE 0x2A 0xC PUSH10 0x62F85A55C5D68551D1C0 0xE2 0xAA DUP5 KECCAK256 PUSH9 0x88F5896C50E279721C 0xAC TIMESTAMP CALLVALUE PUSH5 0x736F6C6343 STOP ADDMOD 0xD STOP CALLER "
				},
				"gasEstimates": {
					"creation": {
						"codeDepositCost": "108400",
						"executionCost": "153",
						"totalCost": "108553"
					},
					"external": {
						"getData(uint256)": "infinite"
					}
				},
				"methodIdentifiers": {
					"getData(uint256)": "0178fe3f"
				}
			},
			"storageLayout": {
				"storage": [],
				"types": null
			},
			"userdoc": {
				"kind": "user",
				"methods": {},
				"version": 1
			}
		}
	}
}