{
	"multicall.sol": {
		"MultiSendCallOnly": {
			"abi": [
				{
					"inputs": [
						{
							"internalType": "bytes",
							"name": "transactions",
							"type": "bytes"
						}
					],
					"name": "multiSend",
					"outputs": [],
					"stateMutability": "payable",
					"type": "function"
				}
			],
			"devdoc": {
				"author": "Stefan George - <stefan@gnosis.io>Richard Meissner - <richard@gnosis.io>",
				"kind": "dev",
				"methods": {
					"multiSend(bytes)": {
						"details": "Sends multiple transactions and reverts all if one fails.",
						"params": {
							"transactions": "Encoded transactions. Each transaction is encoded as a packed bytes of                     operation has to be uint8(0) in this version (=> 1 byte),                     to as a address (=> 20 bytes),                     value as a uint256 (=> 32 bytes),                     data length as a uint256 (=> 32 bytes),                     data as bytes.                     see abi.encodePacked for more information on packed encoding"
						}
					}
				},
				"title": "Multi Send Call Only - Allows to batch multiple transactions into one, but only calls",
				"version": 1
			},
			"evm": {
				"assembly": "    /* \"multicall.sol\":381:3517  contract MultiSendCallOnly {... */\n  mstore(0x40, 0x80)\n  callvalue\n  dup1\n  iszero\n  tag_1\n  jumpi\n  0x00\n  dup1\n  revert\ntag_1:\n  pop\n  dataSize(sub_0)\n  dup1\n  dataOffset(sub_0)\n  0x00\n  codecopy\n  0x00\n  return\nstop\n\nsub_0: assembly {\n        /* \"multicall.sol\":381:3517  contract MultiSendCallOnly {... */\n      mstore(0x40, 0x80)\n      jumpi(tag_1, lt(calldatasize, 0x04))\n      shr(0xe0, calldataload(0x00))\n      dup1\n      0x8d80ff0a\n      eq\n      tag_2\n      jumpi\n    tag_1:\n      0x00\n      dup1\n      revert\n        /* \"multicall.sol\":1378:3514  function multiSend(bytes memory transactions) public payable {... */\n    tag_2:\n      tag_3\n      0x04\n      dup1\n      calldatasize\n      sub\n      dup2\n      add\n      swap1\n      tag_4\n      swap2\n      swap1\n      tag_5\n      jump\t// in\n    tag_4:\n      tag_6\n      jump\t// in\n    tag_3:\n      stop\n    tag_6:\n        /* \"multicall.sol\":1551:1563  transactions */\n      dup1\n        /* \"multicall.sol\":1545:1564  mload(transactions) */\n      mload\n        /* \"multicall.sol\":1587:1591  0x20 */\n      0x20\n        /* \"multicall.sol\":1605:3496  for {... */\n    tag_8:\n        /* \"multicall.sol\":1690:1696  length */\n      dup2\n        /* \"multicall.sol\":1687:1688  i */\n      dup2\n        /* \"multicall.sol\":1684:1697  lt(i, length) */\n      lt\n        /* \"multicall.sol\":1605:3496  for {... */\n      iszero\n      tag_10\n      jumpi\n        /* \"multicall.sol\":2087:2088  i */\n      dup1\n        /* \"multicall.sol\":2073:2085  transactions */\n      dup4\n        /* \"multicall.sol\":2069:2089  add(transactions, i) */\n      add\n        /* \"multicall.sol\":2063:2090  mload(add(transactions, i)) */\n      mload\n        /* \"multicall.sol\":2057:2061  0xf8 */\n      0xf8\n        /* \"multicall.sol\":2053:2091  shr(0xf8, mload(add(transactions, i))) */\n      shr\n        /* \"multicall.sol\":2364:2368  0x01 */\n      0x01\n        /* \"multicall.sol\":2361:2362  i */\n      dup3\n        /* \"multicall.sol\":2357:2369  add(i, 0x01) */\n      add\n        /* \"multicall.sol\":2343:2355  transactions */\n      dup5\n        /* \"multicall.sol\":2339:2370  add(transactions, add(i, 0x01)) */\n      add\n        /* \"multicall.sol\":2333:2371  mload(add(transactions, add(i, 0x01))) */\n      mload\n        /* \"multicall.sol\":2327:2331  0x60 */\n      0x60\n        /* \"multicall.sol\":2323:2372  shr(0x60, mload(add(transactions, add(i, 0x01)))) */\n      shr\n        /* \"multicall.sol\":2528:2532  0x15 */\n      0x15\n        /* \"multicall.sol\":2525:2526  i */\n      dup4\n        /* \"multicall.sol\":2521:2533  add(i, 0x15) */\n      add\n        /* \"multicall.sol\":2507:2519  transactions */\n      dup6\n        /* \"multicall.sol\":2503:2534  add(transactions, add(i, 0x15)) */\n      add\n        /* \"multicall.sol\":2497:2535  mload(add(transactions, add(i, 0x15))) */\n      mload\n        /* \"multicall.sol\":2713:2717  0x35 */\n      0x35\n        /* \"multicall.sol\":2710:2711  i */\n      dup5\n        /* \"multicall.sol\":2706:2718  add(i, 0x35) */\n      add\n        /* \"multicall.sol\":2692:2704  transactions */\n      dup7\n        /* \"multicall.sol\":2688:2719  add(transactions, add(i, 0x35)) */\n      add\n        /* \"multicall.sol\":2682:2720  mload(add(transactions, add(i, 0x35))) */\n      mload\n        /* \"multicall.sol\":2909:2913  0x55 */\n      0x55\n        /* \"multicall.sol\":2906:2907  i */\n      dup6\n        /* \"multicall.sol\":2902:2914  add(i, 0x55) */\n      add\n        /* \"multicall.sol\":2888:2900  transactions */\n      dup8\n        /* \"multicall.sol\":2884:2915  add(transactions, add(i, 0x55)) */\n      add\n        /* \"multicall.sol\":2948:2949  0 */\n      0x00\n        /* \"multicall.sol\":2974:2983  operation */\n      dup6\n        /* \"multicall.sol\":3010:3011  0 */\n      0x00\n        /* \"multicall.sol\":3005:3119  case 0 {... */\n      dup2\n      eq\n      tag_12\n      jumpi\n        /* \"multicall.sol\":3212:3213  1 */\n      0x01\n        /* \"multicall.sol\":3207:3276  case 1 {... */\n      dup2\n      eq\n      tag_13\n      jumpi\n        /* \"multicall.sol\":2967:3276  switch operation... */\n      jump(tag_11)\n        /* \"multicall.sol\":3005:3119  case 0 {... */\n    tag_12:\n        /* \"multicall.sol\":3094:3095  0 */\n      0x00\n        /* \"multicall.sol\":3091:3092  0 */\n      dup1\n        /* \"multicall.sol\":3079:3089  dataLength */\n      dup6\n        /* \"multicall.sol\":3073:3077  data */\n      dup6\n        /* \"multicall.sol\":3066:3071  value */\n      dup9\n        /* \"multicall.sol\":3062:3064  to */\n      dup11\n        /* \"multicall.sol\":3055:3060  gas() */\n      gas\n        /* \"multicall.sol\":3050:3096  call(gas(), to, value, data, dataLength, 0, 0) */\n      call\n        /* \"multicall.sol\":3039:3096  success := call(gas(), to, value, data, dataLength, 0, 0) */\n      swap2\n      pop\n        /* \"multicall.sol\":3005:3119  case 0 {... */\n      jump(tag_11)\n        /* \"multicall.sol\":3207:3276  case 1 {... */\n    tag_13:\n        /* \"multicall.sol\":3251:3252  0 */\n      0x00\n        /* \"multicall.sol\":3248:3249  0 */\n      dup1\n        /* \"multicall.sol\":3241:3253  revert(0, 0) */\n      revert\n        /* \"multicall.sol\":2967:3276  switch operation... */\n    tag_11:\n      pop\n        /* \"multicall.sol\":3309:3310  0 */\n      0x00\n        /* \"multicall.sol\":3300:3307  success */\n      dup2\n        /* \"multicall.sol\":3297:3311  eq(success, 0) */\n      sub\n        /* \"multicall.sol\":3294:3366  if eq(success, 0) {... */\n      tag_14\n      jumpi\n        /* \"multicall.sol\":3345:3346  0 */\n      0x00\n        /* \"multicall.sol\":3342:3343  0 */\n      dup1\n        /* \"multicall.sol\":3335:3347  revert(0, 0) */\n      revert\n        /* \"multicall.sol\":3294:3366  if eq(success, 0) {... */\n    tag_14:\n        /* \"multicall.sol\":3469:3479  dataLength */\n      dup3\n        /* \"multicall.sol\":3463:3467  0x55 */\n      0x55\n        /* \"multicall.sol\":3459:3480  add(0x55, dataLength) */\n      add\n        /* \"multicall.sol\":3456:3457  i */\n      dup8\n        /* \"multicall.sol\":3452:3481  add(i, add(0x55, dataLength)) */\n      add\n        /* \"multicall.sol\":3447:3481  i := add(i, add(0x55, dataLength)) */\n      swap7\n      pop\n        /* \"multicall.sol\":1774:3496  {... */\n      pop\n      pop\n      pop\n      pop\n      pop\n      pop\n        /* \"multicall.sol\":1605:3496  for {... */\n      jump(tag_8)\n    tag_10:\n        /* \"multicall.sol\":1516:3507  {... */\n      pop\n      pop\n        /* \"multicall.sol\":1378:3514  function multiSend(bytes memory transactions) public payable {... */\n      pop\n      jump\t// out\n        /* \"#utility.yul\":7:82   */\n    tag_15:\n        /* \"#utility.yul\":40:46   */\n      0x00\n        /* \"#utility.yul\":73:75   */\n      0x40\n        /* \"#utility.yul\":67:76   */\n      mload\n        /* \"#utility.yul\":57:76   */\n      swap1\n      pop\n        /* \"#utility.yul\":7:82   */\n      swap1\n      jump\t// out\n        /* \"#utility.yul\":88:205   */\n    tag_16:\n        /* \"#utility.yul\":197:198   */\n      0x00\n        /* \"#utility.yul\":194:195   */\n      dup1\n        /* \"#utility.yul\":187:199   */\n      revert\n        /* \"#utility.yul\":211:328   */\n    tag_17:\n        /* \"#utility.yul\":320:321   */\n      0x00\n        /* \"#utility.yul\":317:318   */\n      dup1\n        /* \"#utility.yul\":310:322   */\n      revert\n        /* \"#utility.yul\":334:451   */\n    tag_18:\n        /* \"#utility.yul\":443:444   */\n      0x00\n        /* \"#utility.yul\":440:441   */\n      dup1\n        /* \"#utility.yul\":433:445   */\n      revert\n        /* \"#utility.yul\":457:574   */\n    tag_19:\n        /* \"#utility.yul\":566:567   */\n      0x00\n        /* \"#utility.yul\":563:564   */\n      dup1\n        /* \"#utility.yul\":556:568   */\n      revert\n        /* \"#utility.yul\":580:682   */\n    tag_20:\n        /* \"#utility.yul\":621:627   */\n      0x00\n        /* \"#utility.yul\":672:674   */\n      0x1f\n        /* \"#utility.yul\":668:675   */\n      not\n        /* \"#utility.yul\":663:665   */\n      0x1f\n        /* \"#utility.yul\":656:661   */\n      dup4\n        /* \"#utility.yul\":652:666   */\n      add\n        /* \"#utility.yul\":648:676   */\n      and\n        /* \"#utility.yul\":638:676   */\n      swap1\n      pop\n        /* \"#utility.yul\":580:682   */\n      swap2\n      swap1\n      pop\n      jump\t// out\n        /* \"#utility.yul\":688:868   */\n    tag_21:\n        /* \"#utility.yul\":736:813   */\n      0x4e487b7100000000000000000000000000000000000000000000000000000000\n        /* \"#utility.yul\":733:734   */\n      0x00\n        /* \"#utility.yul\":726:814   */\n      mstore\n        /* \"#utility.yul\":833:837   */\n      0x41\n        /* \"#utility.yul\":830:831   */\n      0x04\n        /* \"#utility.yul\":823:838   */\n      mstore\n        /* \"#utility.yul\":857:861   */\n      0x24\n        /* \"#utility.yul\":854:855   */\n      0x00\n        /* \"#utility.yul\":847:862   */\n      revert\n        /* \"#utility.yul\":874:1155   */\n    tag_22:\n        /* \"#utility.yul\":957:984   */\n      tag_37\n        /* \"#utility.yul\":979:983   */\n      dup3\n        /* \"#utility.yul\":957:984   */\n      tag_20\n      jump\t// in\n    tag_37:\n        /* \"#utility.yul\":949:955   */\n      dup2\n        /* \"#utility.yul\":945:985   */\n      add\n        /* \"#utility.yul\":1087:1093   */\n      dup2\n        /* \"#utility.yul\":1075:1085   */\n      dup2\n        /* \"#utility.yul\":1072:1094   */\n      lt\n        /* \"#utility.yul\":1051:1069   */\n      0xffffffffffffffff\n        /* \"#utility.yul\":1039:1049   */\n      dup3\n        /* \"#utility.yul\":1036:1070   */\n      gt\n        /* \"#utility.yul\":1033:1095   */\n      or\n        /* \"#utility.yul\":1030:1118   */\n      iszero\n      tag_38\n      jumpi\n        /* \"#utility.yul\":1098:1116   */\n      tag_39\n      tag_21\n      jump\t// in\n    tag_39:\n        /* \"#utility.yul\":1030:1118   */\n    tag_38:\n        /* \"#utility.yul\":1138:1148   */\n      dup1\n        /* \"#utility.yul\":1134:1136   */\n      0x40\n        /* \"#utility.yul\":1127:1149   */\n      mstore\n        /* \"#utility.yul\":917:1155   */\n      pop\n        /* \"#utility.yul\":874:1155   */\n      pop\n      pop\n      jump\t// out\n        /* \"#utility.yul\":1161:1290   */\n    tag_23:\n        /* \"#utility.yul\":1195:1201   */\n      0x00\n        /* \"#utility.yul\":1222:1242   */\n      tag_41\n      tag_15\n      jump\t// in\n    tag_41:\n        /* \"#utility.yul\":1212:1242   */\n      swap1\n      pop\n        /* \"#utility.yul\":1251:1284   */\n      tag_42\n        /* \"#utility.yul\":1279:1283   */\n      dup3\n        /* \"#utility.yul\":1271:1277   */\n      dup3\n        /* \"#utility.yul\":1251:1284   */\n      tag_22\n      jump\t// in\n    tag_42:\n        /* \"#utility.yul\":1161:1290   */\n      swap2\n      swap1\n      pop\n      jump\t// out\n        /* \"#utility.yul\":1296:1603   */\n    tag_24:\n        /* \"#utility.yul\":1357:1361   */\n      0x00\n        /* \"#utility.yul\":1447:1465   */\n      0xffffffffffffffff\n        /* \"#utility.yul\":1439:1445   */\n      dup3\n        /* \"#utility.yul\":1436:1466   */\n      gt\n        /* \"#utility.yul\":1433:1489   */\n      iszero\n      tag_44\n      jumpi\n        /* \"#utility.yul\":1469:1487   */\n      tag_45\n      tag_21\n      jump\t// in\n    tag_45:\n        /* \"#utility.yul\":1433:1489   */\n    tag_44:\n        /* \"#utility.yul\":1507:1536   */\n      tag_46\n        /* \"#utility.yul\":1529:1535   */\n      dup3\n        /* \"#utility.yul\":1507:1536   */\n      tag_20\n      jump\t// in\n    tag_46:\n        /* \"#utility.yul\":1499:1536   */\n      swap1\n      pop\n        /* \"#utility.yul\":1591:1595   */\n      0x20\n        /* \"#utility.yul\":1585:1589   */\n      dup2\n        /* \"#utility.yul\":1581:1596   */\n      add\n        /* \"#utility.yul\":1573:1596   */\n      swap1\n      pop\n        /* \"#utility.yul\":1296:1603   */\n      swap2\n      swap1\n      pop\n      jump\t// out\n        /* \"#utility.yul\":1609:1763   */\n    tag_25:\n        /* \"#utility.yul\":1693:1699   */\n      dup3\n        /* \"#utility.yul\":1688:1691   */\n      dup2\n        /* \"#utility.yul\":1683:1686   */\n      dup4\n        /* \"#utility.yul\":1670:1700   */\n      calldatacopy\n        /* \"#utility.yul\":1755:1756   */\n      0x00\n        /* \"#utility.yul\":1746:1752   */\n      dup4\n        /* \"#utility.yul\":1741:1744   */\n      dup4\n        /* \"#utility.yul\":1737:1753   */\n      add\n        /* \"#utility.yul\":1730:1757   */\n      mstore\n        /* \"#utility.yul\":1609:1763   */\n      pop\n      pop\n      pop\n      jump\t// out\n        /* \"#utility.yul\":1769:2179   */\n    tag_26:\n        /* \"#utility.yul\":1846:1851   */\n      0x00\n        /* \"#utility.yul\":1871:1936   */\n      tag_49\n        /* \"#utility.yul\":1887:1935   */\n      tag_50\n        /* \"#utility.yul\":1928:1934   */\n      dup5\n        /* \"#utility.yul\":1887:1935   */\n      tag_24\n      jump\t// in\n    tag_50:\n        /* \"#utility.yul\":1871:1936   */\n      tag_23\n      jump\t// in\n    tag_49:\n        /* \"#utility.yul\":1862:1936   */\n      swap1\n      pop\n        /* \"#utility.yul\":1959:1965   */\n      dup3\n        /* \"#utility.yul\":1952:1957   */\n      dup2\n        /* \"#utility.yul\":1945:1966   */\n      mstore\n        /* \"#utility.yul\":1997:2001   */\n      0x20\n        /* \"#utility.yul\":1990:1995   */\n      dup2\n        /* \"#utility.yul\":1986:2002   */\n      add\n        /* \"#utility.yul\":2035:2038   */\n      dup5\n        /* \"#utility.yul\":2026:2032   */\n      dup5\n        /* \"#utility.yul\":2021:2024   */\n      dup5\n        /* \"#utility.yul\":2017:2033   */\n      add\n        /* \"#utility.yul\":2014:2039   */\n      gt\n        /* \"#utility.yul\":2011:2123   */\n      iszero\n      tag_51\n      jumpi\n        /* \"#utility.yul\":2042:2121   */\n      tag_52\n      tag_19\n      jump\t// in\n    tag_52:\n        /* \"#utility.yul\":2011:2123   */\n    tag_51:\n        /* \"#utility.yul\":2132:2173   */\n      tag_53\n        /* \"#utility.yul\":2166:2172   */\n      dup5\n        /* \"#utility.yul\":2161:2164   */\n      dup3\n        /* \"#utility.yul\":2156:2159   */\n      dup6\n        /* \"#utility.yul\":2132:2173   */\n      tag_25\n      jump\t// in\n    tag_53:\n        /* \"#utility.yul\":1852:2179   */\n      pop\n        /* \"#utility.yul\":1769:2179   */\n      swap4\n      swap3\n      pop\n      pop\n      pop\n      jump\t// out\n        /* \"#utility.yul\":2198:2536   */\n    tag_27:\n        /* \"#utility.yul\":2253:2258   */\n      0x00\n        /* \"#utility.yul\":2302:2305   */\n      dup3\n        /* \"#utility.yul\":2295:2299   */\n      0x1f\n        /* \"#utility.yul\":2287:2293   */\n      dup4\n        /* \"#utility.yul\":2283:2300   */\n      add\n        /* \"#utility.yul\":2279:2306   */\n      slt\n        /* \"#utility.yul\":2269:2391   */\n      tag_55\n      jumpi\n        /* \"#utility.yul\":2310:2389   */\n      tag_56\n      tag_18\n      jump\t// in\n    tag_56:\n        /* \"#utility.yul\":2269:2391   */\n    tag_55:\n        /* \"#utility.yul\":2427:2433   */\n      dup2\n        /* \"#utility.yul\":2414:2434   */\n      calldataload\n        /* \"#utility.yul\":2452:2530   */\n      tag_57\n        /* \"#utility.yul\":2526:2529   */\n      dup5\n        /* \"#utility.yul\":2518:2524   */\n      dup3\n        /* \"#utility.yul\":2511:2515   */\n      0x20\n        /* \"#utility.yul\":2503:2509   */\n      dup7\n        /* \"#utility.yul\":2499:2516   */\n      add\n        /* \"#utility.yul\":2452:2530   */\n      tag_26\n      jump\t// in\n    tag_57:\n        /* \"#utility.yul\":2443:2530   */\n      swap2\n      pop\n        /* \"#utility.yul\":2259:2536   */\n      pop\n        /* \"#utility.yul\":2198:2536   */\n      swap3\n      swap2\n      pop\n      pop\n      jump\t// out\n        /* \"#utility.yul\":2542:3049   */\n    tag_5:\n        /* \"#utility.yul\":2610:2616   */\n      0x00\n        /* \"#utility.yul\":2659:2661   */\n      0x20\n        /* \"#utility.yul\":2647:2656   */\n      dup3\n        /* \"#utility.yul\":2638:2645   */\n      dup5\n        /* \"#utility.yul\":2634:2657   */\n      sub\n        /* \"#utility.yul\":2630:2662   */\n      slt\n        /* \"#utility.yul\":2627:2746   */\n      iszero\n      tag_59\n      jumpi\n        /* \"#utility.yul\":2665:2744   */\n      tag_60\n      tag_16\n      jump\t// in\n    tag_60:\n        /* \"#utility.yul\":2627:2746   */\n    tag_59:\n        /* \"#utility.yul\":2813:2814   */\n      0x00\n        /* \"#utility.yul\":2802:2811   */\n      dup3\n        /* \"#utility.yul\":2798:2815   */\n      add\n        /* \"#utility.yul\":2785:2816   */\n      calldataload\n        /* \"#utility.yul\":2843:2861   */\n      0xffffffffffffffff\n        /* \"#utility.yul\":2835:2841   */\n      dup2\n        /* \"#utility.yul\":2832:2862   */\n      gt\n        /* \"#utility.yul\":2829:2946   */\n      iszero\n      tag_61\n      jumpi\n        /* \"#utility.yul\":2865:2944   */\n      tag_62\n      tag_17\n      jump\t// in\n    tag_62:\n        /* \"#utility.yul\":2829:2946   */\n    tag_61:\n        /* \"#utility.yul\":2970:3032   */\n      tag_63\n        /* \"#utility.yul\":3024:3031   */\n      dup5\n        /* \"#utility.yul\":3015:3021   */\n      dup3\n        /* \"#utility.yul\":3004:3013   */\n      dup6\n        /* \"#utility.yul\":3000:3022   */\n      add\n        /* \"#utility.yul\":2970:3032   */\n      tag_27\n      jump\t// in\n    tag_63:\n        /* \"#utility.yul\":2960:3032   */\n      swap2\n      pop\n        /* \"#utility.yul\":2756:3042   */\n      pop\n        /* \"#utility.yul\":2542:3049   */\n      swap3\n      swap2\n      pop\n      pop\n      jump\t// out\n\n    auxdata: 0xa26469706673582212201475e23d46c73d4723b33f59fe10558c7c8d76d5abce47ccc63451548a25368064736f6c634300080d0033\n}\n",
				"bytecode": {
					"linkReferences": {},
					"object": "608060405234801561001057600080fd5b5061029d806100206000396000f3fe60806040526004361061001e5760003560e01c80638d80ff0a14610023575b600080fd5b61003d6004803603810190610038919061021e565b61003f565b005b805160205b818110156100bf578083015160f81c6001820184015160601c60158301850151603584018601516055850187016000856000811461008957600181146100995761009e565b6000808585888a5af1915061009e565b600080fd5b50600081036100ac57600080fd5b8260550187019650505050505050610044565b505050565b6000604051905090565b600080fd5b600080fd5b600080fd5b600080fd5b6000601f19601f8301169050919050565b7f4e487b7100000000000000000000000000000000000000000000000000000000600052604160045260246000fd5b61012b826100e2565b810181811067ffffffffffffffff8211171561014a576101496100f3565b5b80604052505050565b600061015d6100c4565b90506101698282610122565b919050565b600067ffffffffffffffff821115610189576101886100f3565b5b610192826100e2565b9050602081019050919050565b82818337600083830152505050565b60006101c16101bc8461016e565b610153565b9050828152602081018484840111156101dd576101dc6100dd565b5b6101e884828561019f565b509392505050565b600082601f830112610205576102046100d8565b5b81356102158482602086016101ae565b91505092915050565b600060208284031215610234576102336100ce565b5b600082013567ffffffffffffffff811115610252576102516100d3565b5b61025e848285016101f0565b9150509291505056fea26469706673582212201475e23d46c73d4723b33f59fe10558c7c8d76d5abce47ccc63451548a25368064736f6c634300080d0033",
					"opcodes": "PUSH1 0x80 PUSH1 0x40 MSTORE CALLVALUE DUP1 ISZERO PUSH2 0x10 JUMPI PUSH1 0x0 DUP1 REVERT JUMPDEST POP PUSH2 0x29D DUP1 PUSH2 0x20 PUSH1 0x0 CODECOPY PUSH1 0x0 RETURN INVALID PUSH1 0x80 PUSH1 0x40 MSTORE PUSH1 0x4 CALLDATASIZE LT PUSH2 0x1E JUMPI PUSH1 0x0 CALLDATALOAD PUSH1 0xE0 SHR DUP1 PUSH4 0x8D80FF0A EQ PUSH2 0x23 JUMPI JUMPDEST PUSH1 0x0 DUP1 REVERT JUMPDEST PUSH2 0x3D PUSH1 0x4 DUP1 CALLDATASIZE SUB DUP2 ADD SWAP1 PUSH2 0x38 SWAP2 SWAP1 PUSH2 0x21E JUMP JUMPDEST PUSH2 0x3F JUMP JUMPDEST STOP JUMPDEST DUP1 MLOAD PUSH1 0x20 JUMPDEST DUP2 DUP2 LT ISZERO PUSH2 0xBF JUMPI DUP1 DUP4 ADD MLOAD PUSH1 0xF8 SHR PUSH1 0x1 DUP3 ADD DUP5 ADD MLOAD PUSH1 0x60 SHR PUSH1 0x15 DUP4 ADD DUP6 ADD MLOAD PUSH1 0x35 DUP5 ADD DUP7 ADD MLOAD PUSH1 0x55 DUP6 ADD DUP8 ADD PUSH1 0x0 DUP6 PUSH1 0x0 DUP2 EQ PUSH2 0x89 JUMPI PUSH1 0x1 DUP2 EQ PUSH2 0x99 JUMPI PUSH2 0x9E JUMP JUMPDEST PUSH1 0x0 DUP1 DUP6 DUP6 DUP9 DUP11 GAS CALL SWAP2 POP PUSH2 0x9E JUMP JUMPDEST PUSH1 0x0 DUP1 REVERT JUMPDEST POP PUSH1 0x0 DUP2 SUB PUSH2 0xAC JUMPI PUSH1 0x0 DUP1 REVERT JUMPDEST DUP3 PUSH1 0x55 ADD DUP8 ADD SWAP7 POP POP POP POP POP POP POP PUSH2 0x44 JUMP JUMPDEST POP POP POP JUMP JUMPDEST PUSH1 0x0 PUSH1 0x40 MLOAD SWAP1 POP SWAP1 JUMP JUMPDEST PUSH1 0x0 DUP1 REVERT JUMPDEST PUSH1 0x0 DUP1 REVERT JUMPDEST PUSH1 0x0 DUP1 REVERT JUMPDEST PUSH1 0x0 DUP1 REVERT JUMPDEST PUSH1 0x0 PUSH1 0x1F NOT PUSH1 0x1F DUP4 ADD AND SWAP1 POP SWAP2 SWAP1 POP JUMP JUMPDEST PUSH32 0x4E487B7100000000000000000000000000000000000000000000000000000000 PUSH1 0x0 MSTORE PUSH1 0x41 PUSH1 0x4 MSTORE PUSH1 0x24 PUSH1 0x0 REVERT JUMPDEST PUSH2 0x12B DUP3 PUSH2 0xE2 JUMP JUMPDEST DUP2 ADD DUP2 DUP2 LT PUSH8 0xFFFFFFFFFFFFFFFF DUP3 GT OR ISZERO PUSH2 0x14A JUMPI PUSH2 0x149 PUSH2 0xF3 JUMP JUMPDEST JUMPDEST DUP1 PUSH1 0x40 MSTORE POP POP POP JUMP JUMPDEST PUSH1 0x0 PUSH2 0x15D PUSH2 0xC4 JUMP JUMPDEST SWAP1 POP PUSH2 0x169 DUP3 DUP3 PUSH2 0x122 JUMP JUMPDEST SWAP2 SWAP1 POP JUMP JUMPDEST PUSH1 0x0 PUSH8 0xFFFFFFFFFFFFFFFF DUP3 GT ISZERO PUSH2 0x189 JUMPI PUSH2 0x188 PUSH2 0xF3 JUMP JUMPDEST JUMPDEST PUSH2 0x192 DUP3 PUSH2 0xE2 JUMP JUMPDEST SWAP1 POP PUSH1 0x20 DUP2 ADD SWAP1 POP SWAP2 SWAP1 POP JUMP JUMPDEST DUP3 DUP2 DUP4 CALLDATACOPY PUSH1 0x0 DUP4 DUP4 ADD MSTORE POP POP POP JUMP JUMPDEST PUSH1 0x0 PUSH2 0x1C1 PUSH2 0x1BC DUP5 PUSH2 0x16E JUMP JUMPDEST PUSH2 0x153 JUMP JUMPDEST SWAP1 POP DUP3 DUP2 MSTORE PUSH1 0x20 DUP2 ADD DUP5 DUP5 DUP5 ADD GT ISZERO PUSH2 0x1DD JUMPI PUSH2 0x1DC PUSH2 0xDD JUMP JUMPDEST JUMPDEST PUSH2 0x1E8 DUP5 DUP3 DUP6 PUSH2 0x19F JUMP JUMPDEST POP SWAP4 SWAP3 POP POP POP JUMP JUMPDEST PUSH1 0x0 DUP3 PUSH1 0x1F DUP4 ADD SLT PUSH2 0x205 JUMPI PUSH2 0x204 PUSH2 0xD8 JUMP JUMPDEST JUMPDEST DUP2 CALLDATALOAD PUSH2 0x215 DUP5 DUP3 PUSH1 0x20 DUP7 ADD PUSH2 0x1AE JUMP JUMPDEST SWAP2 POP POP SWAP3 SWAP2 POP POP JUMP JUMPDEST PUSH1 0x0 PUSH1 0x20 DUP3 DUP5 SUB SLT ISZERO PUSH2 0x234 JUMPI PUSH2 0x233 PUSH2 0xCE JUMP JUMPDEST JUMPDEST PUSH1 0x0 DUP3 ADD CALLDATALOAD PUSH8 0xFFFFFFFFFFFFFFFF DUP2 GT ISZERO PUSH2 0x252 JUMPI PUSH2 0x251 PUSH2 0xD3 JUMP JUMPDEST JUMPDEST PUSH2 0x25E DUP5 DUP3 DUP6 ADD PUSH2 0x1F0 JUMP JUMPDEST SWAP2 POP POP SWAP3 SWAP2 POP POP JUMP INVALID LOG2 PUSH5 0x6970667358 0x22 SLT KECCAK256 EQ PUSH22 0xE23D46C73D4723B33F59FE10558C7C8D76D5ABCE47CC 0xC6 CALLVALUE MLOAD SLOAD DUP11 0x25 CALLDATASIZE DUP1 PUSH5 0x736F6C6343 STOP ADDMOD 0xD STOP CALLER "
				},
				"gasEstimates": {
					"creation": {
						"codeDepositCost": "133800",
						"executionCost": "177",
						"totalCost": "133977"
					},
					"external": {
						"multiSend(bytes)": "infinite"
					}
				},
				"methodIdentifiers": {
					"multiSend(bytes)": "8d80ff0a"
				}
			},
			"storageLayout": {
				"storage": [],
				"types": null
			},
			"userdoc": {
				"kind": "user",
				"methods": {
					"multiSend(bytes)": {
						"notice": "The code is for most part the same as the normal MultiSend (to keep compatibility),         but reverts if a transaction tries to use a delegatecall.This method is payable as delegatecalls keep the msg.value from the previous call         If the calling method (e.g. execTransaction) received ETH this would revert otherwise"
					}
				},
				"notice": "The guard logic is not required here as this contract doesn't support nested delegate calls",
				"version": 1
			}
		}
	}
}